:1000000000020202020202020202020202020202D2
:1000100002020202020202020202020202020202C0
:1000200000020202020202020202020202020202B2
:1000300002020202020202020202020202020202A0
:100040000002020202020202020202020202020292
:100050000202020202020202020202020202020280
:100060000002020202020202020202020202020272
:100070000202020202020202020202020202020260
:100080000002020202020202020202020202020252
:100090000202020202020202020202020202020240
:1000A0000002020202020202020202020202020232
:1000B0000202020202020202020202020202020220
:1000C0000002020202020202020202020202020212
:1000D0000202020202020202020202020202020200
:1000E00000020202020202020202020202020202F2
:1000F00002020202020202020202020202020202E0
:1001000000020202020202020202020202020202D1
:1001100002020202020202020202020202020202BF
:1001200000020202020202020202020202020202B1
:10013000020202020202020202020202020202029F
:100140000002020202020202020202020202020291
:10015000020202020202020202020202020202027F
:100160000002020202020202020202020202020271
:10017000020202020202020202020202020202025F
:100180000002020202020202020202020202020251
:10019000020202020202020202020202020202023F
:1001A0000002020202020202020202020202020231
:1001B000020202020202020202020202020202021F
:1001C0000002020202020202020202020202020211
:1001D00002020202020202020202020202020202FF
:1001E00000020202020202020202020202020202F1
:1001F00002020202020202020202020202020202DF
:1002000000020202020202020202020202020202D0
:1002100002020202020202020202020202020202BE
:1002200000020202020202020202020202020202B0
:10023000020202020202020202020202020202029E
:100240000002020202020202020202020202020290
:10025000020202020202020202020202020202027E
:100260000002020202020202020202020202020270
:10027000020202020202020202020202020202025E
:100280000002020202020202020202020202020250
:10029000020202020202020202020202020202023E
:1002A0000002020202020202020202020202020230
:1002B000020202020202020202020202020202021E
:1002C0000002020202020202020202020202020210
:1002D00002020202020202020202020202020202FE
:1002E00000020202020202020202020202020202F0
:1002F00002020202020202020202020202020202DE
:1003000000020202020202020202020202020202CF
:1003100002020202020202020202020202020202BD
:1003200000020202020202020202020202020202AF
:10033000020202020202020202020202020202029D
:10034000000202020202020202020202020202028F
:10035000020202020202020202020202020202027D
:10036000000202020202020202020202020202026F
:10037000020202020202020202020202020202025D
:10038000000202020202020202020202020202024F
:10039000020202020202020202020202020202023D
:1003A000000202020202020202020202020202022F
:1003B000020202020202020202020202020202021D
:1003C000000202020202020202020202020202020F
:1003D00002020202020202020202020202020202FD
:1003E00000020202020202020202020202020202EF
:1003F00002020202020202020202020202020202DD
:1004000000020202020200020002020202020202D2
:1004100002020202020202020202020202020202BC
:1004200000020202020202020202020202020202AE
:10043000020202020202020202020202020202029C
:10044000000202020202020202020202020202028E
:10045000020202020202020202020202020202027C
:10046000000202020202020202020202020202026E
:10047000020202020202020202020202020202025C
:10048000000202020202020202020202020202024E
:10049000020202020202020202020202020202023C
:1004A000000202020202020202020202020202022E
:1004B000020202020202020202020202020202021C
:1004C000000202020202020202020202020202020E
:1004D00002020202020202020202020202020202FC
:1004E00000020202020202020202020202020202EE
:1004F00002020202020202020202020202020202DC
:1005000000020202020202020202020202020202CD
:1005100002020202020202020202020202020202BB
:1005200000020202020202020202020202020202AD
:10053000020202020202020202020202020202029B
:10054000000202020202020202020202020202028D
:10055000020202020202020202020202020202027B
:10056000000202020202020202020202020202026D
:10057000020202020202020202020202020202025B
:10058000000202020202020202020202020202024D
:10059000020202020202020202020202020202023B
:1005A000000202020202020202020202020202022D
:1005B000020202020202020202020202020202021B
:1005C000000202020202020202020202020202020D
:1005D00002020202020202020202020202020202FB
:1005E00000020202020202020202020202020202ED
:1005F00002020202020202020202020202020202DB
:1006000000020202020202020202020202020202CC
:1006100002020202020202020202020202020202BA
:1006200000020202020202020202020202020202AC
:10063000020202020202020202020202020202029A
:10064000000202020202020202020202020202028C
:10065000020202020202020202020202020202027A
:10066000000202020202020202020202020202026C
:10067000020202020202020202020202020202025A
:10068000000202020202020202020202020202024C
:10069000020202020202020202020202020202023A
:1006A000000202020202020202020202020202022C
:1006B000020202020202020202020202020202021A
:1006C000000202020202020202020202020202020C
:1006D00002020202020202020202020202020202FA
:1006E00000020202020202020202020202020202EC
:1006F00002020202020202020202020202020202DA
:1007000000020202020202020202020202020202CB
:1007100002020202020202020202020202020202B9
:1007200000020202020202020202020202020202AB
:100730000202020202020202020202020202020299
:10074000000202020202020202020202020202028B
:100750000202020202020202020202020202020279
:10076000000202020202020202020202020202026B
:100770000202020202020202020202020202020259
:10078000000202020202020202020202020202024B
:100790000202020202020202020202020202020239
:1007A000000202020202020202020202020202022B
:1007B0000202020202020202020202020202020219
:1007C000000202020202020202020202020202020B
:1007D00002020202020202020202020202020202F9
:1007E00000020202020202020202020202020202EB
:1007F00002020202020202020202020202020202D9
:1008000000020002000200020202020202020202D0
:1008100002020202020202020202020202020202B8
:1008200000020202020202020202020202020202AA
:100830000202020202020202020202020202020298
:10084000000202020202020202020202020202028A
:100850000202020202020202020202020202020278
:10086000000202020202020202020202020202026A
:100870000202020202020202020202020202020258
:10088000000202020202020202020202020202024A
:100890000202020202020202020202020202020238
:1008A000000202020202020202020202020202022A
:1008B0000202020202020202020202020202020218
:1008C000000202020202020202020202020202020A
:1008D00002020202020202020202020202020202F8
:1008E00000020202020202020202020202020202EA
:1008F00002020202020202020202020202020202D8
:1009000000020202020202020202020202020202C9
:1009100002020202020202020202020202020202B7
:1009200000020002020202020202020202020202AB
:100930000202020202020202020202020202020297
:100940000002020202020202020202020202020289
:100950000202020202020202020202020202020277
:100960000002020202020202020202020202020269
:100970000202020202020202020202020202020257
:10098000000200020002020202020202020202024D
:100990000202020202020202020202020202020237
:1009A0000002020202020202020202020202020229
:1009B0000202020202020202020202020202020217
:1009C0000002020202020202020202020202020209
:1009D00002020202020202020202020202020202F7
:1009E00000020202020202020202020202020202E9
:1009F00002020202020202020202020202020202D7
:100A000000020202020202020202020202020202C8
:100A100002020202020202020202020202020202B6
:100A200000020202020202020202020202020202A8
:100A30000202020202020202020202020202020296
:100A40000002020202020202020202020202020288
:100A50000202020202020202020202020202020276
:100A60000002020202020202020202020202020268
:100A70000202020202020202020202020202020256
:100A80000002020202020202020202020202020248
:100A90000202020202020202020202020202020236
:100AA0000002020202020202020202020202020228
:100AB0000202020202020202020202020202020216
:100AC0000002020202020202020202020202020208
:100AD00002020202020202020202020202020202F6
:100AE00000020202020202020202020202020202E8
:100AF00002020202020202020202020202020202D6
:100B000000020202020202020202020202020202C7
:100B100002020202020202020202020202020202B5
:100B200000020202020202020202020202020202A7
:100B30000202020202020202020202020202020295
:100B40000002020202020202020202020202020287
:100B50000202020202020202020202020202020275
:100B60000002020202020202020202020202020267
:100B70000202020202020202020202020202020255
:100B80000002020202020202020202020202020247
:100B90000202020202020202020202020202020235
:100BA0000002020202020202020202020202020227
:100BB0000202020202020202020202020202020215
:100BC0000002020202020202020202020202020207
:100BD00002020202020202020202020202020202F5
:100BE00000020202020202020202020202020202E7
:100BF00002020202020202020202020202020202D5
:100C000000020200020002020202020202020202CA
:100C100002020202020202020202020202020202B4
:100C200000020202020202020202020202020202A6
:100C30000202020202020202020202020202020294
:100C40000002020202020202020202020202020286
:100C50000202020202020202020202020202020274
:100C60000002020202020202020202020202020266
:100C70000202020202020202020202020202020254
:100C80000002020202020202020202020202020246
:100C90000202020202020202020202020202020234
:100CA0000002020202020202020202020202020226
:100CB0000202020202020202020202020202020214
:100CC0000002020202020202020202020202020206
:100CD00002020202020202020202020202020202F4
:100CE00000020202020202020202020202020202E6
:100CF00002020202020202020202020202020202D4
:100D000000020200020202020202020202020202C7
:100D100002020202020202020202020202020202B3
:100D200000020002020202020202020202020202A7
:100D30000202020202020202020202020202020293
:100D40000002020202020202020202020202020285
:100D50000202020202020202020202020202020273
:100D60000002020202020202020202020202020265
:100D70000202020202020202020202020202020253
:100D80000002020202020202020202020202020245
:100D90000202020202020202020202020202020233
:100DA000000200020000020202020202020202022B
:100DB0000202020202020202020202020202020213
:100DC0000002020202020202020202020202020205
:100DD00002020202020202020202020202020202F3
:100DE00000020202020202020202020202020202E5
:100DF00002020202020202020202020202020202D3
:100E000000020202020202020202020202020202C4
:100E100002020202020202020202020202020202B2
:100E200000020202020202020202020202020202A4
:100E30000202020202020202020202020202020292
:100E40000002020202020202020202020202020284
:100E50000202020202020202020202020202020272
:100E60000002020202020202020202020202020264
:100E70000202020202020202020202020202020252
:100E80000002020202020202020202020202020244
:100E90000202020202020202020202020202020232
:100EA0000002020202020202020202020202020224
:100EB0000202020202020202020202020202020212
:100EC0000002020202020202020202020202020204
:100ED00002020202020202020202020202020202F2
:100EE00000020202020202020202020202020202E4
:100EF00002020202020202020202020202020202D2
:100F000000020202020202020202020202020202C3
:100F100002020202020202020202020202020202B1
:100F200000020202020202020202020202020202A3
:100F30000202020202020202020202020202020291
:100F40000002020202020202020202020202020283
:100F50000202020202020202020202020202020271
:100F60000002020202020202020202020202020263
:100F70000202020202020202020202020202020251
:100F80000002020202020202020202020202020243
:100F90000202020202020202020202020202020231
:100FA0000002020202020202020202020202020223
:100FB0000202020202020202020202020202020211
:100FC0000002020202020202020202020202020203
:100FD00002020202020202020202020202020202F1
:100FE00000020202020202020202020202020202E3
:100FF00002020202020202020202020202020202D1
:1010000000020202020202020202020202020202C2
:1010100002020202020202020202020202020202B0
:1010200000020202020202020202020202020202A2
:101030000202020202020202020202020202020290
:101040000002020202020202020202020202020282
:101050000202020202020202020202020202020270
:101060000002020202020202020202020202020262
:101070000202020202020202020202020202020250
:101080000002020202020202020202020202020242
:101090000202020202020202020202020202020230
:1010A0000002020202020202020202020202020222
:1010B0000202020202020202020202020202020210
:1010C0000002020202020202020202020202020202
:1010D00002020202020202020202020202020202F0
:1010E00000020202020202020202020202020202E2
:1010F00002020202020202020202020202020202D0
:1011000000020202020202020202020202020202C1
:1011100002020202020202020202020202020202AF
:1011200000020202020202020202020202020202A1
:10113000020202020202020202020202020202028F
:101140000002020202020202020202020202020281
:10115000020202020202020202020202020202026F
:101160000002020202020202020202020202020261
:10117000020202020202020202020202020202024F
:101180000002020202020202020202020202020241
:10119000020202020202020202020202020202022F
:1011A0000002000200020202020202020202020225
:1011B000020202020202020202020202020202020F
:1011C0000002020202020202020202020202020201
:1011D00002020202020202020202020202020202EF
:1011E00000020202020202020202020202020202E1
:1011F00002020202020202020202020202020202CF
:1012000000020002000202020202020202020202C4
:1012100002020202020202020202020202020202AE
:1012200000020202020202020202020202020202A0
:10123000020202020202020202020202020202028E
:101240000002020202020202020202020202020280
:10125000020202020202020202020202020202026E
:101260000002020202020202020202020202020260
:10127000020202020202020202020202020202024E
:101280000002020202020202020202020202020240
:10129000020202020202020202020202020202022E
:1012A0000002020202020202020202020202020220
:1012B000020202020202020202020202020202020E
:1012C0000002020202020202020202020202020200
:1012D00002020202020202020202020202020202EE
:1012E00000020202020202020202020202020202E0
:1012F00002020202020202020202020202020202CE
:1013000000020202020202020202020202020202BF
:1013100002020202020202020202020202020202AD
:10132000000202020202020202020202020202029F
:10133000020202020202020202020202020202028D
:10134000000202020202020202020202020202027F
:10135000020202020202020202020202020202026D
:10136000000202020202020202020202020202025F
:10137000020202020202020202020202020202024D
:10138000000202020202020202020202020202023F
:10139000020202020202020202020202020202022D
:1013A0000002000200020202020202020202020223
:1013B000020202020202020202020202020202020D
:1013C00000020202020202020202020202020202FF
:1013D00002020202020202020202020202020202ED
:1013E00000020202020202020202020202020202DF
:1013F00002020202020202020202020202020202CD
:1014000000020202020202020202020202020202BE
:1014100002020202020202020202020202020202AC
:10142000000202020202020202020202020202029E
:10143000020202020202020202020202020202028C
:101440000002000202020202020202020202020280
:10145000020202020202020202020202020202026C
:10146000000202020202020202020202020202025E
:10147000020202020202020202020202020202024C
:10148000000202020202020202020202020202023E
:10149000020202020202020202020202020202022C
:1014A000000202020202020202020202020202021E
:1014B000020202020202020202020202020202020C
:1014C00000020202020202020202020202020202FE
:1014D00002020202020202020202020202020202EC
:1014E00000020202020202020202020202020202DE
:1014F00002020202020202020202020202020202CC
:1015000000020202020202020202020202020202BD
:1015100002020202020202020202020202020202AB
:10152000000200020202020202020202020202029F
:10153000020202020202020202020202020202028B
:10154000000202020202020202020202020202027D
:10155000020202020202020202020202020202026B
:10156000000202020202020202020202020202025D
:10157000020202020202020202020202020202024B
:10158000000202020202020202020202020202023D
:10159000020202020202020202020202020202022B
:1015A0000002000200000202020202020202020223
:1015B000020202020202020202020202020202020B
:1015C00000020202020202020202020202020202FD
:1015D00002020202020202020202020202020202EB
:1015E00000020202020202020202020202020202DD
:1015F00002020202020202020202020202020202CB
:1016000000020002020202020202020202020202BE
:1016100002000202020202020202020202020202AC
:10162000000202020202020202020202020202029C
:10163000020202020202020202020202020202028A
:10164000000202020202020202020202020202027C
:10165000020202020202020202020202020202026A
:10166000000202020202020202020202020202025C
:10167000020202020202020202020202020202024A
:10168000000202020202020202020202020202023C
:10169000020202020202020202020202020202022A
:1016A000000202020202020202020202020202021C
:1016B000020202020202020202020202020202020A
:1016C00000020202020202020202020202020202FC
:1016D00002020202020202020202020202020202EA
:1016E00000020202020202020202020202020202DC
:1016F00002020202020202020202020202020202CA
:1017000000020202020202020202020202020202BB
:1017100002020202020202020202020202020202A9
:10172000000202020202020202020202020202029B
:101730000202020202020202020202020202020289
:10174000000202020202020202020202020202027B
:101750000202020202020202020202020202020269
:10176000000202020202020202020202020202025B
:101770000202020202020202020202020202020249
:10178000000202020202020202020202020202023B
:101790000202020202020202020202020202020229
:1017A0000002000200020202000202020202020221
:1017B000020200020202020202020202020202020B
:1017C00000020202020202020202020202020202FB
:1017D00002020202020202020202020202020202E9
:1017E00000020202020202020202020202020202DB
:1017F00002020202020202020202020202020202C9
:1018000000020202020202020202020202020202BA
:1018100002020202020202020202020202020202A8
:10182000000202020202020202020202020202029A
:101830000202020202020202020202020202020288
:10184000000202020202020202020202020202027A
:101850000202020202020202020202020202020268
:10186000000202020202020202020202020202025A
:101870000202020202020202020202020202020248
:10188000000202020202020202020202020202023A
:101890000202020202020202020202020202020228
:1018A000000202020202020202020202020202021A
:1018B0000202020202020202020202020202020208
:1018C00000020202020202020202020202020202FA
:1018D00002020202020202020202020202020202E8
:1018E00000020202020202020202020202020202DA
:1018F00002020202020202020202020202020202C8
:1019000000020202020202020202020202020202B9
:1019100002020202020202020202020202020202A7
:10192000000200020202020202020202020202029B
:101930000202020202020202020202020202020287
:101940000002020202020202020202020202020279
:101950000202020202020202020202020202020267
:101960000002020202020202020202020202020259
:101970000202020202020202020202020202020247
:101980000002020202020202020202020202020239
:101990000202020202020202020202020202020227
:1019A0000002020202020202020202020202020219
:1019B0000202020202020202020202020202020207
:1019C00000020002000002020202020202020202FF
:1019D00002020202020202020202020202020202E7
:1019E00000020202020202020202020202020202D9
:1019F00002020202020202020202020202020202C7
:101A000000020002000202020202020202020202BC
:101A100002020202020202020202020202020202A6
:101A20000002020202020202020202020202020298
:101A30000202020202020202020202020202020286
:101A40000002020202020202020202020202020278
:101A50000202020202020202020202020202020266
:101A60000002020202020202020202020202020258
:101A70000202020202020202020202020202020246
:101A80000002020202020202020202020202020238
:101A90000202020202020202020202020202020226
:101AA0000002020202020202020202020202020218
:101AB0000202020202020202020202020202020206
:101AC00000020202020202020202020202020202F8
:101AD00002020202020202020202020202020202E6
:101AE00000020202020202020202020202020202D8
:101AF00002020202020202020202020202020202C6
:101B000000020202020202020202020202020202B7
:101B100002020202020202020202020202020202A5
:101B20000002020202020202020202020202020297
:101B30000202020202020202020202020202020285
:101B40000002020202020202020202020202020277
:101B50000202020202020202020202020202020265
:101B60000002020202020202020202020202020257
:101B70000202020202020202020202020202020245
:101B80000002020202020202020202020202020237
:101B90000202020202020202020202020202020225
:101BA0000002020202020202020202020202020217
:101BB0000202020202020202020202020202020205
:101BC00000020202020202020202020202020202F7
:101BD00002020202020202020202020202020202E5
:101BE00000020202020202020202020202020202D7
:101BF00002020202020202020202020202020202C5
:101C000000020202020202020202020202020202B6
:101C100002020202020202020202020202020202A4
:101C20000002020202020202020202020202020296
:101C30000202020202020202020202020202020284
:101C40000002020202020202020202020202020276
:101C50000202020202020202020202020202020264
:101C60000002020202020202020202020202020256
:101C70000202020202020202020202020202020244
:101C80000002020202020202020202020202020236
:101C90000202020202020202020202020202020224
:101CA0000002020202020202020202020202020216
:101CB0000202020202020202020202020202020204
:101CC00000020202020202020202020202020202F6
:101CD00002020202020202020202020202020202E4
:101CE00000020202020202020202020202020202D6
:101CF00002020202020202020202020202020202C4
:101D000000020202020202020202020202020202B5
:101D100002020202020202020202020202020202A3
:101D20000002020002020202020202020202020297
:101D30000002020202020202020202020202020285
:101D40000002020202020202020202020202020275
:101D50000202020202020202020202020202020263
:101D60000002020202020202020202020202020255
:101D70000202020202020202020202020202020243
:101D80000002020202020202020202020202020235
:101D90000202020202020202020202020202020223
:101DA000000200020002000202020202020202021B
:101DB0000002020202020202020202020202020205
:101DC00000020002000002020202020202020202FB
:101DD00002020202020202020202020202020202E3
:101DE00000020202020202020202020202020202D5
:101DF00002020202020202020202020202020202C3
:101E000000020002020202020202020202020202B6
:101E100002000202020202020202020202020202A4
:101E20000002020202020202020202020202020294
:101E30000202020202020202020202020202020282
:101E40000002020202020202020202020202020274
:101E50000202020202020202020202020202020262
:101E60000002020202020202020202020202020254
:101E70000202020202020202020202020202020242
:101E80000002020202020202020202020202020234
:101E90000202020202020202020202020202020222
:101EA0000002020202020202020202020202020214
:101EB0000202020202020202020202020202020202
:101EC00000020202020202020202020202020202F4
:101ED00002020202020202020202020202020202E2
:101EE00000020202020202020202020202020202D4
:101EF00002020202020202020202020202020202C2
:101F000000020202020202020202020202020202B3
:101F100002020202020202020202020202020202A1
:101F20000002020202020202020202020202020293
:101F30000202020202020202020202020202020281
:101F40000002020202020202020202020202020273
:101F50000202020202020202020202020202020261
:101F60000002020202020202020202020202020253
:101F70000202020202020202020202020202020241
:101F80000002020202020202020202020202020233
:101F90000202020202020202020202020202020221
:101FA0000002000200000202020202020202020219
:101FB0000202020202020202020202020202020201
:101FC00000020002020202020202020202020202F5
:101FD00002020202020202020202020202020202E1
:101FE00000020202020202020202020202020202D3
:101FF00002020202020202020202020202020202C1
:00000001FF
