:10000000E1EE6600000000000000000000000000BB
:1000100000000000000000000000000000000000E0
:10002000E16E000000000000000000000000000081
:1000300000000000000000000000000000000000C0
:10004000E16E000000000000000000000000000061
:1000500000000000000000000000000000000000A0
:10006000E16E000000000000000000000000000041
:100070000000000000000000000000000000000080
:10008000E16E000000000000000000000000000021
:100090000000000000000000000000000000000060
:1000A000E16E000000000000000000000000000001
:1000B0000000000000000000000000000000000040
:1000C000E16E0000000000000000000000000000E1
:1000D0000000000000000000000000000000000020
:1000E000E16E0000000000000000000000000000C1
:1000F0000000000000000000000000000000000000
:10010000E16E0000000000000000000000000000A0
:1001100000000000000000000000000000000000DF
:10012000E16E000000000000000000000000000080
:1001300000000000000000000000000000000000BF
:10014000E16E000000000000000000000000000060
:10015000000000000000000000000000000000009F
:10016000E16E000000000000000000000000000040
:10017000000000000000000000000000000000007F
:10018000E16E000000000000000000000000000020
:10019000000000000000000000000000000000005F
:1001A000E16E000000000000000000000000000000
:1001B000000000000000000000000000000000003F
:1001C000E16E0000000000000000000000000000E0
:1001D000000000000000000000000000000000001F
:1001E000E16E0000000000000000000000000000C0
:1001F00000000000000000000000000000000000FF
:10020000E16E00000000000000000000000000009F
:1002100000000000000000000000000000000000DE
:10022000E16E00000000000000000000000000007F
:1002300000000000000000000000000000000000BE
:10024000E16E00000000000000000000000000005F
:10025000000000000000000000000000000000009E
:10026000E16E00000000000000000000000000003F
:10027000000000000000000000000000000000007E
:10028000E16E00000000000000000000000000001F
:10029000000000000000000000000000000000005E
:1002A000E16E0000000000000000000000000000FF
:1002B000000000000000000000000000000000003E
:1002C000E16E0000000000000000000000000000DF
:1002D000000000000000000000000000000000001E
:1002E000E16E0000000000000000000000000000BF
:1002F00000000000000000000000000000000000FE
:10030000E16E00000000000000000000000000009E
:1003100000000000000000000000000000000000DD
:10032000E16E00000000000000000000000000007E
:1003300000000000000000000000000000000000BD
:10034000E16E00000000000000000000000000005E
:10035000000000000000000000000000000000009D
:10036000E16E00000000000000000000000000003E
:10037000000000000000000000000000000000007D
:10038000E16E00000000000000000000000000001E
:10039000000000000000000000000000000000005D
:1003A000E16E0000000000000000000000000000FE
:1003B000000000000000000000000000000000003D
:1003C000E16E0000000000000000000000000000DE
:1003D000000000000000000000000000000000001D
:1003E000E16E0000000000000000000000000000BE
:1003F00000000000000000000000000000000000FD
:10040000E16E00000000000000000000000000009D
:1004100000000000000000000000000000000000DC
:10042000E16E00000000000000000000000000007D
:1004300000000000000000000000000000000000BC
:10044000E16E00000000000000000000000000005D
:10045000000000000000000000000000000000009C
:10046000E16E00000000000000000000000000003D
:10047000000000000000000000000000000000007C
:10048000E16E00000000000000000000000000001D
:10049000000000000000000000000000000000005C
:1004A000E16E0000000000000000000000000000FD
:1004B000000000000000000000000000000000003C
:1004C000E16E0000000000000000000000000000DD
:1004D000000000000000000000000000000000001C
:1004E000E16E0000000000000000000000000000BD
:1004F00000000000000000000000000000000000FC
:10050000E16E00000000000000000000000000009C
:1005100000000000000000000000000000000000DB
:10052000E16E00000000000000000000000000007C
:1005300000000000000000000000000000000000BB
:10054000E16E00000000000000000000000000005C
:10055000000000000000000000000000000000009B
:10056000E16E00000000000000000000000000003C
:10057000000000000000000000000000000000007B
:10058000E16E00000000000000000000000000001C
:10059000000000000000000000000000000000005B
:1005A000E16E0000000000000000000000000000FC
:1005B000000000000000000000000000000000003B
:1005C000E16E0000000000000000000000000000DC
:1005D000000000000000000000000000000000001B
:1005E000E16E0000000000000000000000000000BC
:1005F00000000000000000000000000000000000FB
:10060000E16E00000000000000000000000000009B
:1006100000000000000000000000000000000000DA
:10062000E16E00000000000000000000000000007B
:1006300000000000000000000000000000000000BA
:10064000E16E00000000000000000000000000005B
:10065000000000000000000000000000000000009A
:10066000E16E00000000000000000000000000003B
:10067000000000000000000000000000000000007A
:10068000E16E00000000000000000000000000001B
:10069000000000000000000000000000000000005A
:1006A000E16E0000000000000000000000000000FB
:1006B000000000000000000000000000000000003A
:1006C000E16E0000000000000000000000000000DB
:1006D000000000000000000000000000000000001A
:1006E000E16E0000000000000000000000000000BB
:1006F00000000000000000000000000000000000FA
:10070000E16E00000000000000000000000000009A
:1007100000000000000000000000000000000000D9
:10072000E16E00000000000000000000000000007A
:1007300000000000000000000000000000000000B9
:10074000E16E00000000000000000000000000005A
:100750000000000000000000000000000000000099
:10076000E16E00000000000000000000000000003A
:100770000000000000000000000000000000000079
:10078000E16E00000000000000000000000000001A
:100790000000000000000000000000000000000059
:1007A000E16E0000000000000000000000000000FA
:1007B0000000000000000000000000000000000039
:1007C000E16E0000000000000000000000000000DA
:1007D0000000000000000000000000000000000019
:1007E000E16E0000000000000000000000000000BA
:1007F00000000000000000000000000000000000F9
:10080000E16E000000000000000000000000000099
:1008100000000000000000000000000000000000D8
:10082000E16E000000000000000000000000000079
:1008300000000000000000000000000000000000B8
:10084000E16E000000000000000000000000000059
:100850000000000000000000000000000000000098
:10086000E16E000000000000000000000000000039
:100870000000000000000000000000000000000078
:10088000E16E000000000000000000000000000019
:100890000000000000000000000000000000000058
:1008A000E16E0000000000000000000000000000F9
:1008B0000000000000000000000000000000000038
:1008C000E16E0000000000000000000000000000D9
:1008D0000000000000000000000000000000000018
:1008E000E16E0000000000000000000000000000B9
:1008F00000000000000000000000000000000000F8
:10090000E16E000000000000000000000000000098
:1009100000000000000000000000000000000000D7
:10092000E16E000000000000000000000000000078
:1009300000000000000000000000000000000000B7
:10094000E16E000000000000000000000000000058
:100950000000000000000000000000000000000097
:10096000E16E000000000000000000000000000038
:100970000000000000000000000000000000000077
:10098000E1EEE0EEE0660000000000000000000084
:100990000000000000000000000000000000000057
:1009A000E16E0000000000000000000000000000F8
:1009B0000000000000000000000000000000000037
:1009C000E16E0000000000000000000000000000D8
:1009D0000000000000000000000000000000000017
:1009E000E16E0000000000000000000000000000B8
:1009F00000000000000000000000000000000000F7
:100A0000E16E000000000000000000000000000097
:100A100000000000000000000000000000000000D6
:100A2000E16E000000000000000000000000000077
:100A300000000000000000000000000000000000B6
:100A4000E16E000000000000000000000000000057
:100A50000000000000000000000000000000000096
:100A6000E16E000000000000000000000000000037
:100A70000000000000000000000000000000000076
:100A8000E16E000000000000000000000000000017
:100A90000000000000000000000000000000000056
:100AA000E16E0000000000000000000000000000F7
:100AB0000000000000000000000000000000000036
:100AC000E16E0000000000000000000000000000D7
:100AD0000000000000000000000000000000000016
:100AE000E16E0000000000000000000000000000B7
:100AF00000000000000000000000000000000000F6
:100B0000E16E000000000000000000000000000096
:100B100000000000000000000000000000000000D5
:100B2000E16E000000000000000000000000000076
:100B300000000000000000000000000000000000B5
:100B4000E16E000000000000000000000000000056
:100B50000000000000000000000000000000000095
:100B6000E16E000000000000000000000000000036
:100B70000000000000000000000000000000000075
:100B8000E16E000000000000000000000000000016
:100B90000000000000000000000000000000000055
:100BA000E16E0000000000000000000000000000F6
:100BB0000000000000000000000000000000000035
:100BC000E16E0000000000000000000000000000D6
:100BD0000000000000000000000000000000000015
:100BE000E16E0000000000000000000000000000B6
:100BF00000000000000000000000000000000000F5
:100C0000E16E000000000000000000000000000095
:100C100000000000000000000000000000000000D4
:100C2000E16E000000000000000000000000000075
:100C300000000000000000000000000000000000B4
:100C4000E16E000000000000000000000000000055
:100C50000000000000000000000000000000000094
:100C6000E16E000000000000000000000000000035
:100C70000000000000000000000000000000000074
:100C8000E16E000000000000000000000000000015
:100C90000000000000000000000000000000000054
:100CA000E16E0000000000000000000000000000F5
:100CB0000000000000000000000000000000000034
:100CC000E16E0000000000000000000000000000D5
:100CD0000000000000000000000000000000000014
:100CE000E16E0000000000000000000000000000B5
:100CF00000000000000000000000000000000000F4
:100D0000E16E000000000000000000000000000094
:100D100000000000000000000000000000000000D3
:100D2000E1EEE0CE760000000000000000000000D0
:100D300000000000000000000000000000000000B3
:100D4000E16E000000000000000000000000000054
:100D50000000000000000000000000000000000093
:100D6000E16E000000000000000000000000000034
:100D70000000000000000000000000000000000073
:100D8000E16E000000000000000000000000000014
:100D90000000000000000000000000000000000053
:100DA000E16E0000000000000000000000000000F4
:100DB0000000000000000000000000000000000033
:100DC000E16E0000000000000000000000000000D4
:100DD0000000000000000000000000000000000013
:100DE000E16E0000000000000000000000000000B4
:100DF00000000000000000000000000000000000F3
:100E0000E16E000000000000000000000000000093
:100E100000000000000000000000000000000000D2
:100E2000E16E000000000000000000000000000073
:100E300000000000000000000000000000000000B2
:100E4000E16E000000000000000000000000000053
:100E50000000000000000000000000000000000092
:100E6000E16E000000000000000000000000000033
:100E70000000000000000000000000000000000072
:100E8000E16E000000000000000000000000000013
:100E90000000000000000000000000000000000052
:100EA000E16E0000000000000000000000000000F3
:100EB0000000000000000000000000000000000032
:100EC000E16E0000000000000000000000000000D3
:100ED0000000000000000000000000000000000012
:100EE000E16E0000000000000000000000000000B3
:100EF00000000000000000000000000000000000F2
:100F0000E16E000000000000000000000000000092
:100F100000000000000000000000000000000000D1
:100F2000E16E000000000000000000000000000072
:100F300000000000000000000000000000000000B1
:100F4000E16E000000000000000000000000000052
:100F50000000000000000000000000000000000091
:100F6000E16E000000000000000000000000000032
:100F70000000000000000000000000000000000071
:100F8000E16E000000000000000000000000000012
:100F90000000000000000000000000000000000051
:100FA000E16E0000000000000000000000000000F2
:100FB0000000000000000000000000000000000031
:100FC000E16E0000000000000000000000000000D2
:100FD0000000000000000000000000000000000011
:100FE000E16E0000000000000000000000000000B2
:100FF00000000000000000000000000000000000F1
:10100000E16E000000000000000000000000000091
:1010100000000000000000000000000000000000D0
:10102000E16E000000000000000000000000000071
:1010300000000000000000000000000000000000B0
:10104000E16E000000000000000000000000000051
:101050000000000000000000000000000000000090
:10106000E16E000000000000000000000000000031
:101070000000000000000000000000000000000070
:10108000E16E000000000000000000000000000011
:101090000000000000000000000000000000000050
:1010A000E16E0000000000000000000000000000F1
:1010B0000000000000000000000000000000000030
:1010C000E16E0000000000000000000000000000D1
:1010D0000000000000000000000000000000000010
:1010E000E16E0000000000000000000000000000B1
:1010F00000000000000000000000000000000000F0
:10110000E16E000000000000000000000000000090
:1011100000000000000000000000000000000000CF
:10112000E16E000000000000000000000000000070
:1011300000000000000000000000000000000000AF
:10114000E16E000000000000000000000000000050
:10115000000000000000000000000000000000008F
:10116000E16E000000000000000000000000000030
:10117000000000000000000000000000000000006F
:10118000E16E000000000000000000000000000010
:10119000000000000000000000000000000000004F
:1011A000E1EEE0EEE04E0000000000000000000074
:1011B000000000000000000000000000000000002F
:1011C000E16E0000000000000000000000000000D0
:1011D000000000000000000000000000000000000F
:1011E000E16E0000000000000000000000000000B0
:1011F00000000000000000000000000000000000EF
:10120000E16E00000000000000000000000000008F
:1012100000000000000000000000000000000000CE
:10122000E16E00000000000000000000000000006F
:1012300000000000000000000000000000000000AE
:10124000E16E00000000000000000000000000004F
:10125000000000000000000000000000000000008E
:10126000E16E00000000000000000000000000002F
:10127000000000000000000000000000000000006E
:10128000E16E00000000000000000000000000000F
:10129000000000000000000000000000000000004E
:1012A000E16E0000000000000000000000000000EF
:1012B000000000000000000000000000000000002E
:1012C000E16E0000000000000000000000000000CF
:1012D000000000000000000000000000000000000E
:1012E000E16E0000000000000000000000000000AF
:1012F00000000000000000000000000000000000EE
:10130000E16E00000000000000000000000000008E
:1013100000000000000000000000000000000000CD
:10132000E16E00000000000000000000000000006E
:1013300000000000000000000000000000000000AD
:10134000E16E00000000000000000000000000004E
:10135000000000000000000000000000000000008D
:10136000E16E00000000000000000000000000002E
:10137000000000000000000000000000000000006D
:10138000E16E00000000000000000000000000000E
:10139000000000000000000000000000000000004D
:1013A000E16E0000000000000000000000000000EE
:1013B000000000000000000000000000000000002D
:1013C000E16E0000000000000000000000000000CE
:1013D000000000000000000000000000000000000D
:1013E000E16E0000000000000000000000000000AE
:1013F00000000000000000000000000000000000ED
:10140000E16E00000000000000000000000000008D
:1014100000000000000000000000000000000000CC
:10142000E16E00000000000000000000000000006D
:1014300000000000000000000000000000000000AC
:10144000E16E00000000000000000000000000004D
:10145000000000000000000000000000000000008C
:10146000E16E00000000000000000000000000002D
:10147000000000000000000000000000000000006C
:10148000E16E00000000000000000000000000000D
:10149000000000000000000000000000000000004C
:1014A000E16E0000000000000000000000000000ED
:1014B000000000000000000000000000000000002C
:1014C000E16E0000000000000000000000000000CD
:1014D000000000000000000000000000000000000C
:1014E000E16E0000000000000000000000000000AD
:1014F00000000000000000000000000000000000EC
:10150000E16E00000000000000000000000000008C
:1015100000000000000000000000000000000000CB
:10152000E1EEF06E0000000000000000000000008E
:1015300000000000000000000000000000000000AB
:10154000E16E00000000000000000000000000004C
:10155000000000000000000000000000000000008B
:10156000E16E00000000000000000000000000002C
:10157000000000000000000000000000000000006B
:10158000E16E00000000000000000000000000000C
:10159000000000000000000000000000000000004B
:1015A000E1EEE0EEE07C0000000000000000000042
:1015B000000000000000000000000000000000002B
:1015C000E16E0000000000000000000000000000CC
:1015D000000000000000000000000000000000000B
:1015E000E16E0000000000000000000000000000AC
:1015F00000000000000000000000000000000000EB
:10160000E16E00000000000000000000000000008B
:1016100000000000000000000000000000000000CA
:10162000E16E00000000000000000000000000006B
:1016300000000000000000000000000000000000AA
:10164000E16E00000000000000000000000000004B
:10165000000000000000000000000000000000008A
:10166000E16E00000000000000000000000000002B
:10167000000000000000000000000000000000006A
:10168000E16E00000000000000000000000000000B
:10169000000000000000000000000000000000004A
:1016A000E16E0000000000000000000000000000EB
:1016B000000000000000000000000000000000002A
:1016C000E16E0000000000000000000000000000CB
:1016D000000000000000000000000000000000000A
:1016E000E16E0000000000000000000000000000AB
:1016F00000000000000000000000000000000000EA
:10170000E16E00000000000000000000000000008A
:1017100000000000000000000000000000000000C9
:10172000E16E00000000000000000000000000006A
:1017300000000000000000000000000000000000A9
:10174000E16E00000000000000000000000000004A
:101750000000000000000000000000000000000089
:10176000E16E00000000000000000000000000002A
:101770000000000000000000000000000000000069
:10178000E16E00000000000000000000000000000A
:101790000000000000000000000000000000000049
:1017A000E16E0000000000000000000000000000EA
:1017B0000000000000000000000000000000000029
:1017C000E16E0000000000000000000000000000CA
:1017D0000000000000000000000000000000000009
:1017E000E16E0000000000000000000000000000AA
:1017F00000000000000000000000000000000000E9
:10180000E16E000000000000000000000000000089
:1018100000000000000000000000000000000000C8
:10182000E16E000000000000000000000000000069
:1018300000000000000000000000000000000000A8
:10184000E16E000000000000000000000000000049
:101850000000000000000000000000000000000088
:10186000E16E000000000000000000000000000029
:101870000000000000000000000000000000000068
:10188000E16E000000000000000000000000000009
:101890000000000000000000000000000000000048
:1018A000E16E0000000000000000000000000000E9
:1018B0000000000000000000000000000000000028
:1018C000E16E0000000000000000000000000000C9
:1018D0000000000000000000000000000000000008
:1018E000E16E0000000000000000000000000000A9
:1018F00000000000000000000000000000000000E8
:10190000E16E000000000000000000000000000088
:1019100000000000000000000000000000000000C7
:10192000E16E000000000000000000000000000068
:1019300000000000000000000000000000000000A7
:10194000E16E000000000000000000000000000048
:101950000000000000000000000000000000000087
:10196000E16E000000000000000000000000000028
:101970000000000000000000000000000000000067
:10198000E16E000000000000000000000000000008
:101990000000000000000000000000000000000047
:1019A000E16E0000000000000000000000000000E8
:1019B0000000000000000000000000000000000027
:1019C000E16E0000000000000000000000000000C8
:1019D0000000000000000000000000000000000007
:1019E000E16E0000000000000000000000000000A8
:1019F00000000000000000000000000000000000E7
:101A0000E16E000000000000000000000000000087
:101A100000000000000000000000000000000000C6
:101A2000E16E000000000000000000000000000067
:101A300000000000000000000000000000000000A6
:101A4000E16E000000000000000000000000000047
:101A50000000000000000000000000000000000086
:101A6000E16E000000000000000000000000000027
:101A70000000000000000000000000000000000066
:101A8000E16E000000000000000000000000000007
:101A90000000000000000000000000000000000046
:101AA000E16E0000000000000000000000000000E7
:101AB0000000000000000000000000000000000026
:101AC000E16E0000000000000000000000000000C7
:101AD0000000000000000000000000000000000006
:101AE000E16E0000000000000000000000000000A7
:101AF00000000000000000000000000000000000E6
:101B0000E16E000000000000000000000000000086
:101B100000000000000000000000000000000000C5
:101B2000E16E000000000000000000000000000066
:101B300000000000000000000000000000000000A5
:101B4000E16E000000000000000000000000000046
:101B50000000000000000000000000000000000085
:101B6000E16E000000000000000000000000000026
:101B70000000000000000000000000000000000065
:101B8000E16E000000000000000000000000000006
:101B90000000000000000000000000000000000045
:101BA000E16E0000000000000000000000000000E6
:101BB0000000000000000000000000000000000025
:101BC000E16E0000000000000000000000000000C6
:101BD0000000000000000000000000000000000005
:101BE000E16E0000000000000000000000000000A6
:101BF00000000000000000000000000000000000E5
:101C0000E16E000000000000000000000000000085
:101C100000000000000000000000000000000000C4
:101C2000E16E000000000000000000000000000065
:101C300000000000000000000000000000000000A4
:101C4000E16E000000000000000000000000000045
:101C50000000000000000000000000000000000084
:101C6000E16E000000000000000000000000000025
:101C70000000000000000000000000000000000064
:101C8000E16E000000000000000000000000000005
:101C90000000000000000000000000000000000044
:101CA000E16E0000000000000000000000000000E5
:101CB0000000000000000000000000000000000024
:101CC000E16E0000000000000000000000000000C5
:101CD0000000000000000000000000000000000004
:101CE000E16E0000000000000000000000000000A5
:101CF00000000000000000000000000000000000E4
:101D0000E16E000000000000000000000000000084
:101D100000000000000000000000000000000000C3
:101D2000E16E000000000000000000000000000064
:101D300000000000000000000000000000000000A3
:101D4000E16E000000000000000000000000000044
:101D50000000000000000000000000000000000083
:101D6000E16E000000000000000000000000000024
:101D70000000000000000000000000000000000063
:101D8000E16E000000000000000000000000000004
:101D90000000000000000000000000000000000043
:101DA000E16E0000000000000000000000000000E4
:101DB0000000000000000000000000000000000023
:101DC000E16E0000000000000000000000000000C4
:101DD0000000000000000000000000000000000003
:101DE000E16E0000000000000000000000000000A4
:101DF00000000000000000000000000000000000E3
:101E0000E16E000000000000000000000000000083
:101E100000000000000000000000000000000000C2
:101E2000E16E000000000000000000000000000063
:101E300000000000000000000000000000000000A2
:101E4000E16E000000000000000000000000000043
:101E50000000000000000000000000000000000082
:101E6000E16E000000000000000000000000000023
:101E70000000000000000000000000000000000062
:101E8000E16E000000000000000000000000000003
:101E90000000000000000000000000000000000042
:101EA000E16E0000000000000000000000000000E3
:101EB0000000000000000000000000000000000022
:101EC000E16E0000000000000000000000000000C3
:101ED0000000000000000000000000000000000002
:101EE000E16E0000000000000000000000000000A3
:101EF00000000000000000000000000000000000E2
:101F0000E16E000000000000000000000000000082
:101F100000000000000000000000000000000000C1
:101F2000E16E000000000000000000000000000062
:101F300000000000000000000000000000000000A1
:101F4000E16E000000000000000000000000000042
:101F50000000000000000000000000000000000081
:101F6000E16E000000000000000000000000000022
:101F70000000000000000000000000000000000061
:101F8000E16E000000000000000000000000000002
:101F90000000000000000000000000000000000041
:101FA000E16E0000000000000000000000000000E2
:101FB0000000000000000000000000000000000021
:101FC000E16E0000000000000000000000000000C2
:101FD0000000000000000000000000000000000001
:101FE000E1EE2600000000000000000000000000FC
:101FF00000000000000000000000000000000000E1
:00000001FF
