:100000008840004000400040000000000000000068
:1000100000000000000000000000000000000000E0
:100020008800000000000000000000000000000048
:1000300000000000000000000000000000000000C0
:100040008800000000000000000000000000000028
:1000500000000000000000000000000000000000A0
:1000600088008400820081A80000000000000000D9
:100070000000000000000000000000000000000080
:100080008800801080000102A8000000000000002D
:100090000002A800000000000000000000000000B6
:1000A00088008400800080000102A8000000000099
:1000B0000002A80000000000000000000000000096
:1000C00088000000000000000000000000000000A8
:1000D0000000000000000000000000000000000020
:1000E0008800821081A800000000000000000000CD
:1000F0000000000000000000000000000000000000
:1001000088008400820081A8000000000000000038
:1001100000000000000000000000000000000000DF
:100120008800000000000000000000000000000047
:1001300000000000000000000000000000000000BF
:100140008800000000000000000000000000000027
:10015000000000000000000000000000000000009F
:100160008800800000000000000000000000000087
:10017000000000000000000000000000000000007F
:100180008800821081A8000000000000000000002C
:10019000000000000000000000000000000000005F
:1001A00088008400820081A8000000000000000098
:1001B000000000000000000000000000000000003F
:1001C00088000000000000000000000000000000A7
:1001D000000000000000000000000000000000001F
:1001E0008800000000000000000000000000000087
:1001F00000000000000000000000000000000000FF
:100200008800800080000000000000000000000066
:1002100000000000000000000000000000000000DE
:100220008800821081A8000000000000000000008B
:1002300000000000000000000000000000000000BE
:1002400088008400820081A80000000000000000F7
:10025000000000000000000000000000000000009E
:100260008800000000000000000000000000000006
:10027000000000000000000000000000000000007E
:1002800088000000000000000000000000000000E6
:10029000000000000000000000000000000000005E
:1002A0008800800000000000000000000000000046
:1002B000000000000000000000000000000000003E
:1002C0008800821081A800000000000000000000EB
:1002D000000000000000000000000000000000001E
:1002E00088008400820081A8000000000000000057
:1002F00000000000000000000000000000000000FE
:100300008800000000000000000000000000000065
:1003100000000000000000000000000000000000DD
:100320008800804000800080008000000000000005
:1003300000000000000000000000000000000000BD
:100340008800000000000000000000000000000025
:10035000000000000000000000000000000000009D
:100360008800000000000000000000000000000005
:10037000000000000000000000000000000000007D
:1003800088000000000000000000000000000000E5
:10039000000000000000000000000000000000005D
:1003A00088000000000000000000000000000000C5
:1003B000000000000000000000000000000000003D
:1003C00088000000000000000000000000000000A5
:1003D000000000000000000000000000000000001D
:1003E0008800000000000000000000000000000085
:1003F00000000000000000000000000000000000FD
:1004000088004000400040008000800000000000A4
:1004100000000000000000000000000000000000DC
:100420008800400040004000804000800080008044
:1004300000000000000000000000000000000000BC
:1004400088008000000000000000000000000000A4
:1004500040008000800080000000000000000000DC
:100460008800800000000000000000000000000084
:1004700040008000800080000000000000000000BC
:100480008800800000000000000000000000000064
:10049000400080008000800000000000000000009C
:1004A0008800804000800080008000000000000084
:1004B000000000000000000000000000000000003C
:1004C0008800821081A86800000000000000000081
:1004D000000000000000000000000000000000001C
:1004E0008800804000800080008000000000000044
:1004F00000000000000000000000000000000000FC
:100500008800000000000000000000000000000063
:1005100000000000000000000000000000000000DB
:1005200088008000000000000000000000000000C3
:1005300000000000000000000000000000000000BB
:100540008800000000000000000000000000000023
:10055000000000000000000000000000000000009B
:100560008800000000000000000000000000000003
:10057000000000000000000000000000000000007B
:1005800088000000000000000000000000000000E3
:10059000000000000000000000000000000000005B
:1005A00088000000000000000000000000000000C3
:1005B000000000000000000000000000000000003B
:1005C00088000000000000000000000000000000A3
:1005D000000000000000000000000000000000001B
:1005E0008800000000000000000000000000000083
:1005F00000000000000000000000000000000000FB
:1006000088008000000000000000000000000000E2
:10061000008000000000000000000000000000005A
:100620008800801080000102A80000000000000087
:100630000002A80000000000000000000000000010
:1006400088008400800080000102A80000000000F3
:100650000002A800000000000000000000000000F0
:100660008800821081A80000000000000000000047
:10067000000000000000000000000000000000007A
:1006800088008400820081A80000000000000000B3
:10069000000000000000000000000000000000005A
:1006A0008800821081A80000000000000000000007
:1006B000000000000000000000000000000000003A
:1006C00088008400820081A8000000000000000073
:1006D000000000000000000000000000000000001A
:1006E0008800821081A800000000000000000000C7
:1006F00000000000000000000000000000000000FA
:100700008800000000000000000000000000000061
:1007100000000000000000000000000000000000D9
:1007200088008400820081A8000000000000000012
:1007300000000000000000000000000000000000B9
:100740008800000000000000000000000000000021
:100750000000000000000000000000000000000099
:100760008800000000000000000000000000000001
:100770000000000000000000000000000000000079
:1007800088000000000000000000000000000000E1
:100790000000000000000000000000000000000059
:1007A00088000000000000000000000000000000C1
:1007B0000000000000000000000000000000000039
:1007C00088000000000000000000000000000000A1
:1007D0000000000000000000000000000000000019
:1007E0008800000000000000000000000000000081
:1007F00000000000000000000000000000000000F9
:100800008800800080008000800000000000000060
:1008100000000000000000000000000000000000D8
:1008200088008400820081A8000000000000000011
:1008300000000000000000000000000000000000B8
:1008400088008400820081A80000000000000000F1
:100850000000000000000000000000000000000098
:100860008800821081A80000000000000000000045
:100870000000000000000000000000000000000078
:1008800088008400820081A80000000000000000B1
:100890000000000000000000000000000000000058
:1008A0008800821081A80000000000000000000005
:1008B0000000000000000000000000000000000038
:1008C00088008400820081A8000000000000000071
:1008D0000000000000000000000000000000000018
:1008E0008800821081A800000000000000000000C5
:1008F00000000000000000000000000000000000F8
:10090000880040000000000000000000000000001F
:1009100000000000000000000000000000000000D7
:1009200088008000000000000000000000000000BF
:1009300000000000000000000000000000000000B7
:1009400088008400820081A80000000000000000F0
:100950000000000000000000000000000000000097
:100960008800821081A80000000000000000000044
:100970000000000000000000000000000000000077
:1009800088008000800000000000000000000000DF
:100990000000000000000000000000000000000057
:1009A000880080400080008000800000000000007F
:1009B0000000000000000000000000000000000037
:1009C00088008400820081A8000000000000000070
:1009D0000000000000000000000000000000000017
:1009E000880000000000000000000000000000007F
:1009F00000000000000000000000000000000000F7
:100A0000880000000000000000000000000000005E
:100A100000000000000000000000000000000000D6
:100A2000880000000000000000000000000000003E
:100A300000000000000000000000000000000000B6
:100A400088008400820081A8680000000000000087
:100A50000000000000000000000000000000000096
:100A600088008400820081A8680000000000000067
:100A70000000000000000000000000000000000076
:100A800088008400820081A8680000000000000047
:100A90000000000000000000000000000000000056
:100AA00088008400820081A8680000000000000027
:100AB0000000000000000000000000000000000036
:100AC000880000000000000000000000000000009E
:100AD0000000000000000000000000000000000016
:100AE000880000000000000000000000000000007E
:100AF00000000000000000000000000000000000F6
:100B0000880000000000000000000000000000005D
:100B100000000000000000000000000000000000D5
:100B2000880000000000000000000000000000003D
:100B300000000000000000000000000000000000B5
:100B4000880000000000000000000000000000001D
:100B50000000000000000000000000000000000095
:100B60008800840082008100A800000000000000CE
:100B7000A8000000000000000000000000000000CD
:100B80008800821081A80000000000000000000022
:100B90000000000000000000000000000000000055
:100BA00088000000000000000000000000000000BD
:100BB0000000000000000000000000000000000035
:100BC000880000000000000000000000000000009D
:100BD0000000000000000000000000000000000015
:100BE000880080108000010200A8000000000000C2
:100BF000000200A80000000000000000000000004B
:100C000088000080008000800000000000000000DC
:100C100000000000000000000000000000000000D4
:100C20008800840080008000010200A8000000000D
:100C3000000200A80000000000000000000000000A
:100C4000880084008000800001026800000000002D
:100C5000000268000000000000000000000000002A
:100C600088008000800000000000000000000000FC
:100C70000000000000000000000000000000000074
:100C8000880080000000000000000000000000005C
:100C900000800000000000000000000000000000D4
:100CA000880080400080008000800000000000007C
:100CB0000000000000000000000000000000000034
:100CC0008800821081A86800000000000000000079
:100CD0000000000000000000000000000000000014
:100CE00088008000000000000000000000000000FC
:100CF0004000800080008000000000000000000034
:100D000088000080000000000000000000000000DB
:100D100000000000000000000000000000000000D3
:100D200088008000000000000000000000000000BB
:100D300000000000000000000000000000000000B3
:100D4000880000000000000000000000000000001B
:100D50000000000000000000000000000000000093
:100D600088000000000000000000000000000000FB
:100D70000000000000000000000000000000000073
:100D800088000000000000000000000000000000DB
:100D90000000000000000000000000000000000053
:100DA0008800821081A80000000000000000000000
:100DB0000000000000000000000000000000000033
:100DC0008800801080000102680000000000000020
:100DD00000026800000000000000000000000000A9
:100DE000880000000000000000000000000000007B
:100DF00000000000000000000000000000000000F3
:100E0000880084008000800001026800000000006B
:100E10000002680000000000000000000000000068
:100E200088008210816800000000000000000000BF
:100E300000000000000000000000000000000000B2
:100E4000880084008200816800000000000000002B
:100E50000000000000000000000000000000000092
:100E6000880080108000010268000000000000007F
:100E70000002680000000000000000000000000008
:100E800088008400800080000102680000000000EB
:100E900000026800000000000000000000000000E8
:100EA000880082108168000000000000000000003F
:100EB0000000000000000000000000000000000032
:100EC00088008400820081680000000000000000AB
:100ED0000000000000000000000000000000000012
:100EE00088008010800001026800000000000000FF
:100EF0000002680000000000000000000000000088
:100F00008800000000000000000000000000000059
:100F100000000000000000000000000000000000D1
:100F2000880084008000800001026800000000004A
:100F30000002680000000000000000000000000047
:100F4000880082108168000000000000000000009E
:100F50000000000000000000000000000000000091
:100F6000880084008200816800000000000000000A
:100F70000000000000000000000000000000000071
:100F8000880080108000010268000000000000005E
:100F900000026800000000000000000000000000E7
:100FA00088008400800080000102680000000000CA
:100FB00000026800000000000000000000000000C7
:100FC000880080108000010268000000000000001E
:100FD00000026800000000000000000000000000A7
:100FE000880084008000800001026800000000008A
:100FF0000002680000000000000000000000000087
:1010000088008210816800000000000000000000DD
:1010100000000000000000000000000000000000D0
:101020008800840082008168000000000000000049
:1010300000000000000000000000000000000000B0
:10104000880080108000010268000000000000009D
:101050000002680000000000000000000000000026
:101060008800840080008000010268000000000009
:101070000002680000000000000000000000000006
:10108000880080108000010268000000000000005D
:1010900000026800000000000000000000000000E6
:1010A00088008400800080000102680000000000C9
:1010B00000026800000000000000000000000000C6
:1010C0008800801080000102A800000000000000DD
:1010D0000002A80000000000000000000000000066
:1010E00088008400800080000102A8000000000049
:1010F0000002A80000000000000000000000000046
:10110000880080108000010200A80000000000009C
:10111000000200A800000000000000000000000025
:101120008800840080008000010200A80000000008
:10113000000200A800000000000000000000000005
:101140008800000000000000000000000000000017
:10115000000000000000000000000000000000008F
:1011600088000000000000000000000000000000F7
:10117000000000000000000000000000000000006F
:1011800088000000000000000000000000000000D7
:10119000000000000000000000000000000000004F
:1011A000880082108168000000000000000000003C
:1011B000000000000000000000000000000000002F
:1011C00088008400820081680000000000000000A8
:1011D000000000000000000000000000000000000F
:1011E0008800000000000000000000000000000077
:1011F00000000000000000000000000000000000EF
:101200008800800080000000000000000000000056
:1012100000000000000000000000000000000000CE
:101220008800000000000000000000000000000036
:1012300000000000000000000000000000000000AE
:101240008800000000000000000000000000000016
:10125000000000000000000000000000000000008E
:1012600088000000000000000000000000000000F6
:10127000000000000000000000000000000000006E
:1012800088000000000000000000000000000000D6
:10129000000000000000000000000000000000004E
:1012A00088000000000000000000000000000000B6
:1012B000000000000000000000000000000000002E
:1012C0008800000000000000000000000000000096
:1012D000000000000000000000000000000000000E
:1012E0008800000000000000000000000000000076
:1012F00000000000000000000000000000000000EE
:101300008800000000000000000000000000000055
:1013100000000000000000000000000000000000CD
:101320008800000000000000000000000000000035
:1013300000000000000000000000000000000000AD
:101340008800000000000000000000000000000015
:10135000000000000000000000000000000000008D
:1013600088000000000000000000000000000000F5
:10137000000000000000000000000000000000006D
:1013800088000000000000000000000000000000D5
:10139000000000000000000000000000000000004D
:1013A000880080108000010268000000000000003A
:1013B00000026800000000000000000000000000C3
:1013C0008800000000000000000000000000000095
:1013D000000000000000000000000000000000000D
:1013E0008800000000000000000000000000000075
:1013F00000000000000000000000000000000000ED
:1014000088008000000000000000000000000000D4
:1014100000000000000000000000000000000000CC
:101420008800000000000000000000000000000034
:1014300000000000000000000000000000000000AC
:101440008800800000000000000000000000000094
:10145000000000000000000000000000000000008C
:101460008800821081A80000000000000000000039
:10147000000000000000000000000000000000006C
:1014800088008400820081A80000000000000000A5
:10149000000000000000000000000000000000004C
:1014A0008800800000000000000000000000000034
:1014B000000000000000000000000000000000002C
:1014C0008800800000000000000000000000000014
:1014D000000000000000000000000000000000000C
:1014E00088008400820081A8000000000000000045
:1014F00000000000000000000000000000000000EC
:101500008800000000000000000000000000000053
:1015100000000000000000000000000000000000CB
:1015200088008000000000000000000000000000B3
:1015300000000000000000000000000000000000AB
:101540008800000000000000000000000000000013
:10155000000000000000000000000000000000008B
:1015600088000000000000000000000000000000F3
:10157000000000000000000000000000000000006B
:1015800088000000000000000000000000000000D3
:10159000000000000000000000000000000000004B
:1015A0008800821081A800000000000000000000F8
:1015B000000000000000000000000000000000002B
:1015C0008800000000000000000000000000000093
:1015D000000000000000000000000000000000000B
:1015E0008800000000000000000000000000000073
:1015F00000000000000000000000000000000000EB
:1016000088008000000000000000000000000000D2
:10161000008000000000000000000000000000004A
:101620008800000000000000000000000000000032
:1016300000000000000000000000000000000000AA
:101640008800000000000000000000000000000012
:10165000000000000000000000000000000000008A
:1016600088000000000000000000000000000000F2
:10167000000000000000000000000000000000006A
:1016800088000000000000000000000000000000D2
:10169000000000000000000000000000000000004A
:1016A00088000000000000000000000000000000B2
:1016B000000000000000000000000000000000002A
:1016C0008800000000000000000000000000000092
:1016D000000000000000000000000000000000000A
:1016E0008800000000000000000000000000000072
:1016F00000000000000000000000000000000000EA
:101700008800000000000000000000000000000051
:1017100000000000000000000000000000000000C9
:101720008800000000000000000000000000000031
:1017300000000000000000000000000000000000A9
:101740008800000000000000000000000000000011
:101750000000000000000000000000000000000089
:1017600088000000000000000000000000000000F1
:101770000000000000000000000000000000000069
:1017800088000000000000000000000000000000D1
:101790000000000000000000000000000000000049
:1017A0008800801080000102A800000000000000F6
:1017B0000002A8000000000000000000000000007F
:1017C00088008400800080000102A8000000000062
:1017D0000002A8000000000000000000000000005F
:1017E0008800000000000000000000000000000071
:1017F00000000000000000000000000000000000E9
:101800008800000000000000000000000000000050
:1018100000000000000000000000000000000000C8
:101820008800000000000000000000000000000030
:1018300000000000000000000000000000000000A8
:101840008800000000000000000000000000000010
:101850000000000000000000000000000000000088
:1018600088000000000000000000000000000000F0
:101870000000000000000000000000000000000068
:1018800088000000000000000000000000000000D0
:101890000000000000000000000000000000000048
:1018A00088000000000000000000000000000000B0
:1018B0000000000000000000000000000000000028
:1018C0008800000000000000000000000000000090
:1018D0000000000000000000000000000000000008
:1018E0008800000000000000000000000000000070
:1018F00000000000000000000000000000000000E8
:10190000880000000000000000000000000000004F
:1019100000000000000000000000000000000000C7
:1019200088008000000000000000000000000000AF
:1019300000000000000000000000000000000000A7
:10194000880000000000000000000000000000000F
:101950000000000000000000000000000000000087
:1019600088000000000000000000000000000000EF
:101970000000000000000000000000000000000067
:1019800088000000000000000000000000000000CF
:101990000000000000000000000000000000000047
:1019A00088000000000000000000000000000000AF
:1019B0000000000000000000000000000000000027
:1019C0008800821081A8680000000000000000006C
:1019D0000000000000000000000000000000000007
:1019E000880000000000000000000000000000006F
:1019F00000000000000000000000000000000000E7
:101A0000880080008000000000000000000000004E
:101A100000000000000000000000000000000000C6
:101A2000880000000000000000000000000000002E
:101A300000000000000000000000000000000000A6
:101A4000880000000000000000000000000000000E
:101A50000000000000000000000000000000000086
:101A600088000000000000000000000000000000EE
:101A70000000000000000000000000000000000066
:101A800088000000000000000000000000000000CE
:101A90000000000000000000000000000000000046
:101AA00088000000000000000000000000000000AE
:101AB0000000000000000000000000000000000026
:101AC000880000000000000000000000000000008E
:101AD0000000000000000000000000000000000006
:101AE000880000000000000000000000000000006E
:101AF00000000000000000000000000000000000E6
:101B0000880000000000000000000000000000004D
:101B100000000000000000000000000000000000C5
:101B2000880000000000000000000000000000002D
:101B300000000000000000000000000000000000A5
:101B4000880000000000000000000000000000000D
:101B50000000000000000000000000000000000085
:101B600088000000000000000000000000000000ED
:101B70000000000000000000000000000000000065
:101B800088000000000000000000000000000000CD
:101B90000000000000000000000000000000000045
:101BA00088000000000000000000000000000000AD
:101BB0000000000000000000000000000000000025
:101BC000880000000000000000000000000000008D
:101BD0000000000000000000000000000000000005
:101BE000880000000000000000000000000000006D
:101BF00000000000000000000000000000000000E5
:101C000088008000000000000000000000000000CC
:101C100000000000000000000000000000000000C4
:101C2000880000000000000000000000000000002C
:101C300000000000000000000000000000000000A4
:101C4000880000000000000000000000000000000C
:101C50000000000000000000000000000000000084
:101C6000880080000000000000000000000000006C
:101C70000000000000000000000000000000000064
:101C8000880080000000000000000000000000004C
:101C90000000000000000000000000000000000044
:101CA000880080000000000000000000000000002C
:101CB0000000000000000000000000000000000024
:101CC000880000000000000000000000000000008C
:101CD0000000000000000000000000000000000004
:101CE000880000000000000000000000000000006C
:101CF00000000000000000000000000000000000E4
:101D0000880000000000000000000000000000004B
:101D100000000000000000000000000000000000C3
:101D200088000080000000000000000000000000AB
:101D30008000000000000000000000000000000023
:101D4000880000000000000000000000000000000B
:101D50000000000000000000000000000000000083
:101D600088000000000000000000000000000000EB
:101D70000000000000000000000000000000000063
:101D800088000000000000000000000000000000CB
:101D90000000000000000000000000000000000043
:101DA000880082108100A8000000000000000000F0
:101DB000A80000000000000000000000000000007B
:101DC0008800821081A86800000000000000000068
:101DD0000000000000000000000000000000000003
:101DE000880000000000000000000000000000006B
:101DF00000000000000000000000000000000000E3
:101E000088008000000000000000000000000000CA
:101E10000080000000000000000000000000000042
:101E2000880000000000000000000000000000002A
:101E300000000000000000000000000000000000A2
:101E4000880000000000000000000000000000000A
:101E50000000000000000000000000000000000082
:101E600088000000000000000000000000000000EA
:101E70000000000000000000000000000000000062
:101E800088000000000000000000000000000000CA
:101E90000000000000000000000000000000000042
:101EA00088000000000000000000000000000000AA
:101EB0000000000000000000000000000000000022
:101EC000880000000000000000000000000000008A
:101ED0000000000000000000000000000000000002
:101EE000880000000000000000000000000000006A
:101EF00000000000000000000000000000000000E2
:101F00008800000000000000000000000000000049
:101F100000000000000000000000000000000000C1
:101F20008800000000000000000000000000000029
:101F300000000000000000000000000000000000A1
:101F40008800000000000000000000000000000009
:101F50000000000000000000000000000000000081
:101F600088000000000000000000000000000000E9
:101F70000000000000000000000000000000000061
:101F800088000000000000000000000000000000C9
:101F90000000000000000000000000000000000041
:101FA0008800821081A800000000000000000000EE
:101FB0000000000000000000000000000000000021
:101FC0008800800000000000000000000000000009
:101FD0000000000000000000000000000000000001
:101FE0008800000000000000000000000000000069
:101FF00000000000000000000000000000000000E1
:00000001FF
