:1000000080400040004000000000000000000000B0
:1000100000000000000000000000000000000000E0
:100020008000000000000000000000000000000050
:1000300000000000000000000000000000000000C0
:100040008000000000000000000000000000000030
:1000500000000000000000000000000000000000A0
:100060008000000000000000000000000000000010
:100070000000000000000000000000000000000080
:1000800080000000000000000000000000000000F0
:100090000000000000000000000000000000000060
:1000A00080000000000000000000000000000000D0
:1000B0000000000000000000000000000000000040
:1000C00080000000000000000000000000000000B0
:1000D0000000000000000000000000000000000020
:1000E0008000000000000000000000000000000090
:1000F0000000000000000000000000000000000000
:10010000800000000000000000000000000000006F
:1001100000000000000000000000000000000000DF
:10012000800000000000000000000000000000004F
:1001300000000000000000000000000000000000BF
:10014000800000000000000000000000000000002F
:10015000000000000000000000000000000000009F
:10016000800000000000000000000000000000000F
:10017000000000000000000000000000000000007F
:1001800080000000000000000000000000000000EF
:10019000000000000000000000000000000000005F
:1001A00080000000000000000000000000000000CF
:1001B000000000000000000000000000000000003F
:1001C00080000000000000000000000000000000AF
:1001D000000000000000000000000000000000001F
:1001E000800000000000000000000000000000008F
:1001F00000000000000000000000000000000000FF
:10020000800000000000000000000000000000006E
:1002100000000000000000000000000000000000DE
:10022000800000000000000000000000000000004E
:1002300000000000000000000000000000000000BE
:10024000800000000000000000000000000000002E
:10025000000000000000000000000000000000009E
:10026000800000000000000000000000000000000E
:10027000000000000000000000000000000000007E
:1002800080000000000000000000000000000000EE
:10029000000000000000000000000000000000005E
:1002A00080000000000000000000000000000000CE
:1002B000000000000000000000000000000000003E
:1002C00080000000000000000000000000000000AE
:1002D000000000000000000000000000000000001E
:1002E000800000000000000000000000000000008E
:1002F00000000000000000000000000000000000FE
:10030000800000000000000000000000000000006D
:1003100000000000000000000000000000000000DD
:10032000800000000000000000000000000000004D
:1003300000000000000000000000000000000000BD
:10034000800000000000000000000000000000002D
:10035000000000000000000000000000000000009D
:10036000800000000000000000000000000000000D
:10037000000000000000000000000000000000007D
:1003800080000000000000000000000000000000ED
:10039000000000000000000000000000000000005D
:1003A00080000000000000000000000000000000CD
:1003B000000000000000000000000000000000003D
:1003C00080000000000000000000000000000000AD
:1003D000000000000000000000000000000000001D
:1003E000800000000000000000000000000000008D
:1003F00000000000000000000000000000000000FD
:1004000080004000400080008000000000000000EC
:1004100000000000000000000000000000000000DC
:10042000800000000000000000000000000000004C
:1004300000000000000000000000000000000000BC
:10044000800000000000000000000000000000002C
:10045000000000000000000000000000000000009C
:10046000800000000000000000000000000000000C
:10047000000000000000000000000000000000007C
:1004800080000000000000000000000000000000EC
:10049000000000000000000000000000000000005C
:1004A00080000000000000000000000000000000CC
:1004B000000000000000000000000000000000003C
:1004C00080000000000000000000000000000000AC
:1004D000000000000000000000000000000000001C
:1004E000800000000000000000000000000000008C
:1004F00000000000000000000000000000000000FC
:10050000800000000000000000000000000000006B
:1005100000000000000000000000000000000000DB
:1005200080008000000000000000000000000000CB
:1005300000000000000000000000000000000000BB
:10054000800000000000000000000000000000002B
:10055000000000000000000000000000000000009B
:10056000800000000000000000000000000000000B
:10057000000000000000000000000000000000007B
:1005800080000000000000000000000000000000EB
:10059000000000000000000000000000000000005B
:1005A00080000000000000000000000000000000CB
:1005B000000000000000000000000000000000003B
:1005C00080000000000000000000000000000000AB
:1005D000000000000000000000000000000000001B
:1005E000800000000000000000000000000000008B
:1005F00000000000000000000000000000000000FB
:10060000800000000000000000000000000000006A
:1006100000000000000000000000000000000000DA
:10062000800000000000000000000000000000004A
:1006300000000000000000000000000000000000BA
:10064000800000000000000000000000000000002A
:10065000000000000000000000000000000000009A
:10066000800000000000000000000000000000000A
:10067000000000000000000000000000000000007A
:1006800080000000000000000000000000000000EA
:10069000000000000000000000000000000000005A
:1006A00080000000000000000000000000000000CA
:1006B000000000000000000000000000000000003A
:1006C00080000000000000000000000000000000AA
:1006D000000000000000000000000000000000001A
:1006E000800000000000000000000000000000008A
:1006F00000000000000000000000000000000000FA
:100700008000000000000000000000000000000069
:1007100000000000000000000000000000000000D9
:100720008000000000000000000000000000000049
:1007300000000000000000000000000000000000B9
:100740008000000000000000000000000000000029
:100750000000000000000000000000000000000099
:100760008000000000000000000000000000000009
:100770000000000000000000000000000000000079
:1007800080000000000000000000000000000000E9
:100790000000000000000000000000000000000059
:1007A00080000000000000000000000000000000C9
:1007B0000000000000000000000000000000000039
:1007C00080000000000000000000000000000000A9
:1007D0000000000000000000000000000000000019
:1007E0008000000000000000000000000000000089
:1007F00000000000000000000000000000000000F9
:1008000080008000800080000000000000000000E8
:1008100000000000000000000000000000000000D8
:100820008000000000000000000000000000000048
:1008300000000000000000000000000000000000B8
:100840008000000000000000000000000000000028
:100850000000000000000000000000000000000098
:100860008000000000000000000000000000000008
:100870000000000000000000000000000000000078
:1008800080000000000000000000000000000000E8
:100890000000000000000000000000000000000058
:1008A00080000000000000000000000000000000C8
:1008B0000000000000000000000000000000000038
:1008C00080000000000000000000000000000000A8
:1008D0000000000000000000000000000000000018
:1008E0008000000000000000000000000000000088
:1008F00000000000000000000000000000000000F8
:100900008000400000000000000000000000000027
:1009100000000000000000000000000000000000D7
:1009200080008000000000000000000000000000C7
:1009300000000000000000000000000000000000B7
:100940008000000000000000000000000000000027
:100950000000000000000000000000000000000097
:100960008000000000000000000000000000000007
:100970000000000000000000000000000000000077
:1009800080008000800000000000000000000000E7
:100990000000000000000000000000000000000057
:1009A00080000000000000000000000000000000C7
:1009B0000000000000000000000000000000000037
:1009C00080000000000000000000000000000000A7
:1009D0000000000000000000000000000000000017
:1009E0008000000000000000000000000000000087
:1009F00000000000000000000000000000000000F7
:100A00008000000000000000000000000000000066
:100A100000000000000000000000000000000000D6
:100A20008000000000000000000000000000000046
:100A300000000000000000000000000000000000B6
:100A40008000000000000000000000000000000026
:100A50000000000000000000000000000000000096
:100A60008000000000000000000000000000000006
:100A70000000000000000000000000000000000076
:100A800080000000000000000000000000000000E6
:100A90000000000000000000000000000000000056
:100AA00080000000000000000000000000000000C6
:100AB0000000000000000000000000000000000036
:100AC00080000000000000000000000000000000A6
:100AD0000000000000000000000000000000000016
:100AE0008000000000000000000000000000000086
:100AF00000000000000000000000000000000000F6
:100B00008000000000000000000000000000000065
:100B100000000000000000000000000000000000D5
:100B20008000000000000000000000000000000045
:100B300000000000000000000000000000000000B5
:100B40008000000000000000000000000000000025
:100B50000000000000000000000000000000000095
:100B60008000000000000000000000000000000005
:100B70000000000000000000000000000000000075
:100B800080000000000000000000000000000000E5
:100B90000000000000000000000000000000000055
:100BA00080000000000000000000000000000000C5
:100BB0000000000000000000000000000000000035
:100BC00080000000000000000000000000000000A5
:100BD0000000000000000000000000000000000015
:100BE0008000000000000000000000000000000085
:100BF00000000000000000000000000000000000F5
:100C00008000008000800000000000000000000064
:100C100000000000000000000000000000000000D4
:100C20008000000000000000000000000000000044
:100C300000000000000000000000000000000000B4
:100C40008000000000000000000000000000000024
:100C50000000000000000000000000000000000094
:100C60008000000000000000000000000000000004
:100C70000000000000000000000000000000000074
:100C800080000000000000000000000000000000E4
:100C90000000000000000000000000000000000054
:100CA00080000000000000000000000000000000C4
:100CB0000000000000000000000000000000000034
:100CC00080000000000000000000000000000000A4
:100CD0000000000000000000000000000000000014
:100CE0008000000000000000000000000000000084
:100CF00000000000000000000000000000000000F4
:100D000080000080000000000000000000000000E3
:100D100000000000000000000000000000000000D3
:100D200080008000000000000000000000000000C3
:100D300000000000000000000000000000000000B3
:100D40008000000000000000000000000000000023
:100D50000000000000000000000000000000000093
:100D60008000000000000000000000000000000003
:100D70000000000000000000000000000000000073
:100D800080000000000000000000000000000000E3
:100D90000000000000000000000000000000000053
:100DA0008000820081A00000000000000000000020
:100DB0000000000000000000000000000000000033
:100DC00080000000000000000000000000000000A3
:100DD0000000000000000000000000000000000013
:100DE0008000000000000000000000000000000083
:100DF00000000000000000000000000000000000F3
:100E00008000000000000000000000000000000062
:100E100000000000000000000000000000000000D2
:100E20008000000000000000000000000000000042
:100E300000000000000000000000000000000000B2
:100E40008000000000000000000000000000000022
:100E50000000000000000000000000000000000092
:100E60008000000000000000000000000000000002
:100E70000000000000000000000000000000000072
:100E800080000000000000000000000000000000E2
:100E90000000000000000000000000000000000052
:100EA00080000000000000000000000000000000C2
:100EB0000000000000000000000000000000000032
:100EC00080000000000000000000000000000000A2
:100ED0000000000000000000000000000000000012
:100EE0008000000000000000000000000000000082
:100EF00000000000000000000000000000000000F2
:100F00008000000000000000000000000000000061
:100F100000000000000000000000000000000000D1
:100F20008000000000000000000000000000000041
:100F300000000000000000000000000000000000B1
:100F40008000000000000000000000000000000021
:100F50000000000000000000000000000000000091
:100F60008000000000000000000000000000000001
:100F70000000000000000000000000000000000071
:100F800080000000000000000000000000000000E1
:100F90000000000000000000000000000000000051
:100FA00080000000000000000000000000000000C1
:100FB0000000000000000000000000000000000031
:100FC00080000000000000000000000000000000A1
:100FD0000000000000000000000000000000000011
:100FE0008000000000000000000000000000000081
:100FF00000000000000000000000000000000000F1
:101000008000000000000000000000000000000060
:1010100000000000000000000000000000000000D0
:101020008000000000000000000000000000000040
:1010300000000000000000000000000000000000B0
:101040008000000000000000000000000000000020
:101050000000000000000000000000000000000090
:101060008000000000000000000000000000000000
:101070000000000000000000000000000000000070
:1010800080000000000000000000000000000000E0
:101090000000000000000000000000000000000050
:1010A00080000000000000000000000000000000C0
:1010B0000000000000000000000000000000000030
:1010C00080000000000000000000000000000000A0
:1010D0000000000000000000000000000000000010
:1010E0008000000000000000000000000000000080
:1010F00000000000000000000000000000000000F0
:10110000800000000000000000000000000000005F
:1011100000000000000000000000000000000000CF
:10112000800000000000000000000000000000003F
:1011300000000000000000000000000000000000AF
:10114000800000000000000000000000000000001F
:10115000000000000000000000000000000000008F
:1011600080000000000000000000000000000000FF
:10117000000000000000000000000000000000006F
:1011800080000000000000000000000000000000DF
:10119000000000000000000000000000000000004F
:1011A000800082008160000000000000000000005C
:1011B000000000000000000000000000000000002F
:1011C000800000000000000000000000000000009F
:1011D000000000000000000000000000000000000F
:1011E000800000000000000000000000000000007F
:1011F00000000000000000000000000000000000EF
:10120000800080008000000000000000000000005E
:1012100000000000000000000000000000000000CE
:10122000800000000000000000000000000000003E
:1012300000000000000000000000000000000000AE
:10124000800000000000000000000000000000001E
:10125000000000000000000000000000000000008E
:1012600080000000000000000000000000000000FE
:10127000000000000000000000000000000000006E
:1012800080000000000000000000000000000000DE
:10129000000000000000000000000000000000004E
:1012A00080000000000000000000000000000000BE
:1012B000000000000000000000000000000000002E
:1012C000800000000000000000000000000000009E
:1012D000000000000000000000000000000000000E
:1012E000800000000000000000000000000000007E
:1012F00000000000000000000000000000000000EE
:10130000800000000000000000000000000000005D
:1013100000000000000000000000000000000000CD
:10132000800000000000000000000000000000003D
:1013300000000000000000000000000000000000AD
:10134000800000000000000000000000000000001D
:10135000000000000000000000000000000000008D
:1013600080000000000000000000000000000000FD
:10137000000000000000000000000000000000006D
:1013800080000000000000000000000000000000DD
:10139000000000000000000000000000000000004D
:1013A000800080008000010260000000000000005A
:1013B00000026000000000000000000000000000CB
:1013C000800000000000000000000000000000009D
:1013D000000000000000000000000000000000000D
:1013E000800000000000000000000000000000007D
:1013F00000000000000000000000000000000000ED
:10140000800000000000000000000000000000005C
:1014100000000000000000000000000000000000CC
:10142000800000000000000000000000000000003C
:1014300000000000000000000000000000000000AC
:10144000800080000000000000000000000000009C
:10145000000000000000000000000000000000008C
:1014600080000000000000000000000000000000FC
:10147000000000000000000000000000000000006C
:1014800080000000000000000000000000000000DC
:10149000000000000000000000000000000000004C
:1014A00080000000000000000000000000000000BC
:1014B000000000000000000000000000000000002C
:1014C000800000000000000000000000000000009C
:1014D000000000000000000000000000000000000C
:1014E000800000000000000000000000000000007C
:1014F00000000000000000000000000000000000EC
:10150000800000000000000000000000000000005B
:1015100000000000000000000000000000000000CB
:1015200080008000000000000000000000000000BB
:1015300000000000000000000000000000000000AB
:10154000800000000000000000000000000000001B
:10155000000000000000000000000000000000008B
:1015600080000000000000000000000000000000FB
:10157000000000000000000000000000000000006B
:1015800080000000000000000000000000000000DB
:10159000000000000000000000000000000000004B
:1015A0008000820081A00000000000000000000018
:1015B000000000000000000000000000000000002B
:1015C000800000000000000000000000000000009B
:1015D000000000000000000000000000000000000B
:1015E000800000000000000000000000000000007B
:1015F00000000000000000000000000000000000EB
:1016000080008000000000000000000000000000DA
:10161000008000000000000000000000000000004A
:10162000800000000000000000000000000000003A
:1016300000000000000000000000000000000000AA
:10164000800000000000000000000000000000001A
:10165000000000000000000000000000000000008A
:1016600080000000000000000000000000000000FA
:10167000000000000000000000000000000000006A
:1016800080000000000000000000000000000000DA
:10169000000000000000000000000000000000004A
:1016A00080000000000000000000000000000000BA
:1016B000000000000000000000000000000000002A
:1016C000800000000000000000000000000000009A
:1016D000000000000000000000000000000000000A
:1016E000800000000000000000000000000000007A
:1016F00000000000000000000000000000000000EA
:101700008000000000000000000000000000000059
:1017100000000000000000000000000000000000C9
:101720008000000000000000000000000000000039
:1017300000000000000000000000000000000000A9
:101740008000000000000000000000000000000019
:101750000000000000000000000000000000000089
:1017600080000000000000000000000000000000F9
:101770000000000000000000000000000000000069
:1017800080000000000000000000000000000000D9
:101790000000000000000000000000000000000049
:1017A0008000800080000102A00000000000000016
:1017B0000002A00000000000000000000000000087
:1017C0008000000000000000000000000000000099
:1017D0000000000000000000000000000000000009
:1017E0008000000000000000000000000000000079
:1017F00000000000000000000000000000000000E9
:101800008000000000000000000000000000000058
:1018100000000000000000000000000000000000C8
:101820008000000000000000000000000000000038
:1018300000000000000000000000000000000000A8
:101840008000000000000000000000000000000018
:101850000000000000000000000000000000000088
:1018600080000000000000000000000000000000F8
:101870000000000000000000000000000000000068
:1018800080000000000000000000000000000000D8
:101890000000000000000000000000000000000048
:1018A00080000000000000000000000000000000B8
:1018B0000000000000000000000000000000000028
:1018C0008000000000000000000000000000000098
:1018D0000000000000000000000000000000000008
:1018E0008000000000000000000000000000000078
:1018F00000000000000000000000000000000000E8
:101900008000000000000000000000000000000057
:1019100000000000000000000000000000000000C7
:1019200080008000000000000000000000000000B7
:1019300000000000000000000000000000000000A7
:101940008000000000000000000000000000000017
:101950000000000000000000000000000000000087
:1019600080000000000000000000000000000000F7
:101970000000000000000000000000000000000067
:1019800080000000000000000000000000000000D7
:101990000000000000000000000000000000000047
:1019A00080000000000000000000000000000000B7
:1019B0000000000000000000000000000000000027
:1019C0008000820081A06000000000000000000094
:1019D0000000000000000000000000000000000007
:1019E0008000000000000000000000000000000077
:1019F00000000000000000000000000000000000E7
:101A00008000800080000000000000000000000056
:101A100000000000000000000000000000000000C6
:101A20008000000000000000000000000000000036
:101A300000000000000000000000000000000000A6
:101A40008000000000000000000000000000000016
:101A50000000000000000000000000000000000086
:101A600080000000000000000000000000000000F6
:101A70000000000000000000000000000000000066
:101A800080000000000000000000000000000000D6
:101A90000000000000000000000000000000000046
:101AA00080000000000000000000000000000000B6
:101AB0000000000000000000000000000000000026
:101AC0008000000000000000000000000000000096
:101AD0000000000000000000000000000000000006
:101AE0008000000000000000000000000000000076
:101AF00000000000000000000000000000000000E6
:101B00008000000000000000000000000000000055
:101B100000000000000000000000000000000000C5
:101B20008000000000000000000000000000000035
:101B300000000000000000000000000000000000A5
:101B40008000000000000000000000000000000015
:101B50000000000000000000000000000000000085
:101B600080000000000000000000000000000000F5
:101B70000000000000000000000000000000000065
:101B800080000000000000000000000000000000D5
:101B90000000000000000000000000000000000045
:101BA00080000000000000000000000000000000B5
:101BB0000000000000000000000000000000000025
:101BC0008000000000000000000000000000000095
:101BD0000000000000000000000000000000000005
:101BE0008000000000000000000000000000000075
:101BF00000000000000000000000000000000000E5
:101C000080008000000000000000000000000000D4
:101C100000000000000000000000000000000000C4
:101C20008000000000000000000000000000000034
:101C300000000000000000000000000000000000A4
:101C40008000000000000000000000000000000014
:101C50000000000000000000000000000000000084
:101C600080000000000000000000000000000000F4
:101C70000000000000000000000000000000000064
:101C800080000000000000000000000000000000D4
:101C90000000000000000000000000000000000044
:101CA00080000000000000000000000000000000B4
:101CB0000000000000000000000000000000000024
:101CC0008000000000000000000000000000000094
:101CD0000000000000000000000000000000000004
:101CE0008000000000000000000000000000000074
:101CF00000000000000000000000000000000000E4
:101D00008000000000000000000000000000000053
:101D100000000000000000000000000000000000C3
:101D200080000080000000000000000000000000B3
:101D30008000000000000000000000000000000023
:101D40008000000000000000000000000000000013
:101D50000000000000000000000000000000000083
:101D600080000000000000000000000000000000F3
:101D70000000000000000000000000000000000063
:101D800080000000000000000000000000000000D3
:101D90000000000000000000000000000000000043
:101DA000800082008100A000000000000000000010
:101DB000A000000000000000000000000000000083
:101DC0008000820081A06000000000000000000090
:101DD0000000000000000000000000000000000003
:101DE0008000000000000000000000000000000073
:101DF00000000000000000000000000000000000E3
:101E000080008000000000000000000000000000D2
:101E10000080000000000000000000000000000042
:101E20008000000000000000000000000000000032
:101E300000000000000000000000000000000000A2
:101E40008000000000000000000000000000000012
:101E50000000000000000000000000000000000082
:101E600080000000000000000000000000000000F2
:101E70000000000000000000000000000000000062
:101E800080000000000000000000000000000000D2
:101E90000000000000000000000000000000000042
:101EA00080000000000000000000000000000000B2
:101EB0000000000000000000000000000000000022
:101EC0008000000000000000000000000000000092
:101ED0000000000000000000000000000000000002
:101EE0008000000000000000000000000000000072
:101EF00000000000000000000000000000000000E2
:101F00008000000000000000000000000000000051
:101F100000000000000000000000000000000000C1
:101F20008000000000000000000000000000000031
:101F300000000000000000000000000000000000A1
:101F40008000000000000000000000000000000011
:101F50000000000000000000000000000000000081
:101F600080000000000000000000000000000000F1
:101F70000000000000000000000000000000000061
:101F800080000000000000000000000000000000D1
:101F90000000000000000000000000000000000041
:101FA0008000820081A0000000000000000000000E
:101FB0000000000000000000000000000000000021
:101FC0008000800000000000000000000000000011
:101FD0000000000000000000000000000000000001
:101FE0008000000000000000000000000000000071
:101FF00000000000000000000000000000000000E1
:00000001FF
