:100000003C343C343C34BC2CBC1C3C3C3C3C3C3C78
:100010003C3C3C3C3C3C3C3C3C3C3C3C3C3C3C3C20
:100020003C3C3C3C3C3C3C3C3C3C3C3C3C3C3C3C10
:100030003C3C3C3C3C3C3C3C3C3C3C3C3C3C3C3C00
:100040003C3C3C3C3C3C3C3C3C3C3C3C3C3C3C3CF0
:100400003C3C343C343C3C1C2C3C3C3C3C3C3C3C6C
:100410003C3C3C3C3C3C3C3C3C3C3C3C3C3C3C3C1C
:100420003C3C3C3C3C3C3C3C3C3C3C3C3C3C3C3C0C
:100430003C3C3C3C3C3C3C3C3C3C3C3C3C3C3C3CFC
:100440003C3C3C3C3C3C3C3C3C3C3C3C3C3C3C3CEC
:100800003C3C3C2C3C1C3C3C3C3C3C3C3C3C3C3C58
:100810003C3C3C3C3C3C3C3C3C3C3C3C3C3C3C3C18
:100820003C3C3C3C3C3C3C3C3C3C3C3C3C3C3C3C08
:100830003C3C3C3C3C3C3C3C3C3C3C3C3C3C3C3CF8
:100840003C3C3C3C3C3C3C3C3C3C3C3C3C3C3C3CE8
:100850003C3C3C3C3C3C3C3C3C3C3C3C3C3C3C3CD8
:100860003C3C3C3C3C3C3C3C3C3C3C3C3C3C3C3CC8
:100870003C3C3C3C3C3C3C3C3C3C3C3C3C3C3C3CB8
:100880003C3C3C3C3C3C3C3C3C3C3C3C3C3C3C3CA8
:100890003C3C3C3C3C3C3C3C3C3C3C3C3C3C3C3C98
:1008A0003C3C3C3C3C3C3C3C3C3C3C3C3C3C3C3C88
:1008B0003C3C3C3C3C3C3C3C3C3C3C3C3C3C3C3C78
:1008C0003C3C3C3C3C3C3C3C3C3C3C3C3C3C3C3C68
:1008D0003C3C3C3C3C3C3C3C3C3C3C3C3C3C3C3C58
:1008E0003C3C3C3C3C3C3C3C3C3C3C3C3C3C3C3C48
:1008F0003C3C3C3C3C3C3C3C3C3C3C3C3C3C3C3C38
:100900003C3C343C3C3C3C3C3C3C3C3C3C3C3C3C2F
:100910003C3C3C3C3C3C3C3C3C3C3C3C3C3C3C3C17
:100920003C3C7CBC3C3C3C3C3C3C3C3C3C3C3C3C47
:100930003C3C3C3C3C3C3C3C3C3C3C3C3C3C3C3CF7
:100940003C3C3C3C3C3C3C3C3C3C3C3C3C3C3C3CE7
:100950003C3C3C3C3C3C3C3C3C3C3C3C3C3C3C3CD7
:100960003C3C3C3C3C3C3C3C3C3C3C3C3C3C3C3CC7
:100970003C3C3C3C3C3C3C3C3C3C3C3C3C3C3C3CB7
:100980003C3C3C3C1C2C3C3C3C3C3C3C3C3C3C3CD7
:100990003C3C3C3C3C3C3C3C3C3C3C3C3C3C3C3C97
:1009A0003C3C3C3C3C3C3C3C3C3C3C3C3C3C3C3C87
:1009B0003C3C3C3C3C3C3C3C3C3C3C3C3C3C3C3C77
:1009C0003C3C3C3C3C3C3C3C3C3C3C3C3C3C3C3C67
:100C00003C3C3C2C3C1C3C3C3C3C3C3C3C3C3C3C54
:100C10003C3C3C3C3C3C3C3C3C3C3C3C3C3C3C3C14
:100C20003C3C3C3C3C3C3C3C3C3C3C3C3C3C3C3C04
:100C30003C3C3C3C3C3C3C3C3C3C3C3C3C3C3C3CF4
:100C40003C3C3C3C3C3C3C3C3C3C3C3C3C3C3C3CE4
:100C50003C3C3C3C3C3C3C3C3C3C3C3C3C3C3C3CD4
:100C60003C3C3C3C3C3C3C3C3C3C3C3C3C3C3C3CC4
:100C70003C3C3C3C3C3C3C3C3C3C3C3C3C3C3C3CB4
:100C80003C3C3C3C3C3C3C3C3C3C3C3C3C3C3C3CA4
:100C90003C3C3C3C3C3C3C3C3C3C3C3C3C3C3C3C94
:100CA0003C3C3C3C3C3C3C3C3C3C3C3C3C3C3C3C84
:100CB0003C3C3C3C3C3C3C3C3C3C3C3C3C3C3C3C74
:100CC0003C3C3C3C3C3C3C3C3C3C3C3C3C3C3C3C64
:100CD0003C3C3C3C3C3C3C3C3C3C3C3C3C3C3C3C54
:100CE0003C3C3C3C3C3C3C3C3C3C3C3C3C3C3C3C44
:100CF0003C3C3C3C3C3C3C3C3C3C3C3C3C3C3C3C34
:100D00003C3C3C3C3C3C3C3C3C3C3C3C3C3C3C3C23
:100D10003C3C3C3C3C3C3C3C3C3C3C3C3C3C3C3C13
:100D20003C3C7CBC3C3C3C3C3C3C3C3C3C3C3C3C43
:100D3000BC3C3C3C3C3C3C3C3C3C3C3C3C3C3C3C73
:100D40003C3C3C3C3C3C3C3C3C3C3C3C3C3C3C3CE3
:100D50003C3C3C3C3C3C3C3C3C3C3C3C3C3C3C3CD3
:100D60003C3C3C3C3C3C3C3C3C3C3C3C3C3C3C3CC3
:100D70003C3C3C3C3C3C3C3C3C3C3C3C3C3C3C3CB3
:100D80003C3C3C3C3C3C3C3C3C3C3C3C3C3C3C3CA3
:100D90003C3C3C3C3C3C3C3C3C3C3C3C3C3C3C3C93
:100DA0003C3C3E3C3D78BC3C3C3C3C3C3C3C3C3CC4
:100DB000BC3C3C3C3C3C3C3C3C3C3C3C3C3C3C3CF3
:100DC0003C3C3C3C3C3C3C3C3C3C3C3C3C3C3C3C63
:100DD0003C3C3C3C3C3C3C3C3C3C3C3C3C3C3C3C53
:100DE0003C3C3C3C3C3C3C3C3C3C3C3C3C3C3C3C43
:100DF0003C3C3C3C3C3C3C3C3C3C3C3C3C3C3C3C33
:1011A0003C3C3E3C3D303C3C3C3C3C3C3C3C3C3C88
:1011B0003C3C3C3C3C3C3C3C3C3C3C3C3C3C3C3C6F
:1011C0003C3C3C3C3C3C3C3C3C3C3C3C3C3C3C3C5F
:1011D0003C3C3C3C3C3C3C3C3C3C3C3C3C3C3C3C4F
:1011E0003C3C3C3C3C3C3C3C3C3C3C3C3C3C3C3C3F
:1011F0003C3C3C3C3C3C3C3C3C3C3C3C3C3C3C3C2F
:101200003C3C3C3C1C2C3C3C3C3C3C3C3C3C3C3C4E
:101210003C3C3C3C3C3C3C3C3C3C3C3C3C3C3C3C0E
:101220003C3C3C3C3C3C3C3C3C3C3C3C3C3C3C3CFE
:101230003C3C3C3C3C3C3C3C3C3C3C3C3C3C3C3CEE
:101240003C3C3C3C3C3C3C3C3C3C3C3C3C3C3C3CDE
:101250003C3C3C3C3C3C3C3C3C3C3C3C3C3C3C3CCE
:101260003C3C3C3C3C3C3C3C3C3C3C3C3C3C3C3CBE
:101270003C3C3C3C3C3C3C3C3C3C3C3C3C3C3C3CAE
:101280003C3C3C3C3C3C3C3C3C3C3C3C3C3C3C3C9E
:101290003C3C3C3C3C3C3C3C3C3C3C3C3C3C3C3C8E
:1012A0003C3C3C3C3C3C3C3C3C3C3C3C3C3C3C3C7E
:1012B0003C3C3C3C3C3C3C3C3C3C3C3C3C3C3C3C6E
:1012C0003C3C3C3C3C3C3C3C3C3C3C3C3C3C3C3C5E
:1012D0003C3C3C3C3C3C3C3C3C3C3C3C3C3C3C3C4E
:1012E0003C3C3C3C3C3C3C3C3C3C3C3C3C3C3C3C3E
:1012F0003C3C3C3C3C3C3C3C3C3C3C3C3C3C3C3C2E
:101300003C3C3C3C3C3C3C3C3C3C3C3C3C3C3C3C1D
:101310003C3C3C3C3C3C3C3C3C3C3C3C3C3C3C3C0D
:101320003C3C3C3C3C3C3C3C3C3C3C3C3C3C3C3CFD
:101330003C3C3C3C3C3C3C3C3C3C3C3C3C3C3C3CED
:101340003C3C3C3C3C3C3C3C3C3C3C3C3C3C3C3CDD
:101350003C3C3C3C3C3C3C3C3C3C3C3C3C3C3C3CCD
:101360003C3C3C3C3C3C3C3C3C3C3C3C3C3C3C3CBD
:101370003C3C3C3C3C3C3C3C3C3C3C3C3C3C3C3CAD
:101380003C3C3C3C3C3C3C3C3C3C3C3C3C3C3C3C9D
:101390003C3C3C3C3C3C3C3C3C3C3C3C3C3C3C3C8D
:1013A0003C3C3C3C7CBC3D3E303C3C3C3C3C3C3CC6
:1013B000FC3E303C3C3C3C3C3C3C3C3C3C3C3C3CB7
:1013C0003C3C3C3C3C3C3C3C3C3C3C3C3C3C3C3C5D
:1013D0003C3C3C3C3C3C3C3C3C3C3C3C3C3C3C3C4D
:1013E0003C3C3C3C3C3C3C3C3C3C3C3C3C3C3C3C3D
:1013F0003C3C3C3C3C3C3C3C3C3C3C3C3C3C3C3C2D
:101400003C3C3C3C3C3C3C3C3C3C3C3C3C3C3C3C1C
:101410003C3C3C3C3C3C3C3C3C3C3C3C3C3C3C3C0C
:101420003C3C3C3C3C3C3C3C3C3C3C3C3C3C3C3CFC
:101430003C3C3C3C3C3C3C3C3C3C3C3C3C3C3C3CEC
:101440003C3C3C3C3C3C3C3C3C3C3C3C3C3C3C3CDC
:101450003C3C3C3C3C3C3C3C3C3C3C3C3C3C3C3CCC
:101460003C3C3C3C3C3C3C3C3C3C3C3C3C3C3C3CBC
:101470003C3C3C3C3C3C3C3C3C3C3C3C3C3C3C3CAC
:101480003C3C3C3C3C3C3C3C3C3C3C3C3C3C3C3C9C
:101490003C3C3C3C3C3C3C3C3C3C3C3C3C3C3C3C8C
:1014A0003C3C3C3C3C3C3C3C3C3C3C3C3C3C3C3C7C
:1014B0003C3C3C3C3C3C3C3C3C3C3C3C3C3C3C3C6C
:1014C0003C3C3C3C3C3C3C3C3C3C3C3C3C3C3C3C5C
:1014D0003C3C3C3C3C3C3C3C3C3C3C3C3C3C3C3C4C
:1014E0003C3C3C3C3C3C3C3C3C3C3C3C3C3C3C3C3C
:1014F0003C3C3C3C3C3C3C3C3C3C3C3C3C3C3C3C2C
:101500003C3C3C3C3C3C3C3C3C3C3C3C3C3C3C3C1B
:101510003C3C3C3C3C3C3C3C3C3C3C3C3C3C3C3C0B
:101520003C3C3C3C3C3C3C3C3C3C3C3C3C3C3C3CFB
:101530003C3C3C3C3C3C3C3C3C3C3C3C3C3C3C3CEB
:101540003C3C3C3C3C3C3C3C3C3C3C3C3C3C3C3CDB
:101550003C3C3C3C3C3C3C3C3C3C3C3C3C3C3C3CCB
:101560003C3C3C3C3C3C3C3C3C3C3C3C3C3C3C3CBB
:101570003C3C3C3C3C3C3C3C3C3C3C3C3C3C3C3CAB
:101580003C3C3C3C3C3C3C3C3C3C3C3C3C3C3C3C9B
:101590003C3C3C3C3C3C3C3C3C3C3C3C3C3C3C3C8B
:1015A0003C3C3E3C3D383C3C3C3C3C3C3C3C3C3C7C
:1015B0003C3C3C3C3C3C3C3C3C3C3C3C3C3C3C3C6B
:1015C0003C3C3C3C3C3C3C3C3C3C3C3C3C3C3C3C5B
:1015D0003C3C3C3C3C3C3C3C3C3C3C3C3C3C3C3C4B
:1015E0003C3C3C3C3C3C3C3C3C3C3C3C3C3C3C3C3B
:1015F0003C3C3C3C3C3C3C3C3C3C3C3C3C3C3C3C2B
:101600003C3C3C3C3C3C3C3C3C3C3C3C3C3C3C3C1A
:101610003C1C2C3C3C3C3C3C3C3C3C3C3C3C3C3C3A
:101620003C3C3C3C3C3C3C3C3C3C3C3C3C3C3C3CFA
:101630003C3C3C3C3C3C3C3C3C3C3C3C3C3C3C3CEA
:101640003C3C3C3C3C3C3C3C3C3C3C3C3C3C3C3CDA
:101650003C3C3C3C3C3C3C3C3C3C3C3C3C3C3C3CCA
:101660003C3C3C3C3C3C3C3C3C3C3C3C3C3C3C3CBA
:101670003C3C3C3C3C3C3C3C3C3C3C3C3C3C3C3CAA
:101680003C3C3C3C3C3C3C3C3C3C3C3C3C3C3C3C9A
:101690003C3C3C3C3C3C3C3C3C3C3C3C3C3C3C3C8A
:1016A0003C3C3C3C3C3C3C3C3C3C3C3C3C3C3C3C7A
:1016B0003C3C3C3C3C3C3C3C3C3C3C3C3C3C3C3C6A
:1016C0003C3C3C3C3C3C3C3C3C3C3C3C3C3C3C3C5A
:1016D0003C3C3C3C3C3C3C3C3C3C3C3C3C3C3C3C4A
:1016E0003C3C3C3C3C3C3C3C3C3C3C3C3C3C3C3C3A
:1016F0003C3C3C3C3C3C3C3C3C3C3C3C3C3C3C3C2A
:101700003C3C3C3C3C3C3C3C3C3C3C3C3C3C3C3C19
:101710003C3C3C3C3C3C3C3C3C3C3C3C3C3C3C3C09
:101720003C3C3C3C3C3C3C3C3C3C3C3C3C3C3C3CF9
:101730003C3C3C3C3C3C3C3C3C3C3C3C3C3C3C3CE9
:101740003C3C3C3C3C3C3C3C3C3C3C3C3C3C3C3CD9
:101750003C3C3C3C3C3C3C3C3C3C3C3C3C3C3C3CC9
:101760003C3C3C3C3C3C3C3C3C3C3C3C3C3C3C3CB9
:101770003C3C3C3C3C3C3C3C3C3C3C3C3C3C3C3CA9
:101780003C3C3C3C3C3C3C3C3C3C3C3C3C3C3C3C99
:101790003C3C3C3C3C3C3C3C3C3C3C3C3C3C3C3C89
:1017A0003C3C3C3C7CBC3D3E383C3C3C3C3C3C3CBA
:1017B000FC3E383C3C3C3C3C3C3C3C3C3C3C3C3CAB
:1017C0003C3C3C3C3C3C3C3C3C3C3C3C3C3C3C3C59
:1017D0003C3C3C3C3C3C3C3C3C3C3C3C3C3C3C3C49
:1017E0003C3C3C3C3C3C3C3C3C3C3C3C3C3C3C3C39
:1017F0003C3C3C3C3C3C3C3C3C3C3C3C3C3C3C3C29
:101800003C3C3C3C3C3C3C3C3C3C3C3C3C3C3C3C18
:101810003C3C3C3C3C3C3C3C3C3C3C3C3C3C3C3C08
:101820003C3C3C3C3C3C3C3C3C3C3C3C3C3C3C3CF8
:101830003C3C3C3C3C3C3C3C3C3C3C3C3C3C3C3CE8
:101840003C3C3C3C3C3C3C3C3C3C3C3C3C3C3C3CD8
:101850003C3C3C3C3C3C3C3C3C3C3C3C3C3C3C3CC8
:101860003C3C3C3C3C3C3C3C3C3C3C3C3C3C3C3CB8
:101870003C3C3C3C3C3C3C3C3C3C3C3C3C3C3C3CA8
:101880003C3C3C3C3C3C3C3C3C3C3C3C3C3C3C3C98
:101890003C3C3C3C3C3C3C3C3C3C3C3C3C3C3C3C88
:1018A0003C3C3C3C3C3C3C3C3C3C3C3C3C3C3C3C78
:1018B0003C3C3C3C3C3C3C3C3C3C3C3C3C3C3C3C68
:1018C0003C3C3C3C3C3C3C3C3C3C3C3C3C3C3C3C58
:1018D0003C3C3C3C3C3C3C3C3C3C3C3C3C3C3C3C48
:1018E0003C3C3C3C3C3C3C3C3C3C3C3C3C3C3C3C38
:1018F0003C3C3C3C3C3C3C3C3C3C3C3C3C3C3C3C28
:101900003C3C3C3C3C3C3C3C3C3C3C3C3C3C3C3C17
:101910003C3C3C3C3C3C3C3C3C3C3C3C3C3C3C3C07
:101920003C3C7C3C3C3C3C3C3C3C3C3C3C3C3C3CB7
:101930003C3C3C3C3C3C3C3C3C3C3C3C3C3C3C3CE7
:101940003C3C3C3C3C3C3C3C3C3C3C3C3C3C3C3CD7
:101950003C3C3C3C3C3C3C3C3C3C3C3C3C3C3C3CC7
:101960003C3C3C3C3C3C3C3C3C3C3C3C3C3C3C3CB7
:101970003C3C3C3C3C3C3C3C3C3C3C3C3C3C3C3CA7
:101980003C3C3C3C3C3C3C3C3C3C3C3C3C3C3C3C97
:101990003C3C3C3C3C3C3C3C3C3C3C3C3C3C3C3C87
:1019A0003C3C3C3C3C3C3C3C3C3C3C3C3C3C3C3C77
:1019B0003C3C3C3C3C3C3C3C3C3C3C3C3C3C3C3C67
:1019C0003C3C3E3C3DF8303C3C3C3C3C3C3C3C3CA4
:1019D0003C3C3C3C3C3C3C3C3C3C3C3C3C3C3C3C47
:1019E0003C3C3C3C3C3C3C3C3C3C3C3C3C3C3C3C37
:1019F0003C3C3C3C3C3C3C3C3C3C3C3C3C3C3C3C27
:101A00003C3C3C3C1C2C3C3C3C3C3C3C3C3C3C3C46
:101A10003C3C3C3C3C3C3C3C3C3C3C3C3C3C3C3C06
:101A20003C3C3C3C3C3C3C3C3C3C3C3C3C3C3C3CF6
:101A30003C3C3C3C3C3C3C3C3C3C3C3C3C3C3C3CE6
:101A40003C3C3C3C3C3C3C3C3C3C3C3C3C3C3C3CD6
:101D20003C3C7CBC3C3C3C3C3C3C3C3C3C3C3C3C33
:101D3000BC3C3C3C3C3C3C3C3C3C3C3C3C3C3C3C63
:101D40003C3C3C3C3C3C3C3C3C3C3C3C3C3C3C3CD3
:101D50003C3C3C3C3C3C3C3C3C3C3C3C3C3C3C3CC3
:101D60003C3C3C3C3C3C3C3C3C3C3C3C3C3C3C3CB3
:101D70003C3C3C3C3C3C3C3C3C3C3C3C3C3C3C3CA3
:101D80003C3C3C3C3C3C3C3C3C3C3C3C3C3C3C3C93
:101D90003C3C3C3C3C3C3C3C3C3C3C3C3C3C3C3C83
:101DA0003C3C3E3C3D7CB83C3C3C3C3C3C3C3C3CB4
:101DB000B83C3C3C3C3C3C3C3C3C3C3C3C3C3C3CE7
:101DC0003C3C3E3C3DF8303C3C3C3C3C3C3C3C3CA0
:101DD0003C3C3C3C3C3C3C3C3C3C3C3C3C3C3C3C43
:101DE0003C3C3C3C3C3C3C3C3C3C3C3C3C3C3C3C33
:101DF0003C3C3C3C3C3C3C3C3C3C3C3C3C3C3C3C23
:101E00003C3C3C3C3C3C3C3C3C3C3C3C3C3C3C3C12
:101E10003C1C2C3C3C3C3C3C3C3C3C3C3C3C3C3C32
:101E20003C3C3C3C3C3C3C3C3C3C3C3C3C3C3C3CF2
:101E30003C3C3C3C3C3C3C3C3C3C3C3C3C3C3C3CE2
:101E40003C3C3C3C3C3C3C3C3C3C3C3C3C3C3C3CD2
:101E50003C3C3C3C3C3C3C3C3C3C3C3C3C3C3C3CC2
:101E60003C3C3C3C3C3C3C3C3C3C3C3C3C3C3C3CB2
:101E70003C3C3C3C3C3C3C3C3C3C3C3C3C3C3C3CA2
:101E80003C3C3C3C3C3C3C3C3C3C3C3C3C3C3C3C92
:101E90003C3C3C3C3C3C3C3C3C3C3C3C3C3C3C3C82
:101EA0003C3C3C3C3C3C3C3C3C3C3C3C3C3C3C3C72
:101EB0003C3C3C3C3C3C3C3C3C3C3C3C3C3C3C3C62
:101EC0003C3C3C3C3C3C3C3C3C3C3C3C3C3C3C3C52
:101ED0003C3C3C3C3C3C3C3C3C3C3C3C3C3C3C3C42
:101EE0003C3C3C3C3C3C3C3C3C3C3C3C3C3C3C3C32
:101EF0003C3C3C3C3C3C3C3C3C3C3C3C3C3C3C3C22
:101F00003C3C3C3C3C3C3C3C3C3C3C3C3C3C3C3C11
:101F10003C3C3C3C3C3C3C3C3C3C3C3C3C3C3C3C01
:101F20003C3C3C3C3C3C3C3C3C3C3C3C3C3C3C3CF1
:101F30003C3C3C3C3C3C3C3C3C3C3C3C3C3C3C3CE1
:101F40003C3C3C3C3C3C3C3C3C3C3C3C3C3C3C3CD1
:101F50003C3C3C3C3C3C3C3C3C3C3C3C3C3C3C3CC1
:101F60003C3C3C3C3C3C3C3C3C3C3C3C3C3C3C3CB1
:101F70003C3C3C3C3C3C3C3C3C3C3C3C3C3C3C3CA1
:101F80003C3C3C3C3C3C3C3C3C3C3C3C3C3C3C3C91
:101F90003C3C3C3C3C3C3C3C3C3C3C3C3C3C3C3C81
:101FA0003C3C3E3C3D383C3C3C3C3C3C3C3C3C3C72
:101FB0003C3C3C3C3C3C3C3C3C3C3C3C3C3C3C3C61
:101FC0003C3C3C3C3C3C3C3C3C3C3C3C3C3C3C3C51
:101FD0003C3C3C3C3C3C3C3C3C3C3C3C3C3C3C3C41
:101FE0003C3C3C3C3C3C3C3C3C3C3C3C3C3C3C3C31
:101FF0003C3C3C3C3C3C3C3C3C3C3C3C3C3C3C3C21
:00000001FF
