:1000000004040400000000000000000000000000E4
:1000100000000000000000000000000000000000E0
:1000200004040000000000000000000000000000C8
:1000300000000000000000000000000000000000C0
:1000400004040000000000000000000000000000A8
:1000500000000000000000000000000000000000A0
:100060000404000000000000000000000000000088
:100070000000000000000000000000000000000080
:100080000404000000000000000000000000000068
:100090000000000000000000000000000000000060
:1000A0000404000000000000000000000000000048
:1000B0000000000000000000000000000000000040
:1000C0000404000000000000000000000000000028
:1000D0000000000000000000000000000000000020
:1000E0000404000000000000000000000000000008
:1000F0000000000000000000000000000000000000
:1001000004040000000000000000000000000000E7
:1001100000000000000000000000000000000000DF
:1001200004040000000000000000000000000000C7
:1001300000000000000000000000000000000000BF
:1001400004040000000000000000000000000000A7
:10015000000000000000000000000000000000009F
:100160000404000000000000000000000000000087
:10017000000000000000000000000000000000007F
:100180000404000000000000000000000000000067
:10019000000000000000000000000000000000005F
:1001A0000404000000000000000000000000000047
:1001B000000000000000000000000000000000003F
:1001C0000404000000000000000000000000000027
:1001D000000000000000000000000000000000001F
:1001E0000404000000000000000000000000000007
:1001F00000000000000000000000000000000000FF
:1002000004040000000000000000000000000000E6
:1002100000000000000000000000000000000000DE
:1002200004040000000000000000000000000000C6
:1002300000000000000000000000000000000000BE
:1002400004040000000000000000000000000000A6
:10025000000000000000000000000000000000009E
:100260000404000000000000000000000000000086
:10027000000000000000000000000000000000007E
:100280000404000000000000000000000000000066
:10029000000000000000000000000000000000005E
:1002A0000404000000000000000000000000000046
:1002B000000000000000000000000000000000003E
:1002C0000404000000000000000000000000000026
:1002D000000000000000000000000000000000001E
:1002E0000404000000000000000000000000000006
:1002F00000000000000000000000000000000000FE
:1003000004040000000000000000000000000000E5
:1003100000000000000000000000000000000000DD
:1003200004040000000000000000000000000000C5
:1003300000000000000000000000000000000000BD
:1003400004040000000000000000000000000000A5
:10035000000000000000000000000000000000009D
:100360000404000000000000000000000000000085
:10037000000000000000000000000000000000007D
:100380000404000000000000000000000000000065
:10039000000000000000000000000000000000005D
:1003A0000404000000000000000000000000000045
:1003B000000000000000000000000000000000003D
:1003C0000404000000000000000000000000000025
:1003D000000000000000000000000000000000001D
:1003E0000404000000000000000000000000000005
:1003F00000000000000000000000000000000000FD
:1004000004040000000000000000000000000000E4
:1004100000000000000000000000000000000000DC
:1004200004040000000000000000000000000000C4
:1004300000000000000000000000000000000000BC
:1004400004040000000000000000000000000000A4
:10045000000000000000000000000000000000009C
:100460000404000000000000000000000000000084
:10047000000000000000000000000000000000007C
:100480000404000000000000000000000000000064
:10049000000000000000000000000000000000005C
:1004A0000404000000000000000000000000000044
:1004B000000000000000000000000000000000003C
:1004C0000404000000000000000000000000000024
:1004D000000000000000000000000000000000001C
:1004E0000404000000000000000000000000000004
:1004F00000000000000000000000000000000000FC
:1005000004040000000000000000000000000000E3
:1005100000000000000000000000000000000000DB
:1005200004040000000000000000000000000000C3
:1005300000000000000000000000000000000000BB
:1005400004040000000000000000000000000000A3
:10055000000000000000000000000000000000009B
:100560000404000000000000000000000000000083
:10057000000000000000000000000000000000007B
:100580000404000000000000000000000000000063
:10059000000000000000000000000000000000005B
:1005A0000404000000000000000000000000000043
:1005B000000000000000000000000000000000003B
:1005C0000404000000000000000000000000000023
:1005D000000000000000000000000000000000001B
:1005E0000404000000000000000000000000000003
:1005F00000000000000000000000000000000000FB
:1006000004040000000000000000000000000000E2
:1006100000000000000000000000000000000000DA
:1006200004040000000000000000000000000000C2
:1006300000000000000000000000000000000000BA
:1006400004040000000000000000000000000000A2
:10065000000000000000000000000000000000009A
:100660000404000000000000000000000000000082
:10067000000000000000000000000000000000007A
:100680000404000000000000000000000000000062
:10069000000000000000000000000000000000005A
:1006A0000404000000000000000000000000000042
:1006B000000000000000000000000000000000003A
:1006C0000404000000000000000000000000000022
:1006D000000000000000000000000000000000001A
:1006E0000404000000000000000000000000000002
:1006F00000000000000000000000000000000000FA
:1007000004040000000000000000000000000000E1
:1007100000000000000000000000000000000000D9
:1007200004040000000000000000000000000000C1
:1007300000000000000000000000000000000000B9
:1007400004040000000000000000000000000000A1
:100750000000000000000000000000000000000099
:100760000404000000000000000000000000000081
:100770000000000000000000000000000000000079
:100780000404000000000000000000000000000061
:100790000000000000000000000000000000000059
:1007A0000404000000000000000000000000000041
:1007B0000000000000000000000000000000000039
:1007C0000404000000000000000000000000000021
:1007D0000000000000000000000000000000000019
:1007E0000404000000000000000000000000000001
:1007F00000000000000000000000000000000000F9
:1008000004040000000000000000000000000000E0
:1008100000000000000000000000000000000000D8
:1008200004040000000000000000000000000000C0
:1008300000000000000000000000000000000000B8
:1008400004040000000000000000000000000000A0
:100850000000000000000000000000000000000098
:100860000404000000000000000000000000000080
:100870000000000000000000000000000000000078
:100880000404000000000000000000000000000060
:100890000000000000000000000000000000000058
:1008A0000404000000000000000000000000000040
:1008B0000000000000000000000000000000000038
:1008C0000404000000000000000000000000000020
:1008D0000000000000000000000000000000000018
:1008E0000404000000000000000000000000000000
:1008F00000000000000000000000000000000000F8
:1009000004040000000000000000000000000000DF
:1009100000000000000000000000000000000000D7
:1009200004040000000000000000000000000000BF
:1009300000000000000000000000000000000000B7
:10094000040400000000000000000000000000009F
:100950000000000000000000000000000000000097
:10096000040400000000000000000000000000007F
:100970000000000000000000000000000000000077
:10098000040400000000000000000000000000005F
:100990000000000000000000000000000000000057
:1009A000040400000000000000000000000000003F
:1009B0000000000000000000000000000000000037
:1009C000040400000000000000000000000000001F
:1009D0000000000000000000000000000000000017
:1009E00004040000000000000000000000000000FF
:1009F00000000000000000000000000000000000F7
:100A000004040000000000000000000000000000DE
:100A100000000000000000000000000000000000D6
:100A200004040000000000000000000000000000BE
:100A300000000000000000000000000000000000B6
:100A4000040400000000000000000000000000009E
:100A50000000000000000000000000000000000096
:100A6000040400000000000000000000000000007E
:100A70000000000000000000000000000000000076
:100A8000040400000000000000000000000000005E
:100A90000000000000000000000000000000000056
:100AA000040400000000000000000000000000003E
:100AB0000000000000000000000000000000000036
:100AC000040400000000000000000000000000001E
:100AD0000000000000000000000000000000000016
:100AE00004040000000000000000000000000000FE
:100AF00000000000000000000000000000000000F6
:100B000004040000000000000000000000000000DD
:100B100000000000000000000000000000000000D5
:100B200004040000000000000000000000000000BD
:100B300000000000000000000000000000000000B5
:100B4000040400000000000000000000000000009D
:100B50000000000000000000000000000000000095
:100B6000040400000000000000000000000000007D
:100B70000000000000000000000000000000000075
:100B8000040400000000000000000000000000005D
:100B90000000000000000000000000000000000055
:100BA000040400000000000000000000000000003D
:100BB0000000000000000000000000000000000035
:100BC000040400000000000000000000000000001D
:100BD0000000000000000000000000000000000015
:100BE00004040000000000000000000000000000FD
:100BF00000000000000000000000000000000000F5
:100C000004040000000000000000000000000000DC
:100C100000000000000000000000000000000000D4
:100C200004040000000000000000000000000000BC
:100C300000000000000000000000000000000000B4
:100C4000040400000000000000000000000000009C
:100C50000000000000000000000000000000000094
:100C6000040400000000000000000000000000007C
:100C70000000000000000000000000000000000074
:100C8000040400000000000000000000000000005C
:100C90000000000000000000000000000000000054
:100CA000040400000000000000000000000000003C
:100CB0000000000000000000000000000000000034
:100CC000040400000000000000000000000000001C
:100CD0000000000000000000000000000000000014
:100CE00004040000000000000000000000000000FC
:100CF00000000000000000000000000000000000F4
:100D000004040000000000000000000000000000DB
:100D100000000000000000000000000000000000D3
:100D200004040000000000000000000000000000BB
:100D300000000000000000000000000000000000B3
:100D4000040400000000000000000000000000009B
:100D50000000000000000000000000000000000093
:100D6000040400000000000000000000000000007B
:100D70000000000000000000000000000000000073
:100D8000040400000000000000000000000000005B
:100D90000000000000000000000000000000000053
:100DA000040400000000000000000000000000003B
:100DB0000000000000000000000000000000000033
:100DC000040400000000000000000000000000001B
:100DD0000000000000000000000000000000000013
:100DE00004040000000000000000000000000000FB
:100DF00000000000000000000000000000000000F3
:100E000004040000000000000000000000000000DA
:100E100000000000000000000000000000000000D2
:100E200004040000000000000000000000000000BA
:100E300000000000000000000000000000000000B2
:100E4000040400000000000000000000000000009A
:100E50000000000000000000000000000000000092
:100E6000040400000000000000000000000000007A
:100E70000000000000000000000000000000000072
:100E8000040400000000000000000000000000005A
:100E90000000000000000000000000000000000052
:100EA000040400000000000000000000000000003A
:100EB0000000000000000000000000000000000032
:100EC000040400000000000000000000000000001A
:100ED0000000000000000000000000000000000012
:100EE00004040000000000000000000000000000FA
:100EF00000000000000000000000000000000000F2
:100F000004040000000000000000000000000000D9
:100F100000000000000000000000000000000000D1
:100F200004040000000000000000000000000000B9
:100F300000000000000000000000000000000000B1
:100F40000404000000000000000000000000000099
:100F50000000000000000000000000000000000091
:100F60000404000000000000000000000000000079
:100F70000000000000000000000000000000000071
:100F80000404000000000000000000000000000059
:100F90000000000000000000000000000000000051
:100FA0000404000000000000000000000000000039
:100FB0000000000000000000000000000000000031
:100FC0000404000000000000000000000000000019
:100FD0000000000000000000000000000000000011
:100FE00004040000000000000000000000000000F9
:100FF00000000000000000000000000000000000F1
:1010000004040000000000000000000000000000D8
:1010100000000000000000000000000000000000D0
:1010200004040000000000000000000000000000B8
:1010300000000000000000000000000000000000B0
:101040000404000000000000000000000000000098
:101050000000000000000000000000000000000090
:101060000404000000000000000000000000000078
:101070000000000000000000000000000000000070
:101080000404000000000000000000000000000058
:101090000000000000000000000000000000000050
:1010A0000404000000000000000000000000000038
:1010B0000000000000000000000000000000000030
:1010C0000404000000000000000000000000000018
:1010D0000000000000000000000000000000000010
:1010E00004040000000000000000000000000000F8
:1010F00000000000000000000000000000000000F0
:1011000004040000000000000000000000000000D7
:1011100000000000000000000000000000000000CF
:1011200004040000000000000000000000000000B7
:1011300000000000000000000000000000000000AF
:101140000404000000000000000000000000000097
:10115000000000000000000000000000000000008F
:101160000404000000000000000000000000000077
:10117000000000000000000000000000000000006F
:101180000404000000000000000000000000000057
:10119000000000000000000000000000000000004F
:1011A0000404000000000000000000000000000037
:1011B000000000000000000000000000000000002F
:1011C0000404000000000000000000000000000017
:1011D000000000000000000000000000000000000F
:1011E00004040000000000000000000000000000F7
:1011F00000000000000000000000000000000000EF
:1012000004040000000000000000000000000000D6
:1012100000000000000000000000000000000000CE
:1012200004040000000000000000000000000000B6
:1012300000000000000000000000000000000000AE
:101240000404000000000000000000000000000096
:10125000000000000000000000000000000000008E
:101260000404000000000000000000000000000076
:10127000000000000000000000000000000000006E
:101280000404000000000000000000000000000056
:10129000000000000000000000000000000000004E
:1012A0000404000000000000000000000000000036
:1012B000000000000000000000000000000000002E
:1012C0000404000000000000000000000000000016
:1012D000000000000000000000000000000000000E
:1012E00004040000000000000000000000000000F6
:1012F00000000000000000000000000000000000EE
:1013000004040000000000000000000000000000D5
:1013100000000000000000000000000000000000CD
:1013200004040000000000000000000000000000B5
:1013300000000000000000000000000000000000AD
:101340000404000000000000000000000000000095
:10135000000000000000000000000000000000008D
:101360000404000000000000000000000000000075
:10137000000000000000000000000000000000006D
:101380000404000000000000000000000000000055
:10139000000000000000000000000000000000004D
:1013A0000404000000000000000000000000000035
:1013B000000000000000000000000000000000002D
:1013C0000404000000000000000000000000000015
:1013D000000000000000000000000000000000000D
:1013E00004040000000000000000000000000000F5
:1013F00000000000000000000000000000000000ED
:1014000004040000000000000000000000000000D4
:1014100000000000000000000000000000000000CC
:1014200004040000000000000000000000000000B4
:1014300000000000000000000000000000000000AC
:101440000404000000000000000000000000000094
:10145000000000000000000000000000000000008C
:101460000404000000000000000000000000000074
:10147000000000000000000000000000000000006C
:101480000404000000000000000000000000000054
:10149000000000000000000000000000000000004C
:1014A0000404000000000000000000000000000034
:1014B000000000000000000000000000000000002C
:1014C0000404000000000000000000000000000014
:1014D000000000000000000000000000000000000C
:1014E00004040000000000000000000000000000F4
:1014F00000000000000000000000000000000000EC
:1015000004040000000000000000000000000000D3
:1015100000000000000000000000000000000000CB
:1015200004040404000000000000000000000000AB
:1015300000000000000000000000000000000000AB
:101540000404000000000000000000000000000093
:10155000000000000000000000000000000000008B
:101560000404000000000000000000000000000073
:10157000000000000000000000000000000000006B
:101580000404000000000000000000000000000053
:10159000000000000000000000000000000000004B
:1015A0000404060405000000000000000000000024
:1015B000000000000000000000000000000000002B
:1015C0000404000000000000000000000000000013
:1015D000000000000000000000000000000000000B
:1015E00004040000000000000000000000000000F3
:1015F00000000000000000000000000000000000EB
:1016000004040000000000000000000000000000D2
:1016100000000000000000000000000000000000CA
:1016200004040000000000000000000000000000B2
:1016300000000000000000000000000000000000AA
:101640000404000000000000000000000000000092
:10165000000000000000000000000000000000008A
:101660000404000000000000000000000000000072
:10167000000000000000000000000000000000006A
:101680000404000000000000000000000000000052
:10169000000000000000000000000000000000004A
:1016A0000404000000000000000000000000000032
:1016B000000000000000000000000000000000002A
:1016C0000404000000000000000000000000000012
:1016D000000000000000000000000000000000000A
:1016E00004040000000000000000000000000000F2
:1016F00000000000000000000000000000000000EA
:1017000004040000000000000000000000000000D1
:1017100000000000000000000000000000000000C9
:1017200004040000000000000000000000000000B1
:1017300000000000000000000000000000000000A9
:101740000404000000000000000000000000000091
:101750000000000000000000000000000000000089
:101760000404000000000000000000000000000071
:101770000000000000000000000000000000000069
:101780000404000000000000000000000000000051
:101790000000000000000000000000000000000049
:1017A0000404000000000000000000000000000031
:1017B0000000000000000000000000000000000029
:1017C0000404000000000000000000000000000011
:1017D0000000000000000000000000000000000009
:1017E00004040000000000000000000000000000F1
:1017F00000000000000000000000000000000000E9
:1018000004040000000000000000000000000000D0
:1018100000000000000000000000000000000000C8
:1018200004040000000000000000000000000000B0
:1018300000000000000000000000000000000000A8
:101840000404000000000000000000000000000090
:101850000000000000000000000000000000000088
:101860000404000000000000000000000000000070
:101870000000000000000000000000000000000068
:101880000404000000000000000000000000000050
:101890000000000000000000000000000000000048
:1018A0000404000000000000000000000000000030
:1018B0000000000000000000000000000000000028
:1018C0000404000000000000000000000000000010
:1018D0000000000000000000000000000000000008
:1018E00004040000000000000000000000000000F0
:1018F00000000000000000000000000000000000E8
:1019000004040000000000000000000000000000CF
:1019100000000000000000000000000000000000C7
:1019200004040000000000000000000000000000AF
:1019300000000000000000000000000000000000A7
:10194000040400000000000000000000000000008F
:101950000000000000000000000000000000000087
:10196000040400000000000000000000000000006F
:101970000000000000000000000000000000000067
:10198000040400000000000000000000000000004F
:101990000000000000000000000000000000000047
:1019A000040400000000000000000000000000002F
:1019B0000000000000000000000000000000000027
:1019C000040400000000000000000000000000000F
:1019D0000000000000000000000000000000000007
:1019E00004040000000000000000000000000000EF
:1019F00000000000000000000000000000000000E7
:101A000004040000000000000000000000000000CE
:101A100000000000000000000000000000000000C6
:101A200004040000000000000000000000000000AE
:101A300000000000000000000000000000000000A6
:101A4000040400000000000000000000000000008E
:101A50000000000000000000000000000000000086
:101A6000040400000000000000000000000000006E
:101A70000000000000000000000000000000000066
:101A8000040400000000000000000000000000004E
:101A90000000000000000000000000000000000046
:101AA000040400000000000000000000000000002E
:101AB0000000000000000000000000000000000026
:101AC000040400000000000000000000000000000E
:101AD0000000000000000000000000000000000006
:101AE00004040000000000000000000000000000EE
:101AF00000000000000000000000000000000000E6
:101B000004040000000000000000000000000000CD
:101B100000000000000000000000000000000000C5
:101B200004040000000000000000000000000000AD
:101B300000000000000000000000000000000000A5
:101B4000040400000000000000000000000000008D
:101B50000000000000000000000000000000000085
:101B6000040400000000000000000000000000006D
:101B70000000000000000000000000000000000065
:101B8000040400000000000000000000000000004D
:101B90000000000000000000000000000000000045
:101BA000040400000000000000000000000000002D
:101BB0000000000000000000000000000000000025
:101BC000040400000000000000000000000000000D
:101BD0000000000000000000000000000000000005
:101BE00004040000000000000000000000000000ED
:101BF00000000000000000000000000000000000E5
:101C000004040000000000000000000000000000CC
:101C100000000000000000000000000000000000C4
:101C200004040000000000000000000000000000AC
:101C300000000000000000000000000000000000A4
:101C4000040400000000000000000000000000008C
:101C50000000000000000000000000000000000084
:101C6000040400000000000000000000000000006C
:101C70000000000000000000000000000000000064
:101C8000040400000000000000000000000000004C
:101C90000000000000000000000000000000000044
:101CA000040400000000000000000000000000002C
:101CB0000000000000000000000000000000000024
:101CC000040400000000000000000000000000000C
:101CD0000000000000000000000000000000000004
:101CE00004040000000000000000000000000000EC
:101CF00000000000000000000000000000000000E4
:101D000004040000000000000000000000000000CB
:101D100000000000000000000000000000000000C3
:101D200004040000000000000000000000000000AB
:101D300000000000000000000000000000000000A3
:101D4000040400000000000000000000000000008B
:101D50000000000000000000000000000000000083
:101D6000040400000000000000000000000000006B
:101D70000000000000000000000000000000000063
:101D8000040400000000000000000000000000004B
:101D90000000000000000000000000000000000043
:101DA000040400000000000000000000000000002B
:101DB0000000000000000000000000000000000023
:101DC000040400000000000000000000000000000B
:101DD0000000000000000000000000000000000003
:101DE00004040000000000000000000000000000EB
:101DF00000000000000000000000000000000000E3
:101E000004040000000000000000000000000000CA
:101E100000000000000000000000000000000000C2
:101E200004040000000000000000000000000000AA
:101E300000000000000000000000000000000000A2
:101E4000040400000000000000000000000000008A
:101E50000000000000000000000000000000000082
:101E6000040400000000000000000000000000006A
:101E70000000000000000000000000000000000062
:101E8000040400000000000000000000000000004A
:101E90000000000000000000000000000000000042
:101EA000040400000000000000000000000000002A
:101EB0000000000000000000000000000000000022
:101EC000040400000000000000000000000000000A
:101ED0000000000000000000000000000000000002
:101EE00004040000000000000000000000000000EA
:101EF00000000000000000000000000000000000E2
:101F000004040000000000000000000000000000C9
:101F100000000000000000000000000000000000C1
:101F200004040000000000000000000000000000A9
:101F300000000000000000000000000000000000A1
:101F40000404000000000000000000000000000089
:101F50000000000000000000000000000000000081
:101F60000404000000000000000000000000000069
:101F70000000000000000000000000000000000061
:101F80000404000000000000000000000000000049
:101F90000000000000000000000000000000000041
:101FA0000404000000000000000000000000000029
:101FB0000000000000000000000000000000000021
:101FC0000404000000000000000000000000000009
:101FD0000000000000000000000000000000000001
:101FE00004040400000000000000000000000000E5
:101FF00000000000000000000000000000000000E1
:00000001FF
