:100000000C040C040C040C8C0C8C0C0C0C0C0C0C48
:100010000C0C0C0C0C0C0C0C0C0C0C0C0C0C0C0C20
:100020000C0C0C0C0C0C0C0C0C0C0C0C0C0C0C0C10
:100030000C0C0C0C0C0C0C0C0C0C0C0C0C0C0C0C00
:100040000C0C0C0C0C0C0C0C0C0C0C0C0C0C0C0CF0
:100050000C0C0C0C0C0C0C0C0C0C0C0C0C0C0C0CE0
:100060000C0C0C0C0C0C0C0C0C0C0C0C0C0C0C0CD0
:100070000C0C0C0C0C0C0C0C0C0C0C0C0C0C0C0CC0
:100080000C0C0C0C0C0C0C0C0C0C0C0C0C0C0C0CB0
:100090000C0C0C0C0C0C0C0C0C0C0C0C0C0C0C0CA0
:1000A0000C0C0C0C0C0C0C0C0C0C0C0C0C0C0C0C90
:1000B0000C0C0C0C0C0C0C0C0C0C0C0C0C0C0C0C80
:1000C0000C0C0C0C0C0C0C0C0C0C0C0C0C0C0C0C70
:1000D0000C0C0C0C0C0C0C0C0C0C0C0C0C0C0C0C60
:1000E0000C0C0C0C0C0C0C0C0C0C0C0C0C0C0C0C50
:1000F0000C0C0C0C0C0C0C0C0C0C0C0C0C0C0C0C40
:100100000C0C0C0C0C0C0C0C0C0C0C0C0C0C0C0C2F
:100110000C0C0C0C0C0C0C0C0C0C0C0C0C0C0C0C1F
:100120000C0C0C0C0C0C0C0C0C0C0C0C0C0C0C0C0F
:100130000C0C0C0C0C0C0C0C0C0C0C0C0C0C0C0CFF
:100140000C0CCC4C0C0C0C0C0C0C0C0C0C0C0C0CEF
:100150000C0C0C0C0C0C0C0C0C0C0C0C0C0C0C0CDF
:100160000C0C0C0C0C0C0C0C0C0C0C0C0C0C0C0CCF
:100170000C0C0C0C0C0C0C0C0C0C0C0C0C0C0C0CBF
:100180000C0C0C0C0C0C0C0C0C0C0C0C0C0C0C0CAF
:100400000C0C040C040C0C0C0C0C0C0C0C0C0C0C3C
:100410000C0C0C0C0C0C0C0C0C0C0C0C0C0C0C0C1C
:100420000C0C0C0C0C0C0C0C0C0C0C0C0C0C0C0C0C
:100430000C0C0C0C0C0C0C0C0C0C0C0C0C0C0C0CFC
:100440000C0C0C0C0C0C0C0C0C0C0C0C0C0C0C0CEC
:100450000C0C0C0C0C0C0C0C0C0C0C0C0C0C0C0CDC
:100460000C0C0C0C0C0C0C0C0C0C0C0C0C0C0C0CCC
:100470000C0C0C0C0C0C0C0C0C0C0C0C0C0C0C0CBC
:100480000C0C0C0C0C0C0C0C0C0C0C0C0C0C0C0CAC
:100490000C0C0C0C0C0C0C0C0C0C0C0C0C0C0C0C9C
:1004A0000C0C0C0C0C0C0C0C0C0C0C0C0C0C0C0C8C
:1004B0000C0C0C0C0C0C0C0C0C0C0C0C0C0C0C0C7C
:1004C0000C0C0C0C0C0C0C0C0C0C0C0C0C0C0C0C6C
:1004D0000C0C0C0C0C0C0C0C0C0C0C0C0C0C0C0C5C
:1004E0000C0C0C0C0C0C0C0C0C0C0C0C0C0C0C0C4C
:1004F0000C0C0C0C0C0C0C0C0C0C0C0C0C0C0C0C3C
:100500000C0C0C0C0C0C0C0C0C0C0C0C0C0C0C0C2B
:100510000C0C0C0C0C0C0C0C0C0C0C0C0C0C0C0C1B
:100520000C0C4C8C4C0C0C0C0C0C0C0C0C0C0C0C0B
:100530000C0C0C0C0C0C0C0C0C0C0C0C0C0C0C0CFB
:100540000C0C0C0C0C0C0C0C0C0C0C0C0C0C0C0CEB
:100550000C0C0C0C0C0C0C0C0C0C0C0C0C0C0C0CDB
:100560000C0C0C0C0C0C0C0C0C0C0C0C0C0C0C0CCB
:100900000C0C040C0C0C0C0C0C0C0C0C0C0C0C0C2F
:100910000C0C0C0C0C0C0C0C0C0C0C0C0C0C0C0C17
:100920000C0C4C8C4C0C0C0C0C0C0C0C0C0C0C0C07
:100930000C0C0C0C0C0C0C0C0C0C0C0C0C0C0C0CF7
:100940000C0C0C0C0C0C0C0C0C0C0C0C0C0C0C0CE7
:100950000C0C0C0C0C0C0C0C0C0C0C0C0C0C0C0CD7
:100960000C0C0C0C0C0C0C0C0C0C0C0C0C0C0C0CC7
:100D00000C0C0C4C0C0C0C0C0C0C0C0C0C0C0C0CE3
:100D10000C0C0C0C0C0C0C0C0C0C0C0C0C0C0C0C13
:100D20000C0C4C8C4C0C0C0C0C0C0C0C0C0C0C0C03
:100D30008C4C0C0C0C0C0C0C0C0C0C0C0C0C0C0C33
:100D40000C0C0C0C0C0C0C0C0C0C0C0C0C0C0C0CE3
:100D50000C0C0C0C0C0C0C0C0C0C0C0C0C0C0C0CD3
:100D60000C0C0C0C0C0C0C0C0C0C0C0C0C0C0C0CC3
:100D70000C0C0C0C0C0C0C0C0C0C0C0C0C0C0C0CB3
:100D80000C0C0C0C0C0C0C0C0C0C0C0C0C0C0C0CA3
:100D90000C0C0C0C0C0C0C0C0C0C0C0C0C0C0C0C93
:100DA0000C0C0E0C0D488C4C0C0C0C0C0C0C0C0C84
:100DB0008C4C0C0C0C0C0C0C0C0C0C0C0C0C0C0CB3
:100DC0000C0C0C0C0C0C0C0C0C0C0C0C0C0C0C0C63
:100DD0000C0C0C0C0C0C0C0C0C0C0C0C0C0C0C0C53
:100DE0000C0C0C0C0C0C0C0C0C0C0C0C0C0C0C0C43
:100DF0000C0C0C0C0C0C0C0C0C0C0C0C0C0C0C0C33
:1011A0000C0C0E0C0D000C0C0C0C0C0C0C0C0C0C88
:1011B0000C0C0C0C0C0C0C0C0C0C0C0C0C0C0C0C6F
:1011C0000C0C0C0C0C0C0C0C0C0C0C0C0C0C0C0C5F
:1011D0000C0C0C0C0C0C0C0C0C0C0C0C0C0C0C0C4F
:1011E0000C0C0C0C0C0C0C0C0C0C0C0C0C0C0C0C3F
:1011F0000C0C0C0C0C0C0C0C0C0C0C0C0C0C0C0C2F
:101200000C0C0C0C0C0C0C0C0C0C0C0C0C0C0C0C1E
:101210000C0C0C0C0C0C0C0C0C0C0C0C0C0C0C0C0E
:101220000C0C0C0C0C0C0C0C0C0C0C0C0C0C0C0CFE
:101230000C0C0C0C0C0C0C0C0C0C0C0C0C0C0C0CEE
:101240000C0C0C0C0C0C0C0C0C0C0C0C0C0C0C0CDE
:101250000C0C0C0C0C0C0C0C0C0C0C0C0C0C0C0CCE
:101260000C0C0C0C0C0C0C0C0C0C0C0C0C0C0C0CBE
:101270000C0C0C0C0C0C0C0C0C0C0C0C0C0C0C0CAE
:101280000C0C0C0C0C0C0C0C0C0C0C0C0C0C0C0C9E
:101290000C0C0C0C0C0C0C0C0C0C0C0C0C0C0C0C8E
:1012A0000C0C0C0C0C0C0C0C0C0C0C0C0C0C0C0C7E
:1012B0000C0C0C0C0C0C0C0C0C0C0C0C0C0C0C0C6E
:1012C0000C0C0C0C0C0C0C0C0C0C0C0C0C0C0C0C5E
:1012D0000C0C0C0C0C0C0C0C0C0C0C0C0C0C0C0C4E
:1012E0000C0C0C0C0C0C0C0C0C0C0C0C0C0C0C0C3E
:1012F0000C0C0C0C0C0C0C0C0C0C0C0C0C0C0C0C2E
:101300000C0C0C0C0C0C0C0C0C0C0C0C0C0C0C0C1D
:101310000C0C0C0C0C0C0C0C0C0C0C0C0C0C0C0C0D
:101320000C0C0C0C0C0C0C0C0C0C0C0C0C0C0C0CFD
:101330000C0C0C0C0C0C0C0C0C0C0C0C0C0C0C0CED
:101340000C0C0C0C0C0C0C0C0C0C0C0C0C0C0C0CDD
:101350000C0C0C0C0C0C0C0C0C0C0C0C0C0C0C0CCD
:101360000C0C0C0C0C0C0C0C0C0C0C0C0C0C0C0CBD
:101370000C0C0C0C0C0C0C0C0C0C0C0C0C0C0C0CAD
:101380000C0C0C0C0C0C0C0C0C0C0C0C0C0C0C0C9D
:101390000C0C0C0C0C0C0C0C0C0C0C0C0C0C0C0C8D
:1013A0000C0C0C0C4C8C0D0E000C0C0C0C0C0C0CC6
:1013B000CC0E000C0C0C0C0C0C0C0C0C0C0C0C0CB7
:1013C0000C0C0C0C0C0C0C0C0C0C0C0C0C0C0C0C5D
:1013D0000C0C0C0C0C0C0C0C0C0C0C0C0C0C0C0C4D
:1013E0000C0C0C0C0C0C0C0C0C0C0C0C0C0C0C0C3D
:1013F0000C0C0C0C0C0C0C0C0C0C0C0C0C0C0C0C2D
:101400000C0C0C0C0C0C0C0C0C0C0C0C0C0C0C0C1C
:101410000C0C0C0C0C0C0C0C0C0C0C0C0C0C0C0C0C
:101420000C0C0C0C0C0C0C0C0C0C0C0C0C0C0C0CFC
:101430000C0C0C0C0C0C0C0C0C0C0C0C0C0C0C0CEC
:101440000C0C4C0C0C0C0C0C0C0C0C0C0C0C0C0C9C
:101450000C0C0C0C0C0C0C0C0C0C0C0C0C0C0C0CCC
:101460000C0C0C0C0C0C0C0C0C0C0C0C0C0C0C0CBC
:101470000C0C0C0C0C0C0C0C0C0C0C0C0C0C0C0CAC
:101480000C0C0C0C0C0C0C0C0C0C0C0C0C0C0C0C9C
:101490000C0C0C0C0C0C0C0C0C0C0C0C0C0C0C0C8C
:1014A0000C0C0C0C0C0C0C0C0C0C0C0C0C0C0C0C7C
:1014B0000C0C0C0C0C0C0C0C0C0C0C0C0C0C0C0C6C
:1014C0000C0C0C0C0C0C0C0C0C0C0C0C0C0C0C0C5C
:1014D0000C0C0C0C0C0C0C0C0C0C0C0C0C0C0C0C4C
:1014E0000C0C0C0C0C0C0C0C0C0C0C0C0C0C0C0C3C
:1014F0000C0C0C0C0C0C0C0C0C0C0C0C0C0C0C0C2C
:101500000C0C0C0C0C0C0C0C0C0C0C0C0C0C0C0C1B
:101510000C0C0C0C0C0C0C0C0C0C0C0C0C0C0C0C0B
:101520000C0C4C0C0C0C0C0C0C0C0C0C0C0C0C0CBB
:101530000C0C0C0C0C0C0C0C0C0C0C0C0C0C0C0CEB
:101540000C0C0C0C0C0C0C0C0C0C0C0C0C0C0C0CDB
:101550000C0C0C0C0C0C0C0C0C0C0C0C0C0C0C0CCB
:101560000C0C0C0C0C0C0C0C0C0C0C0C0C0C0C0CBB
:101570000C0C0C0C0C0C0C0C0C0C0C0C0C0C0C0CAB
:101580000C0C0C0C0C0C0C0C0C0C0C0C0C0C0C0C9B
:101590000C0C0C0C0C0C0C0C0C0C0C0C0C0C0C0C8B
:1015A0000C0C0E0C0D480C0C0C0C0C0C0C0C0C0C3C
:1015B0000C0C0C0C0C0C0C0C0C0C0C0C0C0C0C0C6B
:1015C0000C0C0C0C0C0C0C0C0C0C0C0C0C0C0C0C5B
:1015D0000C0C0C0C0C0C0C0C0C0C0C0C0C0C0C0C4B
:1015E0000C0C0C0C0C0C0C0C0C0C0C0C0C0C0C0C3B
:1015F0000C0C0C0C0C0C0C0C0C0C0C0C0C0C0C0C2B
:101600000C0C0C0C0C0C0C0C0C0C0C0C0C0C0C0C1A
:101610000C0C0C0C0C0C0C0C0C0C0C0C0C0C0C0C0A
:101620000C0C0C0C0C0C0C0C0C0C0C0C0C0C0C0CFA
:101630000C0C0C0C0C0C0C0C0C0C0C0C0C0C0C0CEA
:101640000C0C0C0C0C0C0C0C0C0C0C0C0C0C0C0CDA
:101650000C0C0C0C0C0C0C0C0C0C0C0C0C0C0C0CCA
:101660000C0C0C0C0C0C0C0C0C0C0C0C0C0C0C0CBA
:101670000C0C0C0C0C0C0C0C0C0C0C0C0C0C0C0CAA
:101680000C0C0C0C0C0C0C0C0C0C0C0C0C0C0C0C9A
:101690000C0C0C0C0C0C0C0C0C0C0C0C0C0C0C0C8A
:1016A0000C0C0C0C0C0C0C0C0C0C0C0C0C0C0C0C7A
:1016B0000C0C0C0C0C0C0C0C0C0C0C0C0C0C0C0C6A
:1016C0000C0C0C0C0C0C0C0C0C0C0C0C0C0C0C0C5A
:1016D0000C0C0C0C0C0C0C0C0C0C0C0C0C0C0C0C4A
:1016E0000C0C0C0C0C0C0C0C0C0C0C0C0C0C0C0C3A
:1016F0000C0C0C0C0C0C0C0C0C0C0C0C0C0C0C0C2A
:101700000C0C0C0C0C0C0C0C0C0C0C0C0C0C0C0C19
:101710000C0C0C0C0C0C0C0C0C0C0C0C0C0C0C0C09
:101720000C0C0C0C0C0C0C0C0C0C0C0C0C0C0C0CF9
:101730000C0C0C0C0C0C0C0C0C0C0C0C0C0C0C0CE9
:101740000C0C0C0C0C0C0C0C0C0C0C0C0C0C0C0CD9
:101750000C0C0C0C0C0C0C0C0C0C0C0C0C0C0C0CC9
:101760000C0C0C0C0C0C0C0C0C0C0C0C0C0C0C0CB9
:101770000C0C0C0C0C0C0C0C0C0C0C0C0C0C0C0CA9
:101780000C0C0C0C0C0C0C0C0C0C0C0C0C0C0C0C99
:101790000C0C0C0C0C0C0C0C0C0C0C0C0C0C0C0C89
:1017A0000C0C0C0C4C8C0D0E480C0C0C0C0C0C0C7A
:1017B000CC0E480C0C0C0C0C0C0C0C0C0C0C0C0C6B
:1017C0000C0C0C0C0C0C0C0C0C0C0C0C0C0C0C0C59
:1017D0000C0C0C0C0C0C0C0C0C0C0C0C0C0C0C0C49
:1017E0000C0C0C0C0C0C0C0C0C0C0C0C0C0C0C0C39
:1017F0000C0C0C0C0C0C0C0C0C0C0C0C0C0C0C0C29
:101800000C0C0C0C0C0C0C0C0C0C0C0C0C0C0C0C18
:101810000C0C0C0C0C0C0C0C0C0C0C0C0C0C0C0C08
:101820000C0C0C0C0C0C0C0C0C0C0C0C0C0C0C0CF8
:101830000C0C0C0C0C0C0C0C0C0C0C0C0C0C0C0CE8
:101840000C0C0C0C0C0C0C0C0C0C0C0C0C0C0C0CD8
:101850000C0C0C0C0C0C0C0C0C0C0C0C0C0C0C0CC8
:101860000C0C0C0C0C0C0C0C0C0C0C0C0C0C0C0CB8
:101870000C0C0C0C0C0C0C0C0C0C0C0C0C0C0C0CA8
:101880000C0C0C0C0C0C0C0C0C0C0C0C0C0C0C0C98
:101890000C0C0C0C0C0C0C0C0C0C0C0C0C0C0C0C88
:1018A0000C0C0C0C0C0C0C0C0C0C0C0C0C0C0C0C78
:1018B0000C0C0C0C0C0C0C0C0C0C0C0C0C0C0C0C68
:1018C0000C0C0C0C0C0C0C0C0C0C0C0C0C0C0C0C58
:1018D0000C0C0C0C0C0C0C0C0C0C0C0C0C0C0C0C48
:1018E0000C0C0C0C0C0C0C0C0C0C0C0C0C0C0C0C38
:1018F0000C0C0C0C0C0C0C0C0C0C0C0C0C0C0C0C28
:101900000C0C0C0C0C0C0C0C0C0C0C0C0C0C0C0C17
:101910000C0C0C0C0C0C0C0C0C0C0C0C0C0C0C0C07
:101920000C0C4C0C0C0C0C0C0C0C0C0C0C0C0C0CB7
:101930000C0C0C0C0C0C0C0C0C0C0C0C0C0C0C0CE7
:101940000C0CCC4C0C0C0C0C0C0C0C0C0C0C0C0CD7
:101950000C0C0C0C0C0C0C0C0C0C0C0C0C0C0C0CC7
:101960000C0C0C0C0C0C0C0C0C0C0C0C0C0C0C0CB7
:101970000C0C0C0C0C0C0C0C0C0C0C0C0C0C0C0CA7
:101980000C0C0C0C0C0C0C0C0C0C0C0C0C0C0C0C97
:101990000C0C0C0C0C0C0C0C0C0C0C0C0C0C0C0C87
:1019A0000C0C0C0C0C0C0C0C0C0C0C0C0C0C0C0C77
:1019B0000C0C0C0C0C0C0C0C0C0C0C0C0C0C0C0C67
:1019C0000C0C0E0C0DC8400C0C0C0C0C0C0C0C0C64
:1019D0000C0C0C0C0C0C0C0C0C0C0C0C0C0C0C0C47
:1019E0000C0C0C0C0C0C0C0C0C0C0C0C0C0C0C0C37
:1019F0000C0C0C0C0C0C0C0C0C0C0C0C0C0C0C0C27
:101A00000C0C0C0C0C0C0C0C0C0C0C0C0C0C0C0C16
:101C00000C0C4C0C0C0C0C0C0C0C0C0C0C0C0C0CD4
:101C10000C0C0C0C0C0C0C0C0C0C0C0C0C0C0C0C04
:101C20000C0C0C0C0C0C0C0C0C0C0C0C0C0C0C0CF4
:101C30000C0C0C0C0C0C0C0C0C0C0C0C0C0C0C0CE4
:101C40000C0C0C0C0C0C0C0C0C0C0C0C0C0C0C0CD4
:101C50000C0C0C0C0C0C0C0C0C0C0C0C0C0C0C0CC4
:101C60000C0C0C0C0C0C0C0C0C0C0C0C0C0C0C0CB4
:101C70000C0C0C0C0C0C0C0C0C0C0C0C0C0C0C0CA4
:101C80000C0C0C0C0C0C0C0C0C0C0C0C0C0C0C0C94
:101C90000C0C0C0C0C0C0C0C0C0C0C0C0C0C0C0C84
:101CA0000C0C0C0C0C0C0C0C0C0C0C0C0C0C0C0C74
:101CB0000C0C0C0C0C0C0C0C0C0C0C0C0C0C0C0C64
:101CC0000C0C0C0C0C0C0C0C0C0C0C0C0C0C0C0C54
:101CD0000C0C0C0C0C0C0C0C0C0C0C0C0C0C0C0C44
:101CE0000C0C0C0C0C0C0C0C0C0C0C0C0C0C0C0C34
:101CF0000C0C0C0C0C0C0C0C0C0C0C0C0C0C0C0C24
:101D00000C0CCC4C0C0C0C0C0C0C0C0C0C0C0C0C13
:101D10000C0C0C0C0C0C0C0C0C0C0C0C0C0C0C0C03
:101D20000C0C4C8C4C0C0C0C0C0C0C0C0C0C0C0CF3
:101D30008C4C0C0C0C0C0C0C0C0C0C0C0C0C0C0C23
:101D40000C0C0C0C0C0C0C0C0C0C0C0C0C0C0C0CD3
:101D50000C0C0C0C0C0C0C0C0C0C0C0C0C0C0C0CC3
:101D60000C0C0C0C0C0C0C0C0C0C0C0C0C0C0C0CB3
:101D70000C0C0C0C0C0C0C0C0C0C0C0C0C0C0C0CA3
:101D80000C0C0C0C0C0C0C0C0C0C0C0C0C0C0C0C93
:101D90000C0C0C0C0C0C0C0C0C0C0C0C0C0C0C0C83
:101DA0000C0C0E0C0D4C884C0C0C0C0C0C0C0C0C74
:101DB000884C0C0C0C0C0C0C0C0C0C0C0C0C0C0CA7
:101DC0000C0C0E0C0DC8400C0C0C0C0C0C0C0C0C60
:101DD0000C0C0C0C0C0C0C0C0C0C0C0C0C0C0C0C43
:101DE0000C0C0C0C0C0C0C0C0C0C0C0C0C0C0C0C33
:101DF0000C0C0C0C0C0C0C0C0C0C0C0C0C0C0C0C23
:101E00000C0C0C0C0C0C0C0C0C0C0C0C0C0C0C0C12
:101E10000C0C0C0C0C0C0C0C0C0C0C0C0C0C0C0C02
:101E20000C0C0C0C0C0C0C0C0C0C0C0C0C0C0C0CF2
:101E30000C0C0C0C0C0C0C0C0C0C0C0C0C0C0C0CE2
:101E40000C0C0C0C0C0C0C0C0C0C0C0C0C0C0C0CD2
:101E50000C0C0C0C0C0C0C0C0C0C0C0C0C0C0C0CC2
:101E60000C0C0C0C0C0C0C0C0C0C0C0C0C0C0C0CB2
:101E70000C0C0C0C0C0C0C0C0C0C0C0C0C0C0C0CA2
:101E80000C0C0C0C0C0C0C0C0C0C0C0C0C0C0C0C92
:101E90000C0C0C0C0C0C0C0C0C0C0C0C0C0C0C0C82
:101EA0000C0C0C0C0C0C0C0C0C0C0C0C0C0C0C0C72
:101EB0000C0C0C0C0C0C0C0C0C0C0C0C0C0C0C0C62
:101EC0000C0C0C0C0C0C0C0C0C0C0C0C0C0C0C0C52
:101ED0000C0C0C0C0C0C0C0C0C0C0C0C0C0C0C0C42
:101EE0000C0C0C0C0C0C0C0C0C0C0C0C0C0C0C0C32
:101EF0000C0C0C0C0C0C0C0C0C0C0C0C0C0C0C0C22
:101F00000C0C0C0C0C0C0C0C0C0C0C0C0C0C0C0C11
:101F10000C0C0C0C0C0C0C0C0C0C0C0C0C0C0C0C01
:101F20000C0C0C0C0C0C0C0C0C0C0C0C0C0C0C0CF1
:101F30000C0C0C0C0C0C0C0C0C0C0C0C0C0C0C0CE1
:101F40000C0C0C0C0C0C0C0C0C0C0C0C0C0C0C0CD1
:101F50000C0C0C0C0C0C0C0C0C0C0C0C0C0C0C0CC1
:101F60000C0C0C0C0C0C0C0C0C0C0C0C0C0C0C0CB1
:101F70000C0C0C0C0C0C0C0C0C0C0C0C0C0C0C0CA1
:101F80000C0C0C0C0C0C0C0C0C0C0C0C0C0C0C0C91
:101F90000C0C0C0C0C0C0C0C0C0C0C0C0C0C0C0C81
:101FA0000C0C0E0C0D080C0C0C0C0C0C0C0C0C0C72
:101FB0000C0C0C0C0C0C0C0C0C0C0C0C0C0C0C0C61
:101FC0000C0C0C0C0C0C0C0C0C0C0C0C0C0C0C0C51
:101FD0000C0C0C0C0C0C0C0C0C0C0C0C0C0C0C0C41
:101FE0000C0C0C0C0C0C0C0C0C0C0C0C0C0C0C0C31
:101FF0000C0C0C0C0C0C0C0C0C0C0C0C0C0C0C0C21
:00000001FF
