:100000000000000000000000008E00B200000000B0
:1000100000000000000000000000000000000000E0
:1000200000000000000000000000000000000000D0
:1000300000000000000000000000000000000000C0
:1000400000000000000000000000000000000000B0
:1000500000000000000000000000000000000000A0
:1000600000000000000000016681000000000000A8
:1000700026810000000000000000000000000000D9
:100080000000000001660000016681000000000021
:100090000300016681000000000000000000000075
:1000A0000000000000000166000001668100000001
:1000B0000300016681000000000000000000000055
:1000C0000000016681000000000000000000000048
:1000D0002681000000000000000000000000000079
:1000E000000000000001AE810000000000000000E0
:1000F0000000000000000000000000000000000000
:100100000000000000000001AE81000000000000BF
:1001100000000000000000000000000000000000DF
:10012000000001AE8100000000000000000000009F
:1001300000000000000000000000000000000000BF
:10014000000001AE8100000000000000000000007F
:10015000000000000000000000000000000000009F
:10016000000001BA81000000000000000000000053
:10017000000000000000000000000000000000007F
:10018000000000000001BA81000000000000000033
:10019000000000000000000000000000000000005F
:1001A0000000000000000001BA8100000000000013
:1001B000000000000000000000000000000000003F
:1001C000000001BA810000000000000000000000F3
:1001D000000000000000000000000000000000001F
:1001E000000001BA810000000000000000000000D3
:1001F00000000000000000000000000000000000FF
:1002000000000000000000000000000000000000EE
:1002100000000000000000000000000000000000DE
:100220000000000000019A810000000000000000B2
:1002300000000000000000000000000000000000BE
:1002400000000000000000019A8100000000000092
:10025000000000000000000000000000000000009E
:100260000000019A81000000000000000000000072
:10027000000000000000000000000000000000007E
:100280000000019A81000000000000000000000052
:10029000000000000000000000000000000000005E
:1002A000000001AE8100000000000000000000001E
:1002B000000000000000000000000000000000003E
:1002C000000000000001AE810000000000000000FE
:1002D000000000000000000000000000000000001E
:1002E0000000000000000001AE81000000000000DE
:1002F00000000000000000000000000000000000FE
:1003000000000000000000000000000000000000ED
:1003100000000000000000000000000000000000DD
:1003200000000000000000000000000000000000CD
:1003300000000000000000000000000000000000BD
:1003400000000000000000000000000000000000AD
:10035000000000000000000000000000000000009D
:10036000000000000000000000000000000000008D
:10037000000000000000000000000000000000007D
:10038000000000000000000000000000000000006D
:10039000000000000000000000000000000000005D
:1003A000000000000000000000000000000000004D
:1003B000000000000000000000000000000000003D
:1003C000000000000000000000000000000000002D
:1003D000000000000000000000000000000000001D
:1003E000000000000000000000000000000000000D
:1003F00000000000000000000000000000000000FD
:1004000000000000000000000000000000000000EC
:1004100000000000000000000000000000000000DC
:1004200000000000000000000000000000000000CC
:1004300000000000000000000000000000000000BC
:1004400000000000000000000000000000000000AC
:10045000000000000000000000000000000000009C
:10046000000000000000000000000000000000008C
:10047000000000000000000000000000000000007C
:10048000000000000000000000000000000000006C
:10049000000000000000000000000000000000005C
:1004A000000000000000000000000000000000004C
:1004B000000000000000000000000000000000003C
:1004C00000000000000000810000000000000000AB
:1004D000810000000000000000000000000000009B
:1004E000000000000000000000000000000000000C
:1004F00000000000000000000000000000000000FC
:1005000000007F81000000000000000000000000EB
:1005100000000000000000000000000000000000DB
:10052000000001AE8100000000000000000000009B
:1005300000000000000000000000000000000000BB
:10054000000000008100000000000000000000002A
:10055000810000000000000000000000000000001A
:10056000000000008100000000000000000000000A
:1005700081000000000000000000000000000000FA
:1005800000000000810000000000000000000000EA
:1005900081000000000000000000000000000000DA
:1005A00000007F810000000000000000000000004B
:1005B000000000000000000000000000000000003B
:1005C00000000381000000000000000000000000A7
:1005D000000000000000000000000000000000001B
:1005E0000000038100000000000000000000000087
:1005F00000000000000000000000000000000000FB
:1006000000000000000000000000000000000000EA
:1006100000000000000000000000000000000000DA
:1006200000000000016600008100000000000000E2
:100630000300810000000000000000000000000036
:1006400000000000000001660000810000000000C2
:100650000300810000000000000000000000000016
:100660000000000000810000000000000000000009
:10067000000000000000000000000000000000007A
:1006800000000000000000810000000000000000E9
:10069000000000000000000000000000000000005A
:1006A00000000000008100000000000000000000C9
:1006B000000000000000000000000000000000003A
:1006C00000000000000000810000000000000000A9
:1006D000000000000000000000000000000000001A
:1006E0000000000000810000000000000000000089
:1006F00000000000000000000000000000000000FA
:1007000000000000000000000000000000000000E9
:1007100000000000000000000000000000000000D9
:100720000000000000000081000000000000000048
:1007300000000000000000000000000000000000B9
:1007400000000000000000000000000000000000A9
:100750000000000000000000000000000000000099
:100760000000000000000000000000000000000089
:100770000000000000000000000000000000000079
:100780000000000000000000000000000000000069
:100790000000000000000000000000000000000059
:1007A0000000000000000000000000000000000049
:1007B0000000000000000000000000000000000039
:1007C0000000000000000000000000000000000029
:1007D0000000000000000000000000000000000019
:1007E0000000000000000000000000000000000009
:1007F00000000000000000000000000000000000F9
:1008000000000000000000000000000000000000E8
:1008100000000000000000000000000000000000D8
:1008200000000000000000000000000000000000C8
:1008300000000000000000000000000000000000B8
:1008400000000000000000011A810000000000000C
:100850000000000000000000000000000000000098
:100860000000000000011A810000000000000000EC
:100870000000000000000000000000000000000078
:1008800000000000000000011A81000000000000CC
:100890000000000000000000000000000000000058
:1008A0000000000000011A810000000000000000AC
:1008B0000000000000000000000000000000000038
:1008C00000000000000000011A810000000000008C
:1008D0000000000000000000000000000000000018
:1008E0000000000000011A8100000000000000006C
:1008F00000000000000000000000000000000000F8
:1009000000000000000000000000000000000000E7
:1009100000000000000000000000000000000000D7
:100920000000019A810000000000000000000000AB
:1009300000000000000000000000000000000000B7
:1009400000000000000000011A810000000000000B
:100950000000000000000000000000000000000097
:100960000000000000011A810000000000000000EB
:100970000000000000000000000000000000000077
:100980000000000000000000000000000000000067
:100990000000000000000000000000000000000057
:1009A0000000000000000000000000000000000047
:1009B0000000000000000000000000000000000037
:1009C00000000000000000011A810000000000008B
:1009D0000000000000000000000000000000000017
:1009E0000000011A8100000000000000000000006B
:1009F00000000000000000000000000000000000F7
:100A00000000011A8100000000000000000000004A
:100A100000000000000000000000000000000000D6
:100A20000000011A8100000000000000000000002A
:100A300000000000000000000000000000000000B6
:100A40000000000000000003810000000000000022
:100A50000000000000000000000000000000000096
:100A6000000000000000007F810000000000000086
:100A70000000000000000000000000000000000076
:100A800000000000000000000081000000000000E5
:100A900081000000000000000000000000000000D5
:100AA000000000000000000001AE81008100000095
:100AB00081000000000000000000000000000000B5
:100AC00000008100000000000000000000000000A5
:100AD0000000000000000000000000000000000016
:100AE0000000810000000000000000000000000085
:100AF00000000000000000000000000000000000F6
:100B000000000000000000000000000000000000E5
:100B100000000000000000000000000000000000D5
:100B20000000810000000000000000000000000044
:100B300000000000000000000000000000000000B5
:100B40000000810000000000000000000000000024
:100B50000000000000000000000000000000000095
:100B600000000000000000015A81000000000000A9
:100B70001A810000000000000000000000000000DA
:100B80000000000000011A810000000000000000C9
:100B90000000000000000000000000000000000055
:100BA0000000015A81000000000000000000000069
:100BB0001A8100000000000000000000000000009A
:100BC0000000015A81000000000000000000000049
:100BD0001A8100000000000000000000000000007A
:100BE0000000000001660000011A81000000000002
:100BF0000300011A81000000000000000000000056
:100C000000000000000000000000000000000000E4
:100C100000000000000000000000000000000000D4
:100C200000000000000001660000011A81000000C1
:100C30000300011A81000000000000000000000015
:100C4000000000000000016600000000000000003D
:100C50000300000000000000000000000000000091
:100C60000000000000000000000000000000000084
:100C70000000000000000000000000000000000074
:100C80000000000000000000000000000000000064
:100C90000000000000000000000000000000000054
:100CA0000000000000000000000000000000000044
:100CB0000000000000000000000000000000000034
:100CC00000000000000001AE810081000000000073
:100CD0008100000000000000000000000000000093
:100CE0000000000000000000000000000000000004
:100CF00000000000000000000000000000000000F4
:100D00000000008100000000000000000000000062
:100D100000000000000000000000000000000000D3
:100D200000000166810000000000000000000000DB
:100D3000268100000000000000000000000000000C
:100D4000000001AE810081000000000000000000F2
:100D50008100000000000000000000000000000012
:100D6000000001AE810081000000000000000000D2
:100D700081000000000000000000000000000000F2
:100D8000000001AE810081000000000000000000B2
:100D900081000000000000000000000000000000D2
:100DA000000000000001668100000000000000005B
:100DB000268100000000000000000000000000008C
:100DC00000000000016600000000000000000000BC
:100DD0000300000000000000000000000000000010
:100DE000000001668100000000000000000000001B
:100DF000268100000000000000000000000000004C
:100E0000000000000000016600000000000000007B
:100E100003000000000000000000000000000000CF
:100E200000000000000000000000000000000000C2
:100E300000000000000000000000000000000000B2
:100E400000000000000000000000000000000000A2
:100E50000000000000000000000000000000000092
:100E6000000000000166000000000000000000001B
:100E7000030000000000000000000000000000006F
:100E800000000000000001660000000000000000FB
:100E9000030000000000000000000000000000004F
:100EA0000000000000000000000000000000000042
:100EB0000000000000000000000000000000000032
:100EC0000000000000000000000000000000000022
:100ED0000000000000000000000000000000000012
:100EE000000000000166000000000000000000009B
:100EF00003000000000000000000000000000000EF
:100F000000000000000000000000000000000000E1
:100F100000000000000000000000000000000000D1
:100F2000000000000000016600000000000000005A
:100F300003000000000000000000000000000000AE
:100F400000000000000000000000000000000000A1
:100F50000000000000000000000000000000000091
:100F60000000000000000000000000000000000081
:100F70000000000000000000000000000000000071
:100F800000000000016600000000000000000000FA
:100F9000030000000000000000000000000000004E
:100FA00000000000000001660000000000000000DA
:100FB000030000000000000000000000000000002E
:100FC00000000000016600000000000000000000BA
:100FD000030000000000000000000000000000000E
:100FE000000000000000016600000000000000009A
:100FF00003000000000000000000000000000000EE
:1010000000000000000000000000000000000000E0
:1010100000000000000000000000000000000000D0
:1010200000000000000000000000000000000000C0
:1010300000000000000000000000000000000000B0
:101040000000000001660000000000000000000039
:10105000030000000000000000000000000000008D
:101060000000000000000166000000000000000019
:10107000030000000000000000000000000000006D
:1010800000000000016600000000000000000000F9
:10109000030000000000000000000000000000004D
:1010A00000000000000001660000000000000000D9
:1010B000030000000000000000000000000000002D
:1010C00000000000016600000166810000000000D1
:1010D0000300016681000000000000000000000025
:1010E00000000000000001660000016681000000B1
:1010F0000300016681000000000000000000000005
:101100000000000001660000011A810000000000DC
:101110000300011A81000000000000000000000030
:1011200000000000000001660000011A81000000BC
:101130000300011A81000000000000000000000010
:10114000000081000000000000000000000000001E
:10115000000000000000000000000000000000008F
:1011600000008100000000000000000000000000FE
:10117000000000000000000000000000000000006F
:1011800000008100000000000000000000000000DE
:10119000000000000000000000000000000000004F
:1011A000000000000000000000000000000000003F
:1011B000000000000000000000000000000000002F
:1011C000000000000000000000000000000000001F
:1011D000000000000000000000000000000000000F
:1011E00000000000000000000000000000000000FF
:1011F00000000000000000000000000000000000EF
:1012000000000000000000000000000000000000DE
:1012100000000000000000000000000000000000CE
:1012200000000000000000000000000000000000BE
:1012300000000000000000000000000000000000AE
:10124000000000000000000000000000000000009E
:10125000000000000000000000000000000000008E
:10126000000000000000000000000000000000007E
:10127000000000000000000000000000000000006E
:101280000000016600008100000000000000000076
:1012900003008100000000000000000000000000CA
:1012A000000000000000000000000000000000003E
:1012B000000000000000000000000000000000002E
:1012C000000000000000000000000000000000001E
:1012D000000000000000000000000000000000000E
:1012E00000000000000000000000000000000000FE
:1012F00000000000000000000000000000000000EE
:1013000000000000000000000000000000000000DD
:1013100000000000000000000000000000000000CD
:10132000000000810000000000000000000000003C
:1013300000000000000000000000000000000000AD
:10134000000000810000000000000000000000001C
:10135000000000000000000000000000000000008D
:1013600000008100000000000000000000000000FC
:10137000000000000000000000000000000000006D
:1013800000008100000000000000000000000000DC
:10139000000000000000000000000000000000004D
:1013A00000000000016600000000000000000000D6
:1013B000030000000000000000000000000000002A
:1013C000000000810000000000000000000000009C
:1013D000000000000000000000000000000000000D
:1013E000000000810000000000000000000000007C
:1013F00000000000000000000000000000000000ED
:10140000000081000000000000000000000000005B
:1014100000000000000000000000000000000000CC
:101420000000016600000000000000000000000055
:1014300003000000000000000000000000000000A9
:10144000000081000000000000000000000000001B
:10145000000000000000000000000000000000008C
:1014600000000000008100000000000000000000FB
:10147000000000000000000000000000000000006C
:1014800000000000000000810000000000000000DB
:10149000000000000000000000000000000000004C
:1014A00000008100000000000000000000000000BB
:1014B000000000000000000000000000000000002C
:1014C000000081000000000000000000000000009B
:1014D000000000000000000000000000000000000C
:1014E000000000000000008100000000000000007B
:1014F00000000000000000000000000000000000EC
:10150000000001AE8100810000000000000000002A
:10151000810000000000000000000000000000004A
:10152000000081000000000000000000000000003A
:1015300000000000000000000000000000000000AB
:10154000000081000000000000000000000000001A
:10155000000000000000000000000000000000008B
:1015600000008100000000000000000000000000FA
:10157000000000000000000000000000000000006B
:1015800000008100000000000000000000000000DA
:10159000000000000000000000000000000000004B
:1015A00000000000008100000000000000000000BA
:1015B000000000000000000000000000000000002B
:1015C000000000000000000000000000000000001B
:1015D000000000000000000000000000000000000B
:1015E000000000008100000000000000000000007A
:1015F000810000000000000000000000000000006A
:1016000000000000000000000000000000000000DA
:1016100000000000000000000000000000000000CA
:1016200000000000000000000000000000000000BA
:1016300000000000000000000000000000000000AA
:1016400000000001660000810000000000000000B2
:101650000300810000000000000000000000000006
:101660000000000166000000000000000000000013
:101670000300000000000000000000000000000067
:10168000000000000000000000000000000000005A
:10169000000000000000000000000000000000004A
:1016A000000000000000000000000000000000003A
:1016B000000000000000000000000000000000002A
:1016C000000000000000000000000000000000001A
:1016D000000000000000000000000000000000000A
:1016E00000000000000000000000000000000000FA
:1016F00000000000000000000000000000000000EA
:1017000000000000000000000000000000000000D9
:1017100000000000000000000000000000000000C9
:1017200000000000000000000000000000000000B9
:1017300000000000000000000000000000000000A9
:101740000000810000000000000000000000000018
:101750000000000000000000000000000000000089
:1017600000008100000000000000000000000000F8
:101770000000000000000000000000000000000069
:101780000000000000000000000000000000000059
:101790000000000000000000000000000000000049
:1017A0000000000001660000810000000000000051
:1017B00003008100000000000000000000000000A5
:1017C0000000000000000166000081000000000031
:1017D0000300810000000000000000000000000085
:1017E00000000000000000000000000000000000F9
:1017F00000000000000000000000000000000000E9
:1018000000000000000000000000000000000000D8
:1018100000000000000000000000000000000000C8
:1018200000000000000000000000000000000000B8
:1018300000000000000000000000000000000000A8
:101840000000000000000000000000000000000098
:101850000000000000000000000000000000000088
:101860000000000000000000000000000000000078
:101870000000000000000000000000000000000068
:101880000000000000000000000000000000000058
:101890000000000000000000000000000000000048
:1018A0000000000000000000000000000000000038
:1018B0000000000000000000000000000000000028
:1018C0000000000000000000000000000000000018
:1018D0000000000000000000000000000000000008
:1018E00000000000000000000000000000000000F8
:1018F00000000000000000000000000000000000E8
:101900000000038100000000000000000000000053
:1019100000000000000000000000000000000000C7
:101920000000011A8100000000000000000000001B
:1019300000000000000000000000000000000000A7
:1019400000007F8100000000000000000000000097
:101950000000000000000000000000000000000087
:1019600000007F8100000000000000000000000077
:101970000000000000000000000000000000000067
:101980000000000000000000000000000000000057
:101990000000000000000000000000000000000047
:1019A0000000000000000000000000000000000037
:1019B0000000000000000000000000000000000027
:1019C00000000000007F8100000000000000000017
:1019D0000000000000000000000000000000000007
:1019E00000000000000000000000000000000000F7
:1019F00000000000000000000000000000000000E7
:101A000000000000000000000000000000000000D6
:101C00000000011A81000000000000000000000038
:101C100000000000000000000000000000000000C4
:101C20000000011A81000000000000000000000018
:101C300000000000000000000000000000000000A4
:101C40000000011A810000000000000000000000F8
:101C50000000000000000000000000000000000084
:101C60000000011A810000000000000000000000D8
:101C70000000000000000000000000000000000064
:101C80000000011A810000000000000000000000B8
:101C90000000000000000000000000000000000044
:101CA0000000011A81000000000000000000000098
:101CB0000000000000000000000000000000000024
:101CC0000000000000000000000000000000000014
:101CD0000000000000000000000000000000000004
:101CE00000000000000000000000000000000000F4
:101CF00000000000000000000000000000000000E4
:101D0000000003810000000000000000000000004F
:101D100000000000000000000000000000000000C3
:101D20000000015A810000000000000000000000D7
:101D30001A81000000000000000000000000000008
:101D40000000000000000000000000000000000093
:101D50000000000000000000000000000000000083
:101D60000000011A810000000000000000000000D7
:101D70000000000000000000000000000000000063
:101D80000000000000000000000000000000000053
:101D90000000000000000000000000000000000043
:101DA0000000000000015A81000000000000000057
:101DB0001A81000000000000000000000000000088
:101DC000000000000003810000000000000000008F
:101DD0000000000000000000000000000000000003
:101DE0000000015A81000000000000000000000017
:101DF0001A81000000000000000000000000000048
:101E000000000000000000000000000000000000D2
:101E100000000000000000000000000000000000C2
:101E200000000000000000000000000000000000B2
:101E300000000000000000000000000000000000A2
:101E40000000000000000000000000000000000092
:101E50000000000000000000000000000000000082
:101E60000000000000000000000000000000000072
:101E70000000000000000000000000000000000062
:101E80000000000000000000000000000000000052
:101E90000000000000000000000000000000000042
:101EA0000000000000000000000000000000000032
:101EB0000000000000000000000000000000000022
:101EC0000000000000000000000000000000000012
:101ED0000000000000000000000000000000000002
:101EE00000000000000000000000000000000000F2
:101EF00000000000000000000000000000000000E2
:101F000000000000000000000000000000000000D1
:101F100000000000000000000000000000000000C1
:101F200000000000000000000000000000000000B1
:101F300000000000000000000000000000000000A1
:101F40000000000000000000000000000000000091
:101F50000000000000000000000000000000000081
:101F60000000000000000000000000000000000071
:101F70000000000000000000000000000000000061
:101F80000000000000000000000000000000000051
:101F90000000000000000000000000000000000041
:101FA0000000000000000000000000000000000031
:101FB0000000000000000000000000000000000021
:101FC0000000000000000000000000000000000011
:101FD0000000000000000000000000000000000001
:101FE00000000000000000000000000000000000F1
:101FF00000000000000000000000000000000000E1
:00000001FF
