:100000003C3C3C000000000000000000000000003C
:1000100000000000000000000000000000000000E0
:100020003C3C000000000000000000000000000058
:1000300000000000000000000000000000000000C0
:100040003C3C000000000000000000000000000038
:1000500000000000000000000000000000000000A0
:100060003C3C000000000000000000000000000018
:100070000000000000000000000000000000000080
:100080003C3C0000000000000000000000000000F8
:100090000000000000000000000000000000000060
:1000A0003C3C0000000000000000000000000000D8
:1000B0000000000000000000000000000000000040
:1000C0003C3C0000000000000000000000000000B8
:1000D0000000000000000000000000000000000020
:1000E0003C3C000000000000000000000000000098
:1000F0000000000000000000000000000000000000
:100100003C3C000000000000000000000000000077
:1001100000000000000000000000000000000000DF
:100120003C3C000000000000000000000000000057
:1001300000000000000000000000000000000000BF
:100140003C3C000000000000000000000000000037
:10015000000000000000000000000000000000009F
:100160003C3C000000000000000000000000000017
:10017000000000000000000000000000000000007F
:100180003C3C0000000000000000000000000000F7
:10019000000000000000000000000000000000005F
:1001A0003C3C0000000000000000000000000000D7
:1001B000000000000000000000000000000000003F
:1001C0003C3C0000000000000000000000000000B7
:1001D000000000000000000000000000000000001F
:1001E0003C3C000000000000000000000000000097
:1001F00000000000000000000000000000000000FF
:100200003C3C000000000000000000000000000076
:1002100000000000000000000000000000000000DE
:100220003C3C000000000000000000000000000056
:1002300000000000000000000000000000000000BE
:100240003C3C000000000000000000000000000036
:10025000000000000000000000000000000000009E
:100260003C3C000000000000000000000000000016
:10027000000000000000000000000000000000007E
:100280003C3C0000000000000000000000000000F6
:10029000000000000000000000000000000000005E
:1002A0003C3C0000000000000000000000000000D6
:1002B000000000000000000000000000000000003E
:1002C0003C3C0000000000000000000000000000B6
:1002D000000000000000000000000000000000001E
:1002E0003C3C000000000000000000000000000096
:1002F00000000000000000000000000000000000FE
:100300003C3C000000000000000000000000000075
:1003100000000000000000000000000000000000DD
:100320003C3C000000000000000000000000000055
:1003300000000000000000000000000000000000BD
:100340003C3C000000000000000000000000000035
:10035000000000000000000000000000000000009D
:100360003C3C000000000000000000000000000015
:10037000000000000000000000000000000000007D
:100380003C3C0000000000000000000000000000F5
:10039000000000000000000000000000000000005D
:1003A0003C3C0000000000000000000000000000D5
:1003B000000000000000000000000000000000003D
:1003C0003C3C0000000000000000000000000000B5
:1003D000000000000000000000000000000000001D
:1003E0003C3C000000000000000000000000000095
:1003F00000000000000000000000000000000000FD
:100400003C3C000000000000000000000000000074
:1004100000000000000000000000000000000000DC
:100420003C3C000000000000000000000000000054
:1004300000000000000000000000000000000000BC
:100440003C3C000000000000000000000000000034
:10045000000000000000000000000000000000009C
:100460003C3C000000000000000000000000000014
:10047000000000000000000000000000000000007C
:100480003C3C0000000000000000000000000000F4
:10049000000000000000000000000000000000005C
:1004A0003C3C0000000000000000000000000000D4
:1004B000000000000000000000000000000000003C
:1004C0003C3C0000000000000000000000000000B4
:1004D000000000000000000000000000000000001C
:1004E0003C3C000000000000000000000000000094
:1004F00000000000000000000000000000000000FC
:100500003C3C000000000000000000000000000073
:1005100000000000000000000000000000000000DB
:100520003C3C000000000000000000000000000053
:1005300000000000000000000000000000000000BB
:100540003C3C000000000000000000000000000033
:10055000000000000000000000000000000000009B
:100560003C3C000000000000000000000000000013
:10057000000000000000000000000000000000007B
:100580003C3C0000000000000000000000000000F3
:10059000000000000000000000000000000000005B
:1005A0003C3C0000000000000000000000000000D3
:1005B000000000000000000000000000000000003B
:1005C0003C3C0000000000000000000000000000B3
:1005D000000000000000000000000000000000001B
:1005E0003C3C000000000000000000000000000093
:1005F00000000000000000000000000000000000FB
:100600003C3C000000000000000000000000000072
:1006100000000000000000000000000000000000DA
:100620003C3C000000000000000000000000000052
:1006300000000000000000000000000000000000BA
:100640003C3C000000000000000000000000000032
:10065000000000000000000000000000000000009A
:100660003C3C000000000000000000000000000012
:10067000000000000000000000000000000000007A
:100680003C3C0000000000000000000000000000F2
:10069000000000000000000000000000000000005A
:1006A0003C3C0000000000000000000000000000D2
:1006B000000000000000000000000000000000003A
:1006C0003C3C0000000000000000000000000000B2
:1006D000000000000000000000000000000000001A
:1006E0003C3C000000000000000000000000000092
:1006F00000000000000000000000000000000000FA
:100700003C3C000000000000000000000000000071
:1007100000000000000000000000000000000000D9
:100720003C3C000000000000000000000000000051
:1007300000000000000000000000000000000000B9
:100740003C3C000000000000000000000000000031
:100750000000000000000000000000000000000099
:100760003C3C000000000000000000000000000011
:100770000000000000000000000000000000000079
:100780003C3C0000000000000000000000000000F1
:100790000000000000000000000000000000000059
:1007A0003C3C0000000000000000000000000000D1
:1007B0000000000000000000000000000000000039
:1007C0003C3C0000000000000000000000000000B1
:1007D0000000000000000000000000000000000019
:1007E0003C3C000000000000000000000000000091
:1007F00000000000000000000000000000000000F9
:100800003C3C000000000000000000000000000070
:1008100000000000000000000000000000000000D8
:100820003C3C000000000000000000000000000050
:1008300000000000000000000000000000000000B8
:100840003C3C000000000000000000000000000030
:100850000000000000000000000000000000000098
:100860003C3C000000000000000000000000000010
:100870000000000000000000000000000000000078
:100880003C3C0000000000000000000000000000F0
:100890000000000000000000000000000000000058
:1008A0003C3C0000000000000000000000000000D0
:1008B0000000000000000000000000000000000038
:1008C0003C3C0000000000000000000000000000B0
:1008D0000000000000000000000000000000000018
:1008E0003C3C000000000000000000000000000090
:1008F00000000000000000000000000000000000F8
:100900003C3C00000000000000000000000000006F
:1009100000000000000000000000000000000000D7
:100920003C3C00000000000000000000000000004F
:1009300000000000000000000000000000000000B7
:100940003C3C00000000000000000000000000002F
:100950000000000000000000000000000000000097
:100960003C3C00000000000000000000000000000F
:100970000000000000000000000000000000000077
:100980003C3C7C3C1CAC000000000000000000006F
:100990000000000000000000000000000000000057
:1009A0003C3C0000000000000000000000000000CF
:1009B0000000000000000000000000000000000037
:1009C0003C3C0000000000000000000000000000AF
:1009D0000000000000000000000000000000000017
:1009E0003C3C00000000000000000000000000008F
:1009F00000000000000000000000000000000000F7
:100A00003C3C00000000000000000000000000006E
:100A100000000000000000000000000000000000D6
:100A20003C3C00000000000000000000000000004E
:100A300000000000000000000000000000000000B6
:100A40003C3C00000000000000000000000000002E
:100A50000000000000000000000000000000000096
:100A60003C3C00000000000000000000000000000E
:100A70000000000000000000000000000000000076
:100A80003C3C0000000000000000000000000000EE
:100A90000000000000000000000000000000000056
:100AA0003C3C0000000000000000000000000000CE
:100AB0000000000000000000000000000000000036
:100AC0003C3C0000000000000000000000000000AE
:100AD0000000000000000000000000000000000016
:100AE0003C3C00000000000000000000000000008E
:100AF00000000000000000000000000000000000F6
:100B00003C3C00000000000000000000000000006D
:100B100000000000000000000000000000000000D5
:100B20003C3C00000000000000000000000000004D
:100B300000000000000000000000000000000000B5
:100B40003C3C00000000000000000000000000002D
:100B50000000000000000000000000000000000095
:100B60003C3C00000000000000000000000000000D
:100B70000000000000000000000000000000000075
:100B80003C3C0000000000000000000000000000ED
:100B90000000000000000000000000000000000055
:100BA0003C3C0000000000000000000000000000CD
:100BB0000000000000000000000000000000000035
:100BC0003C3C0000000000000000000000000000AD
:100BD0000000000000000000000000000000000015
:100BE0003C3C00000000000000000000000000008D
:100BF00000000000000000000000000000000000F5
:100C00003C3C00000000000000000000000000006C
:100C100000000000000000000000000000000000D4
:100C20003C3C00000000000000000000000000004C
:100C300000000000000000000000000000000000B4
:100C40003C3C00000000000000000000000000002C
:100C50000000000000000000000000000000000094
:100C60003C3C00000000000000000000000000000C
:100C70000000000000000000000000000000000074
:100C80003C3C0000000000000000000000000000EC
:100C90000000000000000000000000000000000054
:100CA0003C3C0000000000000000000000000000CC
:100CB0000000000000000000000000000000000034
:100CC0003C3C0000000000000000000000000000AC
:100CD0000000000000000000000000000000000014
:100CE0003C3C00000000000000000000000000008C
:100CF00000000000000000000000000000000000F4
:100D00003C3C00000000000000000000000000006B
:100D100000000000000000000000000000000000D3
:100D20003C3C7CBC3C0000000000000000000000D7
:100D300000000000000000000000000000000000B3
:100D40003C3C00000000000000000000000000002B
:100D50000000000000000000000000000000000093
:100D60003C3C00000000000000000000000000000B
:100D70000000000000000000000000000000000073
:100D80003C3C0000000000000000000000000000EB
:100D90000000000000000000000000000000000053
:100DA0003C3C0000000000000000000000000000CB
:100DB0000000000000000000000000000000000033
:100DC0003C3C0000000000000000000000000000AB
:100DD0000000000000000000000000000000000013
:100DE0003C3C00000000000000000000000000008B
:100DF00000000000000000000000000000000000F3
:100E00003C3C00000000000000000000000000006A
:100E100000000000000000000000000000000000D2
:100E20003C3C00000000000000000000000000004A
:100E300000000000000000000000000000000000B2
:100E40003C3C00000000000000000000000000002A
:100E50000000000000000000000000000000000092
:100E60003C3C00000000000000000000000000000A
:100E70000000000000000000000000000000000072
:100E80003C3C0000000000000000000000000000EA
:100E90000000000000000000000000000000000052
:100EA0003C3C0000000000000000000000000000CA
:100EB0000000000000000000000000000000000032
:100EC0003C3C0000000000000000000000000000AA
:100ED0000000000000000000000000000000000012
:100EE0003C3C00000000000000000000000000008A
:100EF00000000000000000000000000000000000F2
:100F00003C3C000000000000000000000000000069
:100F100000000000000000000000000000000000D1
:100F20003C3C000000000000000000000000000049
:100F300000000000000000000000000000000000B1
:100F40003C3C000000000000000000000000000029
:100F50000000000000000000000000000000000091
:100F60003C3C000000000000000000000000000009
:100F70000000000000000000000000000000000071
:100F80003C3C0000000000000000000000000000E9
:100F90000000000000000000000000000000000051
:100FA0003C3C0000000000000000000000000000C9
:100FB0000000000000000000000000000000000031
:100FC0003C3C0000000000000000000000000000A9
:100FD0000000000000000000000000000000000011
:100FE0003C3C000000000000000000000000000089
:100FF00000000000000000000000000000000000F1
:101000003C3C000000000000000000000000000068
:1010100000000000000000000000000000000000D0
:101020003C3C000000000000000000000000000048
:1010300000000000000000000000000000000000B0
:101040003C3C000000000000000000000000000028
:101050000000000000000000000000000000000090
:101060003C3C000000000000000000000000000008
:101070000000000000000000000000000000000070
:101080003C3C0000000000000000000000000000E8
:101090000000000000000000000000000000000050
:1010A0003C3C0000000000000000000000000000C8
:1010B0000000000000000000000000000000000030
:1010C0003C3C0000000000000000000000000000A8
:1010D0000000000000000000000000000000000010
:1010E0003C3C000000000000000000000000000088
:1010F00000000000000000000000000000000000F0
:101100003C3C000000000000000000000000000067
:1011100000000000000000000000000000000000CF
:101120003C3C000000000000000000000000000047
:1011300000000000000000000000000000000000AF
:101140003C3C000000000000000000000000000027
:10115000000000000000000000000000000000008F
:101160003C3C000000000000000000000000000007
:10117000000000000000000000000000000000006F
:101180003C3C0000000000000000000000000000E7
:10119000000000000000000000000000000000004F
:1011A0003C3C3E3C3D3000000000000000000000E0
:1011B000000000000000000000000000000000002F
:1011C0003C3C0000000000000000000000000000A7
:1011D000000000000000000000000000000000000F
:1011E0003C3C000000000000000000000000000087
:1011F00000000000000000000000000000000000EF
:101200003C3C000000000000000000000000000066
:1012100000000000000000000000000000000000CE
:101220003C3C000000000000000000000000000046
:1012300000000000000000000000000000000000AE
:101240003C3C000000000000000000000000000026
:10125000000000000000000000000000000000008E
:101260003C3C000000000000000000000000000006
:10127000000000000000000000000000000000006E
:101280003C3C0000000000000000000000000000E6
:10129000000000000000000000000000000000004E
:1012A0003C3C0000000000000000000000000000C6
:1012B000000000000000000000000000000000002E
:1012C0003C3C0000000000000000000000000000A6
:1012D000000000000000000000000000000000000E
:1012E0003C3C000000000000000000000000000086
:1012F00000000000000000000000000000000000EE
:101300003C3C000000000000000000000000000065
:1013100000000000000000000000000000000000CD
:101320003C3C000000000000000000000000000045
:1013300000000000000000000000000000000000AD
:101340003C3C000000000000000000000000000025
:10135000000000000000000000000000000000008D
:101360003C3C000000000000000000000000000005
:10137000000000000000000000000000000000006D
:101380003C3C0000000000000000000000000000E5
:10139000000000000000000000000000000000004D
:1013A0003C3C0000000000000000000000000000C5
:1013B000000000000000000000000000000000002D
:1013C0003C3C0000000000000000000000000000A5
:1013D000000000000000000000000000000000000D
:1013E0003C3C000000000000000000000000000085
:1013F00000000000000000000000000000000000ED
:101400003C3C000000000000000000000000000064
:1014100000000000000000000000000000000000CC
:101420003C3C000000000000000000000000000044
:1014300000000000000000000000000000000000AC
:101440003C3C000000000000000000000000000024
:10145000000000000000000000000000000000008C
:101460003C3C000000000000000000000000000004
:10147000000000000000000000000000000000006C
:101480003C3C0000000000000000000000000000E4
:10149000000000000000000000000000000000004C
:1014A0003C3C0000000000000000000000000000C4
:1014B000000000000000000000000000000000002C
:1014C0003C3C0000000000000000000000000000A4
:1014D000000000000000000000000000000000000C
:1014E0003C3C000000000000000000000000000084
:1014F00000000000000000000000000000000000EC
:101500003C3C000000000000000000000000000063
:1015100000000000000000000000000000000000CB
:101520003C3C3C3C000000000000000000000000CB
:1015300000000000000000000000000000000000AB
:101540003C3C000000000000000000000000000023
:10155000000000000000000000000000000000008B
:101560003C3C000000000000000000000000000003
:10157000000000000000000000000000000000006B
:101580003C3C0000000000000000000000000000E3
:10159000000000000000000000000000000000004B
:1015A0003C3C3E3C3D3800000000000000000000D4
:1015B000000000000000000000000000000000002B
:1015C0003C3C0000000000000000000000000000A3
:1015D000000000000000000000000000000000000B
:1015E0003C3C000000000000000000000000000083
:1015F00000000000000000000000000000000000EB
:101600003C3C000000000000000000000000000062
:1016100000000000000000000000000000000000CA
:101620003C3C000000000000000000000000000042
:1016300000000000000000000000000000000000AA
:101640003C3C000000000000000000000000000022
:10165000000000000000000000000000000000008A
:101660003C3C000000000000000000000000000002
:10167000000000000000000000000000000000006A
:101680003C3C0000000000000000000000000000E2
:10169000000000000000000000000000000000004A
:1016A0003C3C0000000000000000000000000000C2
:1016B000000000000000000000000000000000002A
:1016C0003C3C0000000000000000000000000000A2
:1016D000000000000000000000000000000000000A
:1016E0003C3C000000000000000000000000000082
:1016F00000000000000000000000000000000000EA
:101700003C3C000000000000000000000000000061
:1017100000000000000000000000000000000000C9
:101720003C3C000000000000000000000000000041
:1017300000000000000000000000000000000000A9
:101740003C3C000000000000000000000000000021
:101750000000000000000000000000000000000089
:101760003C3C000000000000000000000000000001
:101770000000000000000000000000000000000069
:101780003C3C0000000000000000000000000000E1
:101790000000000000000000000000000000000049
:1017A0003C3C0000000000000000000000000000C1
:1017B0000000000000000000000000000000000029
:1017C0003C3C0000000000000000000000000000A1
:1017D0000000000000000000000000000000000009
:1017E0003C3C000000000000000000000000000081
:1017F00000000000000000000000000000000000E9
:101800003C3C000000000000000000000000000060
:1018100000000000000000000000000000000000C8
:101820003C3C000000000000000000000000000040
:1018300000000000000000000000000000000000A8
:101840003C3C000000000000000000000000000020
:101850000000000000000000000000000000000088
:101860003C3C000000000000000000000000000000
:101870000000000000000000000000000000000068
:101880003C3C0000000000000000000000000000E0
:101890000000000000000000000000000000000048
:1018A0003C3C0000000000000000000000000000C0
:1018B0000000000000000000000000000000000028
:1018C0003C3C0000000000000000000000000000A0
:1018D0000000000000000000000000000000000008
:1018E0003C3C000000000000000000000000000080
:1018F00000000000000000000000000000000000E8
:101900003C3C00000000000000000000000000005F
:1019100000000000000000000000000000000000C7
:101920003C3C7C3C00000000000000000000000087
:1019300000000000000000000000000000000000A7
:101940003C3C00000000000000000000000000001F
:101950000000000000000000000000000000000087
:101960003C3C0000000000000000000000000000FF
:101970000000000000000000000000000000000067
:101980003C3C0000000000000000000000000000DF
:101990000000000000000000000000000000000047
:1019A0003C3C0000000000000000000000000000BF
:1019B0000000000000000000000000000000000027
:1019C0003C3C00000000000000000000000000009F
:1019D0000000000000000000000000000000000007
:1019E0003C3C00000000000000000000000000007F
:1019F00000000000000000000000000000000000E7
:101A00003C3C00000000000000000000000000005E
:101A100000000000000000000000000000000000C6
:101A20003C3C00000000000000000000000000003E
:101A300000000000000000000000000000000000A6
:101A40003C3C00000000000000000000000000001E
:101A50000000000000000000000000000000000086
:101A60003C3C0000000000000000000000000000FE
:101A70000000000000000000000000000000000066
:101A80003C3C0000000000000000000000000000DE
:101A90000000000000000000000000000000000046
:101AA0003C3C0000000000000000000000000000BE
:101AB0000000000000000000000000000000000026
:101AC0003C3C00000000000000000000000000009E
:101AD0000000000000000000000000000000000006
:101AE0003C3C00000000000000000000000000007E
:101AF00000000000000000000000000000000000E6
:101B00003C3C00000000000000000000000000005D
:101B100000000000000000000000000000000000C5
:101B20003C3C00000000000000000000000000003D
:101B300000000000000000000000000000000000A5
:101B40003C3C00000000000000000000000000001D
:101B50000000000000000000000000000000000085
:101B60003C3C0000000000000000000000000000FD
:101B70000000000000000000000000000000000065
:101B80003C3C0000000000000000000000000000DD
:101B90000000000000000000000000000000000045
:101BA0003C3C0000000000000000000000000000BD
:101BB0000000000000000000000000000000000025
:101BC0003C3C00000000000000000000000000009D
:101BD0000000000000000000000000000000000005
:101BE0003C3C00000000000000000000000000007D
:101BF00000000000000000000000000000000000E5
:101C00003C3C00000000000000000000000000005C
:101C100000000000000000000000000000000000C4
:101C20003C3C00000000000000000000000000003C
:101C300000000000000000000000000000000000A4
:101C40003C3C00000000000000000000000000001C
:101C50000000000000000000000000000000000084
:101C60003C3C0000000000000000000000000000FC
:101C70000000000000000000000000000000000064
:101C80003C3C0000000000000000000000000000DC
:101C90000000000000000000000000000000000044
:101CA0003C3C0000000000000000000000000000BC
:101CB0000000000000000000000000000000000024
:101CC0003C3C00000000000000000000000000009C
:101CD0000000000000000000000000000000000004
:101CE0003C3C00000000000000000000000000007C
:101CF00000000000000000000000000000000000E4
:101D00003C3C00000000000000000000000000005B
:101D100000000000000000000000000000000000C3
:101D20003C3C00000000000000000000000000003B
:101D300000000000000000000000000000000000A3
:101D40003C3C00000000000000000000000000001B
:101D50000000000000000000000000000000000083
:101D60003C3C0000000000000000000000000000FB
:101D70000000000000000000000000000000000063
:101D80003C3C0000000000000000000000000000DB
:101D90000000000000000000000000000000000043
:101DA0003C3C0000000000000000000000000000BB
:101DB0000000000000000000000000000000000023
:101DC0003C3C00000000000000000000000000009B
:101DD0000000000000000000000000000000000003
:101DE0003C3C00000000000000000000000000007B
:101DF00000000000000000000000000000000000E3
:101E00003C3C7C3C1CAC00000000000000000000DA
:101E100000000000000000000000000000000000C2
:101E20003C3C00000000000000000000000000003A
:101E300000000000000000000000000000000000A2
:101E40003C3C00000000000000000000000000001A
:101E50000000000000000000000000000000000082
:101E60003C3C0000000000000000000000000000FA
:101E70000000000000000000000000000000000062
:101E80003C3C0000000000000000000000000000DA
:101E90000000000000000000000000000000000042
:101EA0003C3C0000000000000000000000000000BA
:101EB0000000000000000000000000000000000022
:101EC0003C3C00000000000000000000000000009A
:101ED0000000000000000000000000000000000002
:101EE0003C3C00000000000000000000000000007A
:101EF00000000000000000000000000000000000E2
:101F00003C3C000000000000000000000000000059
:101F100000000000000000000000000000000000C1
:101F20003C3C000000000000000000000000000039
:101F300000000000000000000000000000000000A1
:101F40003C3C000000000000000000000000000019
:101F50000000000000000000000000000000000081
:101F60003C3C0000000000000000000000000000F9
:101F70000000000000000000000000000000000061
:101F80003C3C0000000000000000000000000000D9
:101F90000000000000000000000000000000000041
:101FA0003C3C0000000000000000000000000000B9
:101FB0000000000000000000000000000000000021
:101FC0003C3C3C3C00000000000000000000000021
:101FD0000000000000000000000000000000000001
:101FE0003C3C3C000000000000000000000000003D
:101FF00000000000000000000000000000000000E1
:00000001FF
