:1000000001C1010101010101010111011101010100
:1000100001010101010101010101010101010101D0
:1000200001010101010101010101010101010101C0
:1000300001010101010101010101010101010101B0
:1000400001010101010101010101010101010101A0
:100050000101010101010101010101010101010190
:100060000101010101010101010101010101010180
:100070000101010101010101010101010101010170
:100080000101010101010101010101010101010160
:100090000101010101010101010101010101010150
:1000A0000101010101010101010101010101010140
:1000B0000101010101010101010101010101010130
:1000C0000101010101010101010101010101010120
:1000D0000101010101010101010101010101010110
:1000E0000101010101010101010101010101010100
:1000F00001010101010101010101010101010101F0
:1001000001010101010101010101010101010101DF
:1001100001010101010101010101010101010101CF
:1001200001010101010101010101010101010101BF
:1001300001010101010101010101010101010101AF
:100140000101091501010101010101010101010183
:10015000010101010101010101010101010101018F
:10016000010101010101010101010101010101017F
:10017000010101010101010101010101010101016F
:10018000010101010101010101010101010101015F
:10019000010101010101010101010101010101014F
:1001A000010101010101010101010101010101013F
:1001B000010101010101010101010101010101012F
:1001C000010101010101010101010101010101011F
:1001D000010101010101010101010101010101010F
:1001E00001010101010101010101010101010101FF
:1001F00001010101010101010101010101010101EF
:10020000010161010101010101010101010101017E
:1002100001010101010101010101010101010101CE
:1002200001010101010101010101010101010101BE
:1002300001010101010101010101010101010101AE
:10024000010101010101010101010101010101019E
:10025000010101010101010101010101010101018E
:10026000010101010101010101010101010101017E
:10027000010101010101010101010101010101016E
:10028000010101010101010101010101010101015E
:10029000010101010101010101010101010101014E
:1002A000010101010101010101010101010101013E
:1002B000010101010101010101010101010101012E
:1002C000010101010101010101010101010101011E
:1002D000010101010101010101010101010101010E
:1002E00001010101010101010101010101010101FE
:1002F00001010101010101010101010101010101EE
:1003000001010001010101010101010101010101DE
:1003100001010101010101010101010101010101CD
:1003200001010101010101010101010101010101BD
:1003300001010101010101010101010101010101AD
:10034000010101010101010101010101010101019D
:1005200001010101150101010101010101010101A7
:1005300001010101010101010101010101010101AB
:10054000010101010101010101010101010101019B
:10055000010101010101010101010101010101018B
:10056000010101010101010101010101010101017B
:10057000010101010101010101010101010101016B
:10058000010101010101010101010101010101015B
:10059000010101010101010101010101010101014B
:1005A000010101010101010101010101010101013B
:1005B000010101010101010101010101010101012B
:1005C000010101010101010101010101010101011B
:1005D000010101010101010101010101010101010B
:1005E00001010101010101010101010101010101FB
:1005F00001010101010101010101010101010101EB
:10060000010161010101010101010101010101017A
:1006100001010101010101010101010101010101CA
:1006200001010101010101010101010101010101BA
:1006300001010101010101010101010101010101AA
:10064000010101010101010101010101010101019A
:10065000010101010101010101010101010101018A
:10066000010101010101010101010101010101017A
:10067000010101010101010101010101010101016A
:10068000010101010101010101010101010101015A
:10069000010101010101010101010101010101014A
:1006A000010101010101010101010101010101013A
:1006B000010101010101010101010101010101012A
:1006C000010101010101010101010101010101011A
:1006D000010101010101010101010101010101010A
:1006E00001010101010101010101010101010101FA
:1006F00001010101010101010101010101010101EA
:100700000101E101010101010101010101010101F9
:1007100001010101010101010101010101010101C9
:1007200001010101010101010101010101010101B9
:1007300001010101010101010101010101010101A9
:100740000101010101010101010101010101010199
:100750000101010101010101010101010101010189
:100760000101010101010101010101010101010179
:100770000101010101010101010101010101010169
:100780000101010101010101010101010101010159
:100790000101010101010101010101010101010149
:1007A0000101010101010101010101010101010139
:1007B0000101010101010101010101010101010129
:1007C0000101010101010101010101010101010119
:1007D0000101010101010101010101010101010109
:1007E00001010101010101010101010101010101F9
:1007F00001010101010101010101010101010101E9
:100800000101010101010101AD010101010101012C
:1008100001010101010101010101010101010101C8
:1008200001010101010101010101010101010101B8
:1008300001010101010101010101010101010101A8
:100840000101010101010101010101010101010198
:100850000101010101010101010101010101010188
:100860000101010101010101010101010101010178
:100870000101010101010101010101010101010168
:100880000101010101010101010101010101010158
:100890000101010101010101010101010101010148
:1008A0000101010101010101010101010101010138
:1008B0000101010101010101010101010101010128
:1008C0000101010101010101010101010101010118
:1008D0000101010101010101010101010101010108
:1008E00001010101010101010101010101010101F8
:1008F00001010101010101010101010101010101E8
:1009000001010101010101010101010101010101D7
:1009100001010101010101010101010101010101C7
:1009200001010101150101010101010101010101A3
:1009300001010101010101010101010101010101A7
:100940000101010101010101010101010101010197
:100950000101010101010101010101010101010187
:100960000101010101010101010101010101010177
:100D000001010105010101010101010101010101CF
:100D100001010101010101010101010101010101C3
:100D20000101210915010101010101010101010177
:100D30000915010101010101010101010101010187
:100D40000101010101010101010101010101010193
:100D50000101010101010101010101010101010183
:100D60000101010101010101010101010101010173
:100D70000101010101010101010101010101010163
:100D80000101010101010101010101010101010153
:100D90000101010101010101010101010101010143
:100DA00001010101012109150101010101010101F7
:100DB0000915010101010101010101010101010107
:100DC0000101010101010101010101010101010113
:100DD0000101010101010101010101010101010103
:100DE00001010101010101010101010101010101F3
:100DF00001010101010101010101010101010101E3
:1012000001012101010101010101010101010101AE
:1012100001010101010101010101010101010101BE
:1012200001010101010101010101010101010101AE
:10123000010101010101010101010101010101019E
:10124000010101010101010101010101010101018E
:10125000010101010101010101010101010101017E
:10126000010101010101010101010101010101016E
:10127000010101010101010101010101010101015E
:10128000010101010101010101010101010101014E
:10129000010101010101010101010101010101013E
:1012A000010101010101010101010101010101012E
:1012B000010101010101010101010101010101011E
:1012C000010101010101010101010101010101010E
:1012D00001010101010101010101010101010101FE
:1012E00001010101010101010101010101010101EE
:1012F00001010101010101010101010101010101DE
:1013000001010101010101010101010101010101CD
:1013100001010101010101010101010101010101BD
:1013200001010101010101010101010101010101AD
:10133000010101010101010101010101010101019D
:10134000010101010101010101010101010101018D
:10135000010101010101010101010101010101017D
:10136000010101010101010101010101010101016D
:10137000010101010101010101010101010101015D
:10138000010101010101010101010101010101014D
:10139000010101010101010101010101010101013D
:1013A000010101010103910101010101010101019B
:1013B000011101010101010101010101010101010D
:1013C000010101010101010101010101010101010D
:1013D00001010101010101010101010101010101FD
:1013E00001010101010101010101010101010101ED
:1013F00001010101010101010101010101010101DD
:1014000001010101010101010101010101010101CC
:1014100001010101010101010101010101010101BC
:1014200001010101010101010101010101010101AC
:10143000010101010101010101010101010101019C
:101440000101050101010101010101010101010188
:10145000010101010101010101010101010101017C
:101460000101010101050101010101010101010168
:10147000010101010101010101010101010101015C
:101480000101010101010105010101010101010148
:10149000010101010101010101010101010101013C
:1014A000010101010101010101010101010101012C
:1014B000010101010101010101010101010101011C
:1014C000010101010101010101010101010101010C
:1014D00001010101010101010101010101010101FC
:1014E00001010101010101050101010101010101E8
:1014F00001010101010101010101010101010101DC
:1015000001010101010101010101010101010101CB
:1015100001010101010101010101010101010101BB
:1015200001010501010101010101010101010101A7
:10153000010101010101010101010101010101019B
:10154000010101010101010101010101010101018B
:10155000010101010101010101010101010101017B
:10156000010101010101010101010101010101016B
:10157000010101010101010101010101010101015B
:10158000010101010101010101010101010101014B
:10159000010101010101010101010101010101013B
:1015A0000101010101050101010101010101010127
:1015B000010101010101010101010101010101011B
:1015C000010101010101010101010101010101010B
:1015D00001010101010101010101010101010101FB
:1015E00001010101010101010101010101010101EB
:1015F00001010101010101010101010101010101DB
:1016000001012101010101010101010101010101AA
:1016100001010101010101010101010101010101BA
:1016200001010101010101010101010101010101AA
:10163000010101010101010101010101010101019A
:10164000010101010101010101010101010101018A
:10165000010101010101010101010101010101017A
:10166000010101010101010101010101010101016A
:10167000010101010101010101010101010101015A
:10168000010101010101010101010101010101014A
:10169000010101010101010101010101010101013A
:1016A000010101010101010101010101010101012A
:1016B000010101010101010101010101010101011A
:1016C000010101010101010101010101010101010A
:1016D00001010101010101010101010101010101FA
:1016E00001010101010101010101010101010101EA
:1016F00001010101010101010101010101010101DA
:1017000001010101010101010101010101010101C9
:1017100001010101010101010101010101010101B9
:1017200001010101010101010101010101010101A9
:101730000101010101010101010101010101010199
:101740000101010101010101010101010101010189
:101750000101010101010101010101010101010179
:101760000101010101010101010101010101010169
:101770000101010101010101010101010101010159
:101780000101010101010101010101010101010149
:101790000101010101010101010101010101010139
:1017A0000101010101039101050101010101010193
:1017B0000111050101010101010101010101010105
:1017C0000101010101010103910105010101010173
:1017D00001110501010101010101010101010101E5
:1017E00001010101010101010101010101010101E9
:1017F00001010101010101010101010101010101D9
:1018000001010101010101010101010101010101C8
:1018100001010101010101010101010101010101B8
:1018200001010101010101010101010101010101A8
:101830000101010101010101010101010101010198
:101840000101010101010101010101010101010188
:101850000101010101010101010101010101010178
:101860000101010101010101010101010101010168
:101870000101010101010101010101010101010158
:101880000101010101010101010101010101010148
:101890000101010101010101010101010101010138
:1018A0000101010101010101010101010101010128
:1018B0000101010101010101010101010101010118
:1018C0000101010101010101010101010101010108
:1018D00001010101010101010101010101010101F8
:1018E00001010101010101010101010101010101E8
:1018F00001010101010101010101010101010101D8
:1019000001010101010101010101010101010101C7
:1019100001010101010101010101010101010101B7
:101920000101010D0101010101010101010101019B
:101930000101010101010101010101010101010197
:101940000101011501010101010101010101010173
:101950000101010101010101010101010101010177
:101960000101010101010101010101010101010167
:101970000101010101010101010101010101010157
:101980000101010101010101010101010101010147
:101990000101010101010101010101010101010137
:1019A0000101010101010101010101010101010127
:1019B0000101010101010101010101010101010117
:1019C00001010101010115010101010101010101F3
:1019D00001010101010101010101010101010101F7
:1019E00001010101010101010101010101010101E7
:1019F00001010101010101010101010101010101D7
:101A00000101410101010101010101010101010186
:101A100001010101010101010101010101010101B6
:101A200001010101010101010101010101010101A6
:101A30000101010101010101010101010101010196
:101A40000101010101010101010101010101010186
:101A50000101010101010101010101010101010176
:101A60000101010101010101010101010101010166
:101A70000101010101010101010101010101010156
:101A80000101010101010101010101010101010146
:101A90000101010101010101010101010101010136
:101AA0000101010101010101010101010101010126
:101AB0000101010101010101010101010101010116
:101AC0000101010101010101010101010101010106
:101AD00001010101010101010101010101010101F6
:101AE00001010101010101010101010101010101E6
:101AF00001010101010101010101010101010101D6
:101B000001010101010101010101010101010101C5
:101B100001010101010101010101010101010101B5
:101B200001010101010101010101010101010101A5
:101B30000101010101010101010101010101010195
:101B40000101010101010101010101010101010185
:101B50000101010101010101010101010101010175
:101B60000101010101010101010101010101010165
:101B70000101010101010101010101010101010155
:101B80000101010101010101010101010101010145
:101B90000101010101010101010101010101010135
:101BA0000101010101010101010101010101010125
:101BB0000101010101010101010101010101010115
:101BC0000101010101010101010101010101010105
:101BD00001010101010101010101010101010101F5
:101BE00001010101010101010101010101010101E5
:101BF00001010101010101010101010101010101D5
:101C00000101010D010101010101010101010101B8
:101C100001010101010101010101010101010101B4
:101C200001010101010101010101010101010101A4
:101C30000101010101010101010101010101010194
:101C40000101010101010101010101010101010184
:101C50000101010101010101010101010101010174
:101C60000101010101010101010101010101010164
:101C70000101010101010101010101010101010154
:101C80000101010101010101010101010101010144
:101C90000101010101010101010101010101010134
:101CA0000101010101010101010101010101010124
:101CB0000101010101010101010101010101010114
:101CC0000101010101010101010101010101010104
:101CD00001010101010101010101010101010101F4
:101CE00001010101010101010101010101010101E4
:101CF00001010101010101010101010101010101D4
:101D000001010115010101010101010101010101AF
:101D100001010101010101010101010101010101B3
:101D20000101210915010101010101010101010167
:101D30000915010101010101010101010101010177
:101D40000101010101010101010101010101010183
:101D50000101010101010101010101010101010173
:101D60000101010101010101010101010101010163
:101D70000101010101010101010101010101010153
:101D80000101010101010101010101010101010143
:101D90000101010101010101010101010101010133
:101DA00001010101012109150101010101010101E7
:101DB00009150101010101010101010101010101F7
:101DC00001010101010115010101010101010101EF
:101DD00001010101010101010101010101010101F3
:101DE00001010101010101010101010101010101E3
:101DF00001010101010101010101010101010101D3
:101E00000101410101010101010101010101010182
:101E100001010101010101010101010101010101B2
:101E200001010101010101010101010101010101A2
:101E30000101010101010101010101010101010192
:101E40000101010101010101010101010101010182
:101E50000101010101010101010101010101010172
:101E60000101010101010101010101010101010162
:101E70000101010101010101010101010101010152
:101E80000101010101010101010101010101010142
:101E90000101010101010101010101010101010132
:101EA0000101010101010101010101010101010122
:101EB0000101010101010101010101010101010112
:101EC0000101010101010101010101010101010102
:101ED00001010101010101010101010101010101F2
:101EE00001010101010101010101010101010101E2
:101EF00001010101010101010101010101010101D2
:101F000001010101010101010101010101010101C1
:101F100001010101010101010101010101010101B1
:101F200001010101010101010101010101010101A1
:101F30000101010101010101010101010101010191
:101F40000101010101010101010101010101010181
:101F50000101010101010101010101010101010171
:101F60000101010101010101010101010101010161
:101F70000101010101010101010101010101010151
:101F80000101010101010101010101010101010141
:101F90000101010101010101010101010101010131
:101FA0000101010101010101010101010101010121
:101FB0000101010101010101010101010101010111
:101FC0000101010101010101010101010101010101
:101FD00001010101010101010101010101010101F1
:101FE00001010101010101010101010101010101E1
:101FF00001010101010101010101010101010101D1
:00000001FF
