:1000000000000000000000000008000800000000E0
:1000100000000000000000000000000000000000E0
:100020000000380000000000000000000000000098
:1000300000000000000000000000000000000000C0
:1000400000000400000000000000000000000000AC
:1000500000000000000000000000000000000000A0
:100060000000000000000000080100000000000087
:100070000000000000000000000000000000000080
:100080000000C00000100020000801000000000077
:100090002000000801000000000000000000000037
:1000A00000000000C0000010002000080100000057
:1000B0002000000801000000000000000000000017
:1000C00000003008010000000000000000000000F7
:1000D0000000000000000000000000000000000020
:1000E0000000000000000801000000000000000007
:1000F0000000000000000000000000000000000000
:1001000000000000000000000801000000000000E6
:1001100000000000000000000000000000000000DF
:10012000000028080100000000000000000000009E
:1001300000000000000000000000000000000000BF
:100140000000300801000000000000000000000076
:10015000000000000000000000000000000000009F
:100160000000000801000000000000000000000086
:10017000000000000000000000000000000000007F
:100180000000000000000801000000000000000066
:10019000000000000000000000000000000000005F
:1001A0000000000000000000080100000000000046
:1001B000000000000000000000000000000000003F
:1001C00000002808010000000000000000000000FE
:1001D000000000000000000000000000000000001F
:1001E00000003008010000000000000000000000D6
:1001F00000000000000000000000000000000000FF
:100200000000C0000020000000000000000000000E
:1002100000000000000000000000000000000000DE
:1002200000000000000008010000000000000000C5
:1002300000000000000000000000000000000000BE
:1002400000000000000000000801000000000000A5
:10025000000000000000000000000000000000009E
:10026000000028080100000000000000000000005D
:10027000000000000000000000000000000000007E
:100280000000300801000000000000000000000035
:10029000000000000000000000000000000000005E
:1002A0000000000800000000000000000000000046
:1002B000000000000000000000000000000000003E
:1002C0000000000000000800000000000000000026
:1002D000000000000000000000000000000000001E
:1002E0000000000000000000080000000000000006
:1002F00000000000000000000000000000000000FE
:1003000000000000000000000000000000000000ED
:1003100000000000000000000000000000000000DD
:100320000000C02000C0000020000000000000000D
:1003300000000000000000000000000000000000BD
:100340000000000000C0006000000000000000008D
:10035000600000000000000000000000000000003D
:10036000000000000000000000C0A000000000002D
:10037000A0000000000000000000000000000000DD
:100380000000020000180010020000000000000041
:10039000100002000000000000000000000000004B
:1003A000000003000010001803000000000000001F
:1003B0001800030000000000000000000000000022
:1003C00000000500001000280500000000000000EB
:1003D00028000500000000000000000000000000F0
:1003E00000000600001000300600000000000000C1
:1003F00028000600000000000000000000000000CF
:100400000000000000000000C0000020000000000C
:1004100000000000000000000000000000000000DC
:100420000000000000000000C02000C0000020000C
:1004300000000000000000000000000000000000BC
:100440000000C000000000000000000000000000EC
:100450002000C0000020000000000000000000009C
:100460000000C000000000000000000000000000CC
:100470002000C0000020000000000000000000007C
:100480000000C000000000000000000000000000AC
:100490002000C0000020000000000000000000005C
:1004A0000000C02000C0000020000000000000008C
:1004B000000000000000000000000000000000003C
:1004C0000000000000C0006000000000000000000C
:1004D00060000000000000000000000000000000BC
:1004E0000000C02000C0000020000000000000004C
:1004F00000000000000000000000000000000000FC
:1005000000002805000000000000000000000000BE
:1005100000000000000000000000000000000000DB
:1005200000000008010000000000000000000000C2
:1005300000000000000000000000000000000000BB
:100540000000C80061000000000000000000000082
:10055000610000000000000000000000000000003A
:100560000000F00066000000000000000000000035
:100570006600000000000000000000000000000015
:100580000000E8006500000000000000000000001E
:1005900065000000000000000000000000000000F6
:1005A0000000300600000000000000000000000015
:1005B000000000000000000000000000000000003B
:1005C00000002805000000000000000000000000FE
:1005D000000000000000000000000000000000001B
:1005E00000003006000000000000000000000000D5
:1005F00000000000000000000000000000000000FB
:100600000000C0000000000000000000000000002A
:1006100000002000000000000000000000000000BA
:1006200000000100001800080100000000000000A8
:1006300008000100000000000000000000000000B1
:100640000000000001000018000801000000000088
:100650000800010000000000000000000000000091
:100660000000000000050000000000000000000085
:10067000000000000000000000000000000000007A
:100680000000000000000005000000000000000065
:10069000000000000000000000000000000000005A
:1006A0000000000000060000000000000000000044
:1006B000000000000000000000000000000000003A
:1006C0000000000000000006000000000000000024
:1006D000000000000000000000000000000000001A
:1006E0000000000000030000000000000000000007
:1006F00000000000000000000000000000000000FA
:1007000000000000000000000000000000000000E9
:1007100000000000000000000000000000000000D9
:1007200000000000000000030000000000000000C6
:1007300000000000000000000000000000000000B9
:1007400000000000000000000000000000000000A9
:100750000000000000000000000000000000000099
:100760000000000000000000000000000000000089
:100770000000000000000000000000000000000079
:100780000000000000000000000000000000000069
:100790000000000000000000000000000000000059
:1007A0000000000000000000000000000000000049
:1007B0000000000000000000000000000000000039
:1007C0000000000000000000000000000000000029
:1007D0000000000000000000000000000000000019
:1007E0000000000000000000000000000000000009
:1007F00000000000000000000000000000000000F9
:1008000000000000000000000000000000000000E8
:1008100000000000000000000000000000000000D8
:1008200000000000000000070000000000000000C1
:1008300000000000000000000000000000000000B8
:1008400000000000000000080000000000000000A0
:100850000000000000000000000000000000000098
:100860000000000000280000000000000000000060
:100870000000000000000000000000000000000078
:100880000000000000000028000000000000000040
:100890000000000000000000000000000000000058
:1008A0000000000000300000000000000000000018
:1008B0000000000000000000000000000000000038
:1008C00000000000000000300000000000000000F8
:1008D0000000000000000000000000000000000018
:1008E00000000000001000000000000000000000F8
:1008F00000000000000000000000000000000000F8
:1009000000000800000000000000000000000000DF
:1009100000000000000000000000000000000000D7
:1009200000000008010000000000000000000000BE
:1009300000000000000000000000000000000000B7
:100940000000000000000010000000000000000097
:100950000000000000000000000000000000000097
:10096000000000000018000000000000000000006F
:100970000000000000000000000000000000000077
:100980000000C00000200000000000000000000087
:100990000000000000000000000000000000000057
:1009A0000000C02000C00000200000000000000087
:1009B0000000000000000000000000000000000037
:1009C000000000000000001800000000000000000F
:1009D0000000000000000000000000000000000017
:1009E00000001828000000000000000000000000C7
:1009F00000000000000000000000000000000000F7
:100A0000000018300000000000000000000000009E
:100A100000000000000000000000000000000000D6
:100A2000000028300000000000000000000000006E
:100A300000000000000000000000000000000000B6
:100A400000000000000000000000000000000000A6
:100A50000000000000000000000000000000000096
:100A60000000000000000000000000000000000086
:100A70000000000000000000000000000000000076
:100A800000000000000000C0006000000000000046
:100A900060000000000000000000000000000000F6
:100AA0000000000000000000000000C0A0000000E6
:100AB000A000000000000000000000000000000096
:100AC00000000D0000000000000000000000000019
:100AD0000000000000000000000000000000000016
:100AE00000000E00000000000000000000000000F8
:100AF00000000000000000000000000000000000F6
:100B000000000000000000000000000000000000E5
:100B100000000000000000000000000000000000D5
:100B2000000029000000000000000000000000009C
:100B300000000000000000000000000000000000B5
:100B40000000310000000000000000000000000074
:100B50000000000000000000000000000000000095
:100B6000000000000000000800010000000000007C
:100B70000000000000000000000000000000000075
:100B8000000000000008000000000000000000005D
:100B90000000000000000000000000000000000055
:100BA0000000082801000000000000000000000014
:100BB0000000000000000000000000000000000035
:100BC00000000830010000000000000000000000EC
:100BD0000000000000000000000000000000000015
:100BE0000000C0000010002008000100000000000C
:100BF00020000800010000000000000000000000CC
:100C000000000000000000000000000000000000E4
:100C100000000000000000000000000000000000D4
:100C200000000000C00000100020080001000000CB
:100C3000200008000100000000000000000000008B
:100C400000000000C00000100020080000000000AC
:100C5000200008000000000000000000000000006C
:100C60000000000000000000000000000000000084
:100C70000000000000000000000000000000000074
:100C80000000000000000000000000000000000064
:100C90000000000000000000000000000000000054
:100CA0000000000000000000000000000000000044
:100CB0000000000000000000000000000000000034
:100CC000000000000000000000C0A00000000000C4
:100CD000A000000000000000000000000000000074
:100CE0000000000000000000000000000000000004
:100CF00000000000000000000000000000000000F4
:100D000000000001000000000000000000000000E2
:100D100000000000000000000000000000000000D3
:100D200000000008010000000000000000000000BA
:100D300000000000000000000000000000000000B3
:100D40000000000800C8A100000000000000000032
:100D5000A1000000000000000000000000000000F2
:100D60000000003000F0A6000000000000000000BD
:100D7000A6000000000000000000000000000000CD
:100D80000000002800E8A5000000000000000000AE
:100D9000A5000000000000000000000000000000AE
:100DA000000000000000080100000000000000003A
:100DB0000000000000000000000000000000000033
:100DC0000000C00000180020080000000000000023
:100DD00020000800000000000000000000000000EB
:100DE00000002808010000000000000000000000D2
:100DF00000000000000000000000000000000000F3
:100E000000000000C00000180020080000000000E2
:100E100020000800000000000000000000000000AA
:100E200000000000001000000000000000000000B2
:100E300000000000000000000000000000000000B2
:100E40000000000000000010000000000000000092
:100E50000000000000000000000000000000000092
:100E60000000C0000018002010000000000000007A
:100E70002000100000000000000000000000000042
:100E800000000000C000001800201000000000005A
:100E90002000100000000000000000000000000022
:100EA000000000000018000000000000000000002A
:100EB0000000000000000000000000000000000032
:100EC000000000000000001800000000000000000A
:100ED0000000000000000000000000000000000012
:100EE0000000C000001000201800000000000000FA
:100EF00020001800000000000000000000000000BA
:100F000000000000000000000000000000000000E1
:100F100000000000000000000000000000000000D1
:100F200000000000C00000100020180000000000B9
:100F30002000180000000000000000000000000079
:100F40000000000000280000000000000000000079
:100F50000000000000000000000000000000000091
:100F60000000000000000028000000000000000059
:100F70000000000000000000000000000000000071
:100F80000000C00000100020280000000000000049
:100F90002000280000000000000000000000000009
:100FA00000000000C0000010002028000000000029
:100FB00020002800000000000000000000000000E9
:100FC0000000C00000180020280000000000000001
:100FD00020002800000000000000000000000000C9
:100FE00000000000C00000180020280000000000E1
:100FF00020002800000000000000000000000000A9
:1010000000000000003000000000000000000000B0
:1010100000000000000000000000000000000000D0
:101020000000000000000030000000000000000090
:1010300000000000000000000000000000000000B0
:101040000000C00000100020300000000000000080
:101050002000300000000000000000000000000040
:1010600000000000C0000010002030000000000060
:101070002000300000000000000000000000000020
:101080000000C00000180020300000000000000038
:101090002000300000000000000000000000000000
:1010A00000000000C0000018002030000000000018
:1010B00020003000000000000000000000000000E0
:1010C0000000C0000018002000080100000000001F
:1010D00020000008010000000000000000000000E7
:1010E00000000000C00000180020000801000000FF
:1010F00020000008010000000000000000000000C7
:101100000000C000001800200800010000000000DE
:1011100020000800010000000000000000000000A6
:1011200000000000C00000180020080001000000BE
:101130002000080001000000000000000000000086
:10114000000011000000000000000000000000008E
:10115000000000000000000000000000000000008F
:1011600000001E0000000000000000000000000061
:10117000000000000000000000000000000000006F
:10118000000033000000000000000000000000002C
:10119000000000000000000000000000000000004F
:1011A0000000000000080000000000000000000037
:1011B000000000000000000000000000000000002F
:1011C0000000000000000008000000000000000017
:1011D000000000000000000000000000000000000F
:1011E0000000C0000020C00000200000000000003F
:1011F00000000000000000000000000000000000EF
:101200000000C000002000000000000000000000FE
:1012100000000000000000000000000000000000CE
:101220000000C02000C000002000C02000C000005E
:10123000200000000000000000000000000000008E
:101240000000000000000000C0000020C0000020DE
:10125000000000000000000000000000000000008E
:101260000000000000000000C02000C000002000BE
:10127000C02000C0000020000000000000000000AE
:1012800000003010002801000000000000000000F5
:101290002800010000000000000000000000000025
:1012A0000000280000000000000000000000000016
:1012B000000000000000000000000000000000002E
:1012C00000003000000000000000000000000000EE
:1012D000000000000000000000000000000000000E
:1012E00000001000000000000000000000000000EE
:1012F00000000000000000000000000000000000EE
:1013000000001800000000000000000000000000C5
:1013100000000000000000000000000000000000CD
:1013200000000005000000000000000000000000B8
:1013300000000000000000000000000000000000AD
:101340000000000600000000000000000000000097
:10135000000000000000000000000000000000008D
:101360000000150000000000000000000000000068
:10137000000000000000000000000000000000006D
:1013800000002A0000000000000000000000000033
:10139000000000000000000000000000000000004D
:1013A0000000C00000100020080000000000000045
:1013B0002000080000000000000000000000000005
:1013C000000000020000000000000000000000001B
:1013D000000000000000000000000000000000000D
:1013E00000000003000000000000000000000000FA
:1013F00000000000000000000000000000000000ED
:1014000000000300000000000000000000000000D9
:1014100000000000000000000000000000000000CC
:10142000000030100028080000000000000000004C
:10143000280008000000000000000000000000007C
:10144000000002000000000000000000000000009A
:10145000000000000000000000000000000000008C
:10146000000000000002000000000000000000007A
:10147000000000000000000000000000000000006C
:10148000000000000000000200000000000000005A
:10149000000000000000000000000000000000004C
:1014A0000000050000000000000000000000000037
:1014B000000000000000000000000000000000002C
:1014C0000000060000000000000000000000000016
:1014D000000000000000000000000000000000000C
:1014E00000000000000000010000000000000000FB
:1014F00000000000000000000000000000000000EC
:101500000000000800C8A10000000000000000006A
:10151000A10000000000000000000000000000002A
:1015200000000100000000000000000000000000BA
:1015300000000000000000000000000000000000AB
:1015400000000A0000000000000000000000000091
:10155000000000000000000000000000000000008B
:1015600000000F000000000000000000000000006C
:10157000000000000000000000000000000000006B
:10158000000001000000000000000000000000005A
:10159000000000000000000000000000000000004B
:1015A000000000000001000000000000000000003A
:1015B000000000000000000000000000000000002B
:1015C0000000080000000000000000000000000013
:1015D000000000000000000000000000000000000B
:1015E0000000C800610000000000000000000000D2
:1015F000610000000000000000000000000000008A
:101600000000C0000000000000000000000000001A
:1016100000002000000000000000000000000000AA
:1016200000000000000000000000000000000000BA
:1016300000000000000000000000000000000000AA
:101640000000183010002801000000000000000019
:101650002800010000000000000000000000000061
:1016600000001830100028080000000000000000F2
:10167000280008000000000000000000000000003A
:101680000000C00000100020080000000000000062
:101690002000080000000000000000000000000022
:1016A0000000C0000018002008000000000000003A
:1016B0002000080000000000000000000000000002
:1016C00000000000C0000010002008000000000022
:1016D00020000800000000000000000000000000E2
:1016E00000000000C00000180020080000000000FA
:1016F00020000800000000000000000000000000C2
:1017000000000000000000000000000000000000D9
:1017100000000000000000000000000000000000C9
:1017200000000000000000000000000000000000B9
:1017300000000000000000000000000000000000A9
:101740000000190000000000000000000000000080
:101750000000000000000000000000000000000089
:1017600000000B000000000000000000000000006E
:101770000000000000000000000000000000000069
:101780000000000000000000000000000000000059
:101790000000000000000000000000000000000049
:1017A000000001000010000801000000000000001F
:1017B0000800010000000000000000000000000020
:1017C00000000000010000100008010000000000FF
:1017D0000800010000000000000000000000000000
:1017E00000000000000000000000000000000000F9
:1017F00000000000000000000000000000000000E9
:1018000000000000000000000000000000000000D8
:1018100000000000000000000000000000000000C8
:1018200000000000000000000000000000000000B8
:1018300000000000000000000000000000000000A8
:101840000000000000000000000000000000000098
:101850000000000000000000000000000000000088
:101860000000000000000000000000000000000078
:101870000000000000000000000000000000000068
:101880000000000000000000000000000000000058
:101890000000000000000000000000000000000048
:1018A0000000000000000000000000000000000038
:1018B0000000000000000000000000000000000028
:1018C0000000000000000000000000000000000018
:1018D0000000000000000000000000000000000008
:1018E00000000000000000000000000000000000F8
:1018F00000000000000000000000000000000000E8
:1019000000001803000000000000000000000000BC
:1019100000000000000000000000000000000000C7
:1019200000000800000000000000000000000000AF
:1019300000000000000000000000000000000000A7
:101940000000100200000000000000000000000085
:101950000000000000000000000000000000000087
:10196000000018030000000000000000000000005C
:101970000000000000000000000000000000000067
:101980000000000000000000000000000000000057
:101990000000000000000000000000000000000047
:1019A0000000000000000000000000000000000037
:1019B0000000000000000000000000000000000027
:1019C0000000000000000000000000000000000017
:1019D0000000000000000000000000000000000007
:1019E00000000000000000000000000000000000F7
:1019F00000000000000000000000000000000000E7
:101A00000000C000002000000000000000000000F6
:101A100000000000000000000000000000000000C6
:101A200000000000000000000000000000000000B6
:101A300000000000000000000000000000000000A6
:101A40000000000000000000000000000000000096
:101A50000000000000000000000000000000000086
:101A60000000000000000000000000000000000076
:101A70000000000000000000000000000000000066
:101A80000000000000000000000000000000000056
:101A90000000000000000000000000000000000046
:101AA0000000000000000000000000000000000036
:101AB0000000000000000000000000000000000026
:101AC0000000000000000000000000000000000016
:101AD0000000000000000000000000000000000006
:101AE00000000000000000000000000000000000F6
:101AF00000000000000000000000000000000000E6
:101B000000000000000000000000000000000000D5
:101B100000000000000000000000000000000000C5
:101B200000000000000000000000000000000000B5
:101B300000000000000000000000000000000000A5
:101B40000000000000000000000000000000000095
:101B50000000000000000000000000000000000085
:101B60000000000000000000000000000000000075
:101B70000000000000000000000000000000000065
:101B80000000000000000000000000000000000055
:101B90000000000000000000000000000000000045
:101BA0000000000000000000000000000000000035
:101BB0000000000000000000000000000000000025
:101BC0000000000000000000000000000000000015
:101BD0000000000000000000000000000000000005
:101BE00000000000000000000000000000000000F5
:101BF00000000000000000000000000000000000E5
:101C000000001000000000000000000000000000C4
:101C100000000000000000000000000000000000C4
:101C2000000010180000000000000000000000008C
:101C300000000000000000000000000000000000A4
:101C40000000103000000000000000000000000054
:101C50000000000000000000000000000000000084
:101C6000000018000000000000000000000000005C
:101C70000000000000000000000000000000000064
:101C80000000300000000000000000000000000024
:101C90000000000000000000000000000000000044
:101CA000000028000000000000000000000000000C
:101CB0000000000000000000000000000000000024
:101CC0000000000000000000000000000000000014
:101CD0000000000000000000000000000000000004
:101CE00000000000000000000000000000000000F4
:101CF00000000000000000000000000000000000E4
:101D000000001002000000000000000000000000C1
:101D100000000000000000000000000000000000C3
:101D200000000800010000000000000000000000AA
:101D300000000000000000000000000000000000A3
:101D40000000000000000000000000000000000093
:101D50000000000000000000000000000000000083
:101D6000000010280000000000000000000000003B
:101D70000000000000000000000000000000000063
:101D80000000000000000000000000000000000053
:101D90000000000000000000000000000000000043
:101DA000000000000008000100000000000000002A
:101DB0000000000000000000000000000000000023
:101DC0000000000000000000000000000000000013
:101DD0000000000000000000000000000000000003
:101DE00000001030020000000000000000000000B1
:101DF00000000000000000000000000000000000E3
:101E00000000C00000000000000000000000000012
:101E100000002000000000000000000000000000A2
:101E200000000000000000000000000000000000B2
:101E300000000000000000000000000000000000A2
:101E40000000000000000000000000000000000092
:101E50000000000000000000000000000000000082
:101E60000000000000000000000000000000000072
:101E70000000000000000000000000000000000062
:101E80000000000000000000000000000000000052
:101E90000000000000000000000000000000000042
:101EA0000000000000000000000000000000000032
:101EB0000000000000000000000000000000000022
:101EC0000000000000000000000000000000000012
:101ED0000000000000000000000000000000000002
:101EE00000000000000000000000000000000000F2
:101EF00000000000000000000000000000000000E2
:101F000000000000000000000000000000000000D1
:101F100000000000000000000000000000000000C1
:101F200000000000000000000000000000000000B1
:101F300000000000000000000000000000000000A1
:101F40000000000000000000000000000000000091
:101F50000000000000000000000000000000000081
:101F60000000000000000000000000000000000071
:101F70000000000000000000000000000000000061
:101F80000000000000000000000000000000000051
:101F90000000000000000000000000000000000041
:101FA000000000000007000000000000000000002A
:101FB0000000000000000000000000000000000021
:101FC000000007000000000000000000000000000A
:101FD0000000000000000000000000000000000001
:101FE00000000000000000000000000000000000F1
:101FF00000000000000000000000000000000000E1
:00000001FF
