:1000000065656500000000000000000000000000C1
:1000100000000000000000000000000000000000E0
:100020006565000000000000000000000000000006
:1000300000000000000000000000000000000000C0
:1000400065650000000000000000000000000000E6
:1000500000000000000000000000000000000000A0
:1000600065650000000000000000000000000000C6
:100070000000000000000000000000000000000080
:1000800065650000000000000000000000000000A6
:100090000000000000000000000000000000000060
:1000A0006565000000000000000000000000000086
:1000B0000000000000000000000000000000000040
:1000C0006565000000000000000000000000000066
:1000D0000000000000000000000000000000000020
:1000E0006565000000000000000000000000000046
:1000F0000000000000000000000000000000000000
:100100006565000000000000000000000000000025
:1001100000000000000000000000000000000000DF
:100120006565000000000000000000000000000005
:1001300000000000000000000000000000000000BF
:1001400065650000000000000000000000000000E5
:10015000000000000000000000000000000000009F
:1001600065650000000000000000000000000000C5
:10017000000000000000000000000000000000007F
:1001800065650000000000000000000000000000A5
:10019000000000000000000000000000000000005F
:1001A0006565000000000000000000000000000085
:1001B000000000000000000000000000000000003F
:1001C0006565000000000000000000000000000065
:1001D000000000000000000000000000000000001F
:1001E0006565000000000000000000000000000045
:1001F00000000000000000000000000000000000FF
:100200006565000000000000000000000000000024
:1002100000000000000000000000000000000000DE
:100220006565000000000000000000000000000004
:1002300000000000000000000000000000000000BE
:1002400065650000000000000000000000000000E4
:10025000000000000000000000000000000000009E
:1002600065650000000000000000000000000000C4
:10027000000000000000000000000000000000007E
:1002800065650000000000000000000000000000A4
:10029000000000000000000000000000000000005E
:1002A0006565000000000000000000000000000084
:1002B000000000000000000000000000000000003E
:1002C0006565000000000000000000000000000064
:1002D000000000000000000000000000000000001E
:1002E0006565000000000000000000000000000044
:1002F00000000000000000000000000000000000FE
:100300006565000000000000000000000000000023
:1003100000000000000000000000000000000000DD
:100320006565000000000000000000000000000003
:1003300000000000000000000000000000000000BD
:1003400065650000000000000000000000000000E3
:10035000000000000000000000000000000000009D
:1003600065650000000000000000000000000000C3
:10037000000000000000000000000000000000007D
:1003800065650000000000000000000000000000A3
:10039000000000000000000000000000000000005D
:1003A0006565000000000000000000000000000083
:1003B000000000000000000000000000000000003D
:1003C0006565000000000000000000000000000063
:1003D000000000000000000000000000000000001D
:1003E0006565000000000000000000000000000043
:1003F00000000000000000000000000000000000FD
:100400006565000000000000000000000000000022
:1004100000000000000000000000000000000000DC
:100420006565000000000000000000000000000002
:1004300000000000000000000000000000000000BC
:1004400065650000000000000000000000000000E2
:10045000000000000000000000000000000000009C
:1004600065650000000000000000000000000000C2
:10047000000000000000000000000000000000007C
:1004800065650000000000000000000000000000A2
:10049000000000000000000000000000000000005C
:1004A0006565000000000000000000000000000082
:1004B000000000000000000000000000000000003C
:1004C0006565000000000000000000000000000062
:1004D000000000000000000000000000000000001C
:1004E0006565000000000000000000000000000042
:1004F00000000000000000000000000000000000FC
:100500006565000000000000000000000000000021
:1005100000000000000000000000000000000000DB
:100520006565000000000000000000000000000001
:1005300000000000000000000000000000000000BB
:1005400065650000000000000000000000000000E1
:10055000000000000000000000000000000000009B
:1005600065650000000000000000000000000000C1
:10057000000000000000000000000000000000007B
:1005800065650000000000000000000000000000A1
:10059000000000000000000000000000000000005B
:1005A0006565000000000000000000000000000081
:1005B000000000000000000000000000000000003B
:1005C0006565000000000000000000000000000061
:1005D000000000000000000000000000000000001B
:1005E0006565000000000000000000000000000041
:1005F00000000000000000000000000000000000FB
:100600006565000000000000000000000000000020
:1006100000000000000000000000000000000000DA
:100620006565000000000000000000000000000000
:1006300000000000000000000000000000000000BA
:1006400065650000000000000000000000000000E0
:10065000000000000000000000000000000000009A
:1006600065650000000000000000000000000000C0
:10067000000000000000000000000000000000007A
:1006800065650000000000000000000000000000A0
:10069000000000000000000000000000000000005A
:1006A0006565000000000000000000000000000080
:1006B000000000000000000000000000000000003A
:1006C0006565000000000000000000000000000060
:1006D000000000000000000000000000000000001A
:1006E0006565000000000000000000000000000040
:1006F00000000000000000000000000000000000FA
:10070000656500000000000000000000000000001F
:1007100000000000000000000000000000000000D9
:1007200065650000000000000000000000000000FF
:1007300000000000000000000000000000000000B9
:1007400065650000000000000000000000000000DF
:100750000000000000000000000000000000000099
:1007600065650000000000000000000000000000BF
:100770000000000000000000000000000000000079
:10078000656500000000000000000000000000009F
:100790000000000000000000000000000000000059
:1007A000656500000000000000000000000000007F
:1007B0000000000000000000000000000000000039
:1007C000656500000000000000000000000000005F
:1007D0000000000000000000000000000000000019
:1007E000656500000000000000000000000000003F
:1007F00000000000000000000000000000000000F9
:10080000656500000000000000000000000000001E
:1008100000000000000000000000000000000000D8
:1008200065650000000000000000000000000000FE
:1008300000000000000000000000000000000000B8
:1008400065650000000000000000000000000000DE
:100850000000000000000000000000000000000098
:1008600065650000000000000000000000000000BE
:100870000000000000000000000000000000000078
:10088000656500000000000000000000000000009E
:100890000000000000000000000000000000000058
:1008A000656500000000000000000000000000007E
:1008B0000000000000000000000000000000000038
:1008C000656500000000000000000000000000005E
:1008D0000000000000000000000000000000000018
:1008E000656500000000000000000000000000003E
:1008F00000000000000000000000000000000000F8
:10090000656500000000000000000000000000001D
:1009100000000000000000000000000000000000D7
:1009200065650000000000000000000000000000FD
:1009300000000000000000000000000000000000B7
:1009400065650000000000000000000000000000DD
:100950000000000000000000000000000000000097
:1009600065650000000000000000000000000000BD
:100970000000000000000000000000000000000077
:100980006565656565650000000000000000000009
:100990000000000000000000000000000000000057
:1009A000656500000000000000000000000000007D
:1009B0000000000000000000000000000000000037
:1009C000656500000000000000000000000000005D
:1009D0000000000000000000000000000000000017
:1009E000656500000000000000000000000000003D
:1009F00000000000000000000000000000000000F7
:100A0000656500000000000000000000000000001C
:100A100000000000000000000000000000000000D6
:100A200065650000000000000000000000000000FC
:100A300000000000000000000000000000000000B6
:100A400065650000000000000000000000000000DC
:100A50000000000000000000000000000000000096
:100A600065650000000000000000000000000000BC
:100A70000000000000000000000000000000000076
:100A8000656500000000000000000000000000009C
:100A90000000000000000000000000000000000056
:100AA000656500000000000000000000000000007C
:100AB0000000000000000000000000000000000036
:100AC000656500000000000000000000000000005C
:100AD0000000000000000000000000000000000016
:100AE000656500000000000000000000000000003C
:100AF00000000000000000000000000000000000F6
:100B0000656500000000000000000000000000001B
:100B100000000000000000000000000000000000D5
:100B200065650000000000000000000000000000FB
:100B300000000000000000000000000000000000B5
:100B400065650000000000000000000000000000DB
:100B50000000000000000000000000000000000095
:100B600065650000000000000000000000000000BB
:100B70000000000000000000000000000000000075
:100B8000656500000000000000000000000000009B
:100B90000000000000000000000000000000000055
:100BA000656500000000000000000000000000007B
:100BB0000000000000000000000000000000000035
:100BC000656500000000000000000000000000005B
:100BD0000000000000000000000000000000000015
:100BE000656500000000000000000000000000003B
:100BF00000000000000000000000000000000000F5
:100C0000656500000000000000000000000000001A
:100C100000000000000000000000000000000000D4
:100C200065650000000000000000000000000000FA
:100C300000000000000000000000000000000000B4
:100C400065650000000000000000000000000000DA
:100C50000000000000000000000000000000000094
:100C600065650000000000000000000000000000BA
:100C70000000000000000000000000000000000074
:100C8000656500000000000000000000000000009A
:100C90000000000000000000000000000000000054
:100CA000656500000000000000000000000000007A
:100CB0000000000000000000000000000000000034
:100CC000656500000000000000000000000000005A
:100CD0000000000000000000000000000000000014
:100CE000656500000000000000000000000000003A
:100CF00000000000000000000000000000000000F4
:100D00006565000000000000000000000000000019
:100D100000000000000000000000000000000000D3
:100D200065656565650000000000000000000000CA
:100D300000000000000000000000000000000000B3
:100D400065650000000000000000000000000000D9
:100D50000000000000000000000000000000000093
:100D600065650000000000000000000000000000B9
:100D70000000000000000000000000000000000073
:100D80006565000000000000000000000000000099
:100D90000000000000000000000000000000000053
:100DA0006565000000000000000000000000000079
:100DB0000000000000000000000000000000000033
:100DC0006565000000000000000000000000000059
:100DD0000000000000000000000000000000000013
:100DE0006565000000000000000000000000000039
:100DF00000000000000000000000000000000000F3
:100E00006565000000000000000000000000000018
:100E100000000000000000000000000000000000D2
:100E200065650000000000000000000000000000F8
:100E300000000000000000000000000000000000B2
:100E400065650000000000000000000000000000D8
:100E50000000000000000000000000000000000092
:100E600065650000000000000000000000000000B8
:100E70000000000000000000000000000000000072
:100E80006565000000000000000000000000000098
:100E90000000000000000000000000000000000052
:100EA0006565000000000000000000000000000078
:100EB0000000000000000000000000000000000032
:100EC0006565000000000000000000000000000058
:100ED0000000000000000000000000000000000012
:100EE0006565000000000000000000000000000038
:100EF00000000000000000000000000000000000F2
:100F00006565000000000000000000000000000017
:100F100000000000000000000000000000000000D1
:100F200065650000000000000000000000000000F7
:100F300000000000000000000000000000000000B1
:100F400065650000000000000000000000000000D7
:100F50000000000000000000000000000000000091
:100F600065650000000000000000000000000000B7
:100F70000000000000000000000000000000000071
:100F80006565000000000000000000000000000097
:100F90000000000000000000000000000000000051
:100FA0006565000000000000000000000000000077
:100FB0000000000000000000000000000000000031
:100FC0006565000000000000000000000000000057
:100FD0000000000000000000000000000000000011
:100FE0006565000000000000000000000000000037
:100FF00000000000000000000000000000000000F1
:101000006565000000000000000000000000000016
:1010100000000000000000000000000000000000D0
:1010200065650000000000000000000000000000F6
:1010300000000000000000000000000000000000B0
:1010400065650000000000000000000000000000D6
:101050000000000000000000000000000000000090
:1010600065650000000000000000000000000000B6
:101070000000000000000000000000000000000070
:101080006565000000000000000000000000000096
:101090000000000000000000000000000000000050
:1010A0006565000000000000000000000000000076
:1010B0000000000000000000000000000000000030
:1010C0006565000000000000000000000000000056
:1010D0000000000000000000000000000000000010
:1010E0006565000000000000000000000000000036
:1010F00000000000000000000000000000000000F0
:101100006565000000000000000000000000000015
:1011100000000000000000000000000000000000CF
:1011200065650000000000000000000000000000F5
:1011300000000000000000000000000000000000AF
:1011400065650000000000000000000000000000D5
:10115000000000000000000000000000000000008F
:1011600065650000000000000000000000000000B5
:10117000000000000000000000000000000000006F
:101180006565000000000000000000000000000095
:10119000000000000000000000000000000000004F
:1011A00065656565656500000000000000000000E1
:1011B000000000000000000000000000000000002F
:1011C0006565000000000000000000000000000055
:1011D000000000000000000000000000000000000F
:1011E0006565000000000000000000000000000035
:1011F00000000000000000000000000000000000EF
:101200006565000000000000000000000000000014
:1012100000000000000000000000000000000000CE
:1012200065650000000000000000000000000000F4
:1012300000000000000000000000000000000000AE
:1012400065650000000000000000000000000000D4
:10125000000000000000000000000000000000008E
:1012600065650000000000000000000000000000B4
:10127000000000000000000000000000000000006E
:101280006565000000000000000000000000000094
:10129000000000000000000000000000000000004E
:1012A0006565000000000000000000000000000074
:1012B000000000000000000000000000000000002E
:1012C0006565000000000000000000000000000054
:1012D000000000000000000000000000000000000E
:1012E0006565000000000000000000000000000034
:1012F00000000000000000000000000000000000EE
:101300006565000000000000000000000000000013
:1013100000000000000000000000000000000000CD
:1013200065650000000000000000000000000000F3
:1013300000000000000000000000000000000000AD
:1013400065650000000000000000000000000000D3
:10135000000000000000000000000000000000008D
:1013600065650000000000000000000000000000B3
:10137000000000000000000000000000000000006D
:101380006565000000000000000000000000000093
:10139000000000000000000000000000000000004D
:1013A0006565000000000000000000000000000073
:1013B000000000000000000000000000000000002D
:1013C0006565000000000000000000000000000053
:1013D000000000000000000000000000000000000D
:1013E0006565000000000000000000000000000033
:1013F00000000000000000000000000000000000ED
:101400006565000000000000000000000000000012
:1014100000000000000000000000000000000000CC
:1014200065650000000000000000000000000000F2
:1014300000000000000000000000000000000000AC
:1014400065650000000000000000000000000000D2
:10145000000000000000000000000000000000008C
:1014600065650000000000000000000000000000B2
:10147000000000000000000000000000000000006C
:101480006565000000000000000000000000000092
:10149000000000000000000000000000000000004C
:1014A0006565000000000000000000000000000072
:1014B000000000000000000000000000000000002C
:1014C0006565000000000000000000000000000052
:1014D000000000000000000000000000000000000C
:1014E0006565000000000000000000000000000032
:1014F00000000000000000000000000000000000EC
:101500006565000000000000000000000000000011
:1015100000000000000000000000000000000000CB
:101520006565656500000000000000000000000027
:1015300000000000000000000000000000000000AB
:1015400065650000000000000000000000000000D1
:10155000000000000000000000000000000000008B
:1015600065650000000000000000000000000000B1
:10157000000000000000000000000000000000006B
:101580006565000000000000000000000000000091
:10159000000000000000000000000000000000004B
:1015A00065656565656500000000000000000000DD
:1015B000000000000000000000000000000000002B
:1015C0006565000000000000000000000000000051
:1015D000000000000000000000000000000000000B
:1015E0006565000000000000000000000000000031
:1015F00000000000000000000000000000000000EB
:101600006565000000000000000000000000000010
:1016100000000000000000000000000000000000CA
:1016200065650000000000000000000000000000F0
:1016300000000000000000000000000000000000AA
:1016400065650000000000000000000000000000D0
:10165000000000000000000000000000000000008A
:1016600065650000000000000000000000000000B0
:10167000000000000000000000000000000000006A
:101680006565000000000000000000000000000090
:10169000000000000000000000000000000000004A
:1016A0006565000000000000000000000000000070
:1016B000000000000000000000000000000000002A
:1016C0006565000000000000000000000000000050
:1016D000000000000000000000000000000000000A
:1016E0006565000000000000000000000000000030
:1016F00000000000000000000000000000000000EA
:10170000656500000000000000000000000000000F
:1017100000000000000000000000000000000000C9
:1017200065650000000000000000000000000000EF
:1017300000000000000000000000000000000000A9
:1017400065650000000000000000000000000000CF
:101750000000000000000000000000000000000089
:1017600065650000000000000000000000000000AF
:101770000000000000000000000000000000000069
:10178000656500000000000000000000000000008F
:101790000000000000000000000000000000000049
:1017A000656500000000000000000000000000006F
:1017B0000000000000000000000000000000000029
:1017C000656500000000000000000000000000004F
:1017D0000000000000000000000000000000000009
:1017E000656500000000000000000000000000002F
:1017F00000000000000000000000000000000000E9
:10180000656500000000000000000000000000000E
:1018100000000000000000000000000000000000C8
:1018200065650000000000000000000000000000EE
:1018300000000000000000000000000000000000A8
:1018400065650000000000000000000000000000CE
:101850000000000000000000000000000000000088
:1018600065650000000000000000000000000000AE
:101870000000000000000000000000000000000068
:10188000656500000000000000000000000000008E
:101890000000000000000000000000000000000048
:1018A000656500000000000000000000000000006E
:1018B0000000000000000000000000000000000028
:1018C000656500000000000000000000000000004E
:1018D0000000000000000000000000000000000008
:1018E000656500000000000000000000000000002E
:1018F00000000000000000000000000000000000E8
:10190000656500000000000000000000000000000D
:1019100000000000000000000000000000000000C7
:101920006565657500000000000000000000000013
:1019300000000000000000000000000000000000A7
:1019400065650000000000000000000000000000CD
:101950000000000000000000000000000000000087
:1019600065650000000000000000000000000000AD
:101970000000000000000000000000000000000067
:10198000656500000000000000000000000000008D
:101990000000000000000000000000000000000047
:1019A000656500000000000000000000000000006D
:1019B0000000000000000000000000000000000027
:1019C000656500000000000000000000000000004D
:1019D0000000000000000000000000000000000007
:1019E000656500000000000000000000000000002D
:1019F00000000000000000000000000000000000E7
:101A0000656500000000000000000000000000000C
:101A100000000000000000000000000000000000C6
:101A200065650000000000000000000000000000EC
:101A300000000000000000000000000000000000A6
:101A400065650000000000000000000000000000CC
:101A50000000000000000000000000000000000086
:101A600065650000000000000000000000000000AC
:101A70000000000000000000000000000000000066
:101A8000656500000000000000000000000000008C
:101A90000000000000000000000000000000000046
:101AA000656500000000000000000000000000006C
:101AB0000000000000000000000000000000000026
:101AC000656500000000000000000000000000004C
:101AD0000000000000000000000000000000000006
:101AE000656500000000000000000000000000002C
:101AF00000000000000000000000000000000000E6
:101B0000656500000000000000000000000000000B
:101B100000000000000000000000000000000000C5
:101B200065650000000000000000000000000000EB
:101B300000000000000000000000000000000000A5
:101B400065650000000000000000000000000000CB
:101B50000000000000000000000000000000000085
:101B600065650000000000000000000000000000AB
:101B70000000000000000000000000000000000065
:101B8000656500000000000000000000000000008B
:101B90000000000000000000000000000000000045
:101BA000656500000000000000000000000000006B
:101BB0000000000000000000000000000000000025
:101BC000656500000000000000000000000000004B
:101BD0000000000000000000000000000000000005
:101BE000656500000000000000000000000000002B
:101BF00000000000000000000000000000000000E5
:101C0000656500000000000000000000000000000A
:101C100000000000000000000000000000000000C4
:101C200065650000000000000000000000000000EA
:101C300000000000000000000000000000000000A4
:101C400065650000000000000000000000000000CA
:101C50000000000000000000000000000000000084
:101C600065650000000000000000000000000000AA
:101C70000000000000000000000000000000000064
:101C8000656500000000000000000000000000008A
:101C90000000000000000000000000000000000044
:101CA000656500000000000000000000000000006A
:101CB0000000000000000000000000000000000024
:101CC000656500000000000000000000000000004A
:101CD0000000000000000000000000000000000004
:101CE000656500000000000000000000000000002A
:101CF00000000000000000000000000000000000E4
:101D00006565000000000000000000000000000009
:101D100000000000000000000000000000000000C3
:101D200065650000000000000000000000000000E9
:101D300000000000000000000000000000000000A3
:101D400065650000000000000000000000000000C9
:101D50000000000000000000000000000000000083
:101D600065650000000000000000000000000000A9
:101D70000000000000000000000000000000000063
:101D80006565000000000000000000000000000089
:101D90000000000000000000000000000000000043
:101DA0006565000000000000000000000000000069
:101DB0000000000000000000000000000000000023
:101DC0006565000000000000000000000000000049
:101DD0000000000000000000000000000000000003
:101DE0006565000000000000000000000000000029
:101DF00000000000000000000000000000000000E3
:101E000065654525656500000000000000000000D4
:101E100000000000000000000000000000000000C2
:101E200065650000000000000000000000000000E8
:101E300000000000000000000000000000000000A2
:101E400065650000000000000000000000000000C8
:101E50000000000000000000000000000000000082
:101E600065650000000000000000000000000000A8
:101E70000000000000000000000000000000000062
:101E80006565000000000000000000000000000088
:101E90000000000000000000000000000000000042
:101EA0006565000000000000000000000000000068
:101EB0000000000000000000000000000000000022
:101EC0006565000000000000000000000000000048
:101ED0000000000000000000000000000000000002
:101EE0006565000000000000000000000000000028
:101EF00000000000000000000000000000000000E2
:101F00006565000000000000000000000000000007
:101F100000000000000000000000000000000000C1
:101F200065650000000000000000000000000000E7
:101F300000000000000000000000000000000000A1
:101F400065650000000000000000000000000000C7
:101F50000000000000000000000000000000000081
:101F600065650000000000000000000000000000A7
:101F70000000000000000000000000000000000061
:101F80006565000000000000000000000000000087
:101F90000000000000000000000000000000000041
:101FA0006565000000000000000000000000000067
:101FB0000000000000000000000000000000000021
:101FC000656565650000000000000000000000007D
:101FD0000000000000000000000000000000000001
:101FE00065656500000000000000000000000000C2
:101FF00000000000000000000000000000000000E1
:00000001FF
