:1000000075757575757575757575757575757575A0
:100010007575757575757575757575757575757590
:100020007575757575757575757575757575757580
:100030007575757575757575757575757575757570
:100400007575457925797575757575757575757514
:10041000757575757575757575757575757575758C
:10042000757575757575757575757575757575757C
:10043000757575757575757575757575757575756C
:10044000757575757575757575757575757575755C
:10070000757574757575757575757575757575759A
:100710007575757575757575757575757575757589
:100720007575757575757575757575757575757579
:100730007575757575757575757575757575757569
:100740007575757575757575757575757575757559
:100750007575757575757575757575757575757549
:100760007575757575757575757575757575757539
:100770007575757575757575757575757575757529
:100780007575757575757575757575757575757519
:100790007575757575757575757575757575757509
:1007A00075757575757575757575757575757575F9
:1007B00075757575757575757575757575757575E9
:1007C00075757575757575757575757575757575D9
:1007D00075757575757575757575757575757575C9
:1007E00075757575757575757575757575757575B9
:1007F00075757575757575757575757575757575A9
:100800007575757575757575757575757575757598
:100810007575757575757575757575757575757588
:100820007575757575757575757575757575757578
:100830007575757575757575757575757575757568
:100840007575757575757575757575757575757558
:100850007575757575757575757575757575757548
:100860007575757575757575757575757575757538
:100870007575757575757575757575757575757528
:100880007575757575757575757575757575757518
:100890007575757575757575757575757575757508
:1008A00075757575757575757575757575757575F8
:1008B00075757575757575757575757575757575E8
:1008C00075757575757575757575757575757575D8
:1008D00075757575757575757575757575757575C8
:1008E00075757575757575757575757575757575B8
:1008F00075757575757575757575757575757575A8
:1009000075756579757575757575757575757575A3
:100910007575757575757575757575757575757587
:100920007575757575757575757575757575757577
:100930007575757575757575757575757575757567
:100940007575757575757575757575757575757557
:100C000075757165716575757575757575757575BC
:100C10007575757575757575757575757575757584
:100C20007575757575757575757575757575757574
:100C30007575757575757575757575757575757564
:100C40007575757575757575757575757575757554
:100C50007575757575757575757575757575757544
:100C60007575757575757575757575757575757534
:100C70007575757575757575757575757575757524
:100C80007575757575757575757575757575757514
:100C90007575757575757575757575757575757504
:100CA00075757575757575757575757575757575F4
:100CB00075757575757575757575757575757575E4
:100CC00075757575757575757575757575757575D4
:100CD00075757575757575757575757575757575C4
:100CE00075757575757575757575757575757575B4
:100CF00075757575757575757575757575757575A4
:100D000075757165757575757575757575757575A7
:100D10007575757575757575757575757575757583
:100D20007575757575757575757575757575757573
:100D30007575757575757575757575757575757563
:100D40007575757575757575757575757575757553
:101520007575777575757575757575757575757569
:10153000757575757575757575757575757575755B
:10154000757575757575757575757575757575754B
:10155000757575757575757575757575757575753B
:10156000757575757575757575757575757575752B
:10157000757575757575757575757575757575751B
:10158000757575757575757575757575757575750B
:1015900075757575757575757575757575757575FB
:1015A00075757775757575757575757575757575E9
:1015B00075757575757575757575757575757575DB
:1015C00075757575757575757575757575757575CB
:1015D00075757575757575757575757575757575BB
:1015E00075757575757575757575757575757575AB
:101920007575757775757575757575757575757565
:101930007575757575757575757575757575757557
:101940007575757575757575757575757575757547
:101950007575757575757575757575757575757537
:101960007575757575757575757575757575757527
:00000001FF
