:10000000F5657945792579757575757575757575A4
:100010007575757575757575757575757575757590
:10002000F575757575757575757575757575757500
:100030007575757575757575757575757575757570
:10004000F5757575757575757575757575757575E0
:100050007575757575757575757575757575757550
:10006000F5757575757575757575757575757575C0
:100070007575757575757575757575757575757530
:10008000F5757575757575757575757575757575A0
:100090007575757575757575757575757575757510
:1000A000F575757575757575757575757575757580
:1000B00075757575757575757575757575757575F0
:1000C000F575757575757575757575757575757560
:1000D00075757575757575757575757575757575D0
:1000E000F575757575757575757575757575757540
:1000F00075757575757575757575757575757575B0
:10010000F57575757575757575757575757575751F
:10011000757575757575757575757575757575758F
:10012000F5757575757575757575757575757575FF
:10013000757575757575757575757575757575756F
:10014000F5757575757575757575757575757575DF
:10015000757575757575757575757575757575754F
:10016000F5757575757575757575757575757575BF
:10017000757575757575757575757575757575752F
:10018000F57575757575757575757575757575759F
:10019000757575757575757575757575757575750F
:1001A000F57575757575757575757575757575757F
:1001B00075757575757575757575757575757575EF
:1001C000F57575757575757575757575757575755F
:1001D00075757575757575757575757575757575CF
:1001E000F57575757575757575757575757575753F
:1001F00075757575757575757575757575757575AF
:10020000F57575757575757575757575757575751E
:10021000757575757575757575757575757575758E
:10022000F5757575757575757575757575757575FE
:10023000757575757575757575757575757575756E
:10024000F5757575757575757575757575757575DE
:10025000757575757575757575757575757575754E
:10026000F5757575757575757575757575757575BE
:10027000757575757575757575757575757575752E
:10028000F57575757575757575757575757575759E
:10029000757575757575757575757575757575750E
:1002A000F57575757575757575757575757575757E
:1002B00075757575757575757575757575757575EE
:1002C000F57575757575757575757575757575755E
:1002D00075757575757575757575757575757575CE
:1002E000F57575757575757575757575757575753E
:1002F00075757575757575757575757575757575AE
:10030000F57575757575757575757575757575751D
:10031000757575757575757575757575757575758D
:10032000F5757575757575757575757575757575FD
:10033000757575757575757575757575757575756D
:10034000F5757575757575757575757575757575DD
:10035000757575757575757575757575757575754D
:10036000F5757575757575757575757575757575BD
:10037000757575757575757575757575757575752D
:10038000F57575757575757575757575757575759D
:10039000757575757575757575757575757575750D
:1003A000F57575757575757575757575757575757D
:1003B00075757575757575757575757575757575ED
:1003C000F57575757575757575757575757575755D
:1003D00075757575757575757575757575757575CD
:1003E000F57575757575757575757575757575753D
:1003F00075757575757575757575757575757575AD
:10040000F575457925797575757575757575757594
:10041000757575757575757575757575757575758C
:10042000F5757575757575757575757575757575FC
:10043000757575757575757575757575757575756C
:10044000F5757575757575757575757575757575DC
:10045000757575757575757575757575757575754C
:10046000F5757575757575757575757575757575BC
:10047000757575757575757575757575757575752C
:10048000F57575757575757575757575757575759C
:10049000757575757575757575757575757575750C
:1004A000F57575757575757575757575757575757C
:1004B00075757575757575757575757575757575EC
:1004C000F57575757575757575757575757575755C
:1004D00075757575757575757575757575757575CC
:1004E000F57575757575757575757575757575753C
:1004F00075757575757575757575757575757575AC
:10050000F57575757575757575757575757575751B
:10051000757575757575757575757575757575758B
:10052000F5757575757575757575757575757575FB
:10053000757575757575757575757575757575756B
:10054000F5757575757575757575757575757575DB
:10055000757575757575757575757575757575754B
:10056000F5757575757575757575757575757575BB
:10057000757575757575757575757575757575752B
:10058000F57575757575757575757575757575759B
:10059000757575757575757575757575757575750B
:1005A000F57575757575757575757575757575757B
:1005B00075757575757575757575757575757575EB
:1005C000F57575757575757575757575757575755B
:1005D00075757575757575757575757575757575CB
:1005E000F57575757575757575757575757575753B
:1005F00075757575757575757575757575757575AB
:10060000F57575757575757575757575757575751A
:10061000757575757575757575757575757575758A
:10062000F5757575757575757575757575757575FA
:10063000757575757575757575757575757575756A
:10064000F5757575757575757575757575757575DA
:10065000757575757575757575757575757575754A
:10066000F5757575757575757575757575757575BA
:10067000757575757575757575757575757575752A
:10068000F57575757575757575757575757575759A
:10069000757575757575757575757575757575750A
:1006A000F57575757575757575757575757575757A
:1006B00075757575757575757575757575757575EA
:1006C000F57575757575757575757575757575755A
:1006D00075757575757575757575757575757575CA
:1006E000F57575757575757575757575757575753A
:1006F00075757575757575757575757575757575AA
:10070000F57574757575757575757575757575751A
:100710007575757575757575757575757575757589
:10072000F5757575757575757575757575757575F9
:100730007575757575757575757575757575757569
:10074000F5757575757575757575757575757575D9
:100750007575757575757575757575757575757549
:10076000F5757575757575757575757575757575B9
:100770007575757575757575757575757575757529
:10078000F575757575757575757575757575757599
:100790007575757575757575757575757575757509
:1007A000F575757575757575757575757575757579
:1007B00075757575757575757575757575757575E9
:1007C000F575757575757575757575757575757559
:1007D00075757575757575757575757575757575C9
:1007E000F575757575757575757575757575757539
:1007F00075757575757575757575757575757575A9
:10080000F575716571657167757575757575757552
:100810007575757575757575757575757575757588
:10082000F5757575757575757575757575757575F8
:100830007575757575757575757575757575757568
:10084000F5757575757575757575757575757575D8
:100850007575757575757575757575757575757548
:10086000F5757575757575757575757575757575B8
:100870007575757575757575757575757575757528
:10088000F575757575757575757575757575757598
:100890007575757575757575757575757575757508
:1008A000F575757575757575757575757575757578
:1008B00075757575757575757575757575757575E8
:1008C000F575757575757575757575757575757558
:1008D00075757575757575757575757575757575C8
:1008E000F575757575757575757575757575757538
:1008F00075757575757575757575757575757575A8
:10090000F575657975757575757575757575757523
:100910007575757575757575757575757575757587
:10092000F5757575777575757575757575757575F5
:100930007575757575757575757575757575757567
:10094000F5757575757575757575757575757575D7
:100950007575757575757575757575757575757547
:10096000F5757575757575757575757575757575B7
:100970007575757575757575757575757575757527
:10098000F575757575757575757575757575757597
:100990007575757575757575757575757575757507
:1009A000F575757575757575757575757575757577
:1009B00075757575757575757575757575757575E7
:1009C000F575757575757575757575757575757557
:1009D00075757575757575757575757575757575C7
:1009E000F575757575757575757575757575757537
:1009F00075757575757575757575757575757575A7
:100A0000F575757575757575757575757575757516
:100A10007575757575757575757575757575757586
:100A2000F5757575757575757575757575757575F6
:100A30007575757575757575757575757575757566
:100A4000F5757575757575757575757575757575D6
:100A50007575757575757575757575757575757546
:100A6000F5757575757575757575757575757575B6
:100A70007575757575757575757575757575757526
:100A8000F575757575757575757575757575757596
:100A90007575757575757575757575757575757506
:100AA000F575757575757575757575757575757576
:100AB00075757575757575757575757575757575E6
:100AC000F575757575757575757575757575757556
:100AD00075757575757575757575757575757575C6
:100AE000F575757575757575757575757575757536
:100AF00075757575757575757575757575757575A6
:100B0000F575757575757575757575757575757515
:100B10007575757575757575757575757575757585
:100B2000F5757575757575757575757575757575F5
:100B30007575757575757575757575757575757565
:100B4000F5757575757575757575757575757575D5
:100B50007575757575757575757575757575757545
:100B6000F5757575757575757575757575757575B5
:100B70007575757575757575757575757575757525
:100B8000F575757575757575757575757575757595
:100B90007575757575757575757575757575757505
:100BA000F575757575757575757575757575757575
:100BB00075757575757575757575757575757575E5
:100BC000F575757575757575757575757575757555
:100BD00075757575757575757575757575757575C5
:100BE000F575757575757575757575757575757535
:100BF00075757575757575757575757575757575A5
:100C0000F57571657165757575757575757575753C
:100C10007575757575757575757575757575757584
:100C2000F5757575757575757575757575757575F4
:100C30007575757575757575757575757575757564
:100C4000F5757575757575757575757575757575D4
:100C50007575757575757575757575757575757544
:100C6000F5757575757575757575757575757575B4
:100C70007575757575757575757575757575757524
:100C8000F575757575757575757575757575757594
:100C90007575757575757575757575757575757504
:100CA000F575757575757575757575757575757574
:100CB00075757575757575757575757575757575E4
:100CC000F575757575757575757575757575757554
:100CD00075757575757575757575757575757575C4
:100CE000F575757575757575757575757575757534
:100CF00075757575757575757575757575757575A4
:100D0000F575716775757575757575757575757525
:100D10007575757575757575757575757575757583
:100D2000F5757575777575757575757575757575F1
:100D30007577757575757575757575757575757561
:100D4000F5757575757575757575757575757575D3
:100D50007575757575757575757575757575757543
:100D6000F5757575757575757575757575757575B3
:100D70007575757575757575757575757575757523
:100D8000F575757575757575757575757575757593
:100D90007575757575757575757575757575757503
:100DA000F575757575757577757575757575757571
:100DB00075777575757575757575757575757575E1
:100DC000F575757575757575757575757575757553
:100DD00075757575757575757575757575757575C3
:100DE000F575757575757575757575757575757533
:100DF00075757575757575757575757575757575A3
:100E0000F575757575757575757575757575757512
:100E10007575757575757575757575757575757582
:100E2000F5757575757575757575757575757575F2
:100E30007575757575757575757575757575757562
:100E4000F5757575757575757575757575757575D2
:100E50007575757575757575757575757575757542
:100E6000F5757575757575757575757575757575B2
:100E70007575757575757575757575757575757522
:100E8000F575757575757575757575757575757592
:100E90007575757575757575757575757575757502
:100EA000F575757575757575757575757575757572
:100EB00075757575757575757575757575757575E2
:100EC000F575757575757575757575757575757552
:100ED00075757575757575757575757575757575C2
:100EE000F575757575757575757575757575757532
:100EF00075757575757575757575757575757575A2
:100F0000F575757575757575757575757575757511
:100F10007575757575757575757575757575757581
:100F2000F5757575757575757575757575757575F1
:100F30007575757575757575757575757575757561
:100F4000F5757575757575757575757575757575D1
:100F50007575757575757575757575757575757541
:100F6000F5757575757575757575757575757575B1
:100F70007575757575757575757575757575757521
:100F8000F575757575757575757575757575757591
:100F90007575757575757575757575757575757501
:100FA000F575757575757575757575757575757571
:100FB00075757575757575757575757575757575E1
:100FC000F575757575757575757575757575757551
:100FD00075757575757575757575757575757575C1
:100FE000F575757575757575757575757575757531
:100FF00075757575757575757575757575757575A1
:10100000F575757575757575757575757575757510
:101010007575757575757575757575757575757580
:10102000F5757575757575757575757575757575F0
:101030007575757575757575757575757575757560
:10104000F5757575757575757575757575757575D0
:101050007575757575757575757575757575757540
:10106000F5757575757575757575757575757575B0
:101070007575757575757575757575757575757520
:10108000F575757575757575757575757575757590
:101090007575757575757575757575757575757500
:1010A000F575757575757575757575757575757570
:1010B00075757575757575757575757575757575E0
:1010C000F575757575757575757575757575757550
:1010D00075757575757575757575757575757575C0
:1010E000F575757575757575757575757575757530
:1010F00075757575757575757575757575757575A0
:10110000F57575757575757575757575757575750F
:10111000757575757575757575757575757575757F
:10112000F5757575757575757575757575757575EF
:10113000757575757575757575757575757575755F
:10114000F5757575757575757575757575757575CF
:10115000757575757575757575757575757575753F
:10116000F5757575757575757575757575757575AF
:10117000757575757575757575757575757575751F
:10118000F57575757575757575757575757575758F
:1011900075757575757575757575757575757575FF
:1011A000F57575757575757575757575757575756F
:1011B00075757575757575757575757575757575DF
:1011C000F57575757575757575757575757575754F
:1011D00075757575757575757575757575757575BF
:1011E000F57575757575757575757575757575752F
:1011F000757575757575757575757575757575759F
:10120000F57575757575757575757575757575750E
:10121000757575757575757575757575757575757E
:10122000F5757575757575757575757575757575EE
:10123000757575757575757575757575757575755E
:10124000F5757575757575757575757575757575CE
:10125000757575757575757575757575757575753E
:10126000F5757575757575757575757575757575AE
:10127000757575757575757575757575757575751E
:10128000F57575757575757575757575757575758E
:1012900075757575757575757575757575757575FE
:1012A000F57575757575757575757575757575756E
:1012B00075757575757575757575757575757575DE
:1012C000F57575757575757575757575757575754E
:1012D00075757575757575757575757575757575BE
:1012E000F57575757575757575757575757575752E
:1012F000757575757575757575757575757575759E
:10130000F57575757575757575757575757575750D
:10131000757575757575757575757575757575757D
:10132000F5757575757575757575757575757575ED
:10133000757575757575757575757575757575755D
:10134000F5757575757575757575757575757575CD
:10135000757575757575757575757575757575753D
:10136000F5757575757575757575757575757575AD
:10137000757575757575757575757575757575751D
:10138000F57575757575757575757575757575758D
:1013900075757575757575757575757575757575FD
:1013A000F57575757575757575757575757575756D
:1013B00075757575757575757575757575757575DD
:1013C000F57575757575757575757575757575754D
:1013D00075757575757575757575757575757575BD
:1013E000F57575757575757575757575757575752D
:1013F000757575757575757575757575757575759D
:10140000F57575757575757575757575757575750C
:10141000757575757575757575757575757575757C
:10142000F5757575757575757575757575757575EC
:10143000757575757575757575757575757575755C
:10144000F5757775757575757575757575757575CA
:10145000757575757575757575757575757575753C
:10146000F5757575757575757575757575757575AC
:10147000757575757575757575757575757575751C
:10148000F57575757575757575757575757575758C
:1014900075757575757575757575757575757575FC
:1014A000F57575757575757575757575757575756C
:1014B00075757575757575757575757575757575DC
:1014C000F57575757575757575757575757575754C
:1014D00075757575757575757575757575757575BC
:1014E000F57575757575757575757575757575752C
:1014F000757575757575757575757575757575759C
:10150000F57575757575757575757575757575750B
:10151000757575757575757575757575757575757B
:10152000F5757775757575757575757575757575E9
:10153000757575757575757575757575757575755B
:10154000F5757575757575757575757575757575CB
:10155000757575757575757575757575757575753B
:10156000F5757575757575757575757575757575AB
:10157000757575757575757575757575757575751B
:10158000F57575757575757575757575757575758B
:1015900075757575757575757575757575757575FB
:1015A000F575757575777575757575757575757569
:1015B00075757575757575757575757575757575DB
:1015C000F57575757575757575757575757575754B
:1015D00075757575757575757575757575757575BB
:1015E000F57575757575757575757575757575752B
:1015F000757575757575757575757575757575759B
:10160000F57575757575757575757575757575750A
:10161000757575757575757575757575757575757A
:10162000F5757575757575757575757575757575EA
:10163000757575757575757575757575757575755A
:10164000F5757575757575757575757575757575CA
:10165000757575757575757575757575757575753A
:10166000F5757575757575757575757575757575AA
:10167000757575757575757575757575757575751A
:10168000F57575757575757575757575757575758A
:1016900075757575757575757575757575757575FA
:1016A000F57575757575757575757575757575756A
:1016B00075757575757575757575757575757575DA
:1016C000F57575757575757575757575757575754A
:1016D00075757575757575757575757575757575BA
:1016E000F57575757575757575757575757575752A
:1016F000757575757575757575757575757575759A
:10170000F575757575757575757575757575757509
:101710007575757575757575757575757575757579
:10172000F5757575757575757575757575757575E9
:101730007575757575757575757575757575757559
:10174000F5757575757575757575757575757575C9
:101750007575757575757575757575757575757539
:10176000F5757575757575757575757575757575A9
:101770007575757575757575757575757575757519
:10178000F575757575757575757575757575757589
:1017900075757575757575757575757575757575F9
:1017A000F575757575757575777575757575757567
:1017B00075757775757575757575757575757575D7
:1017C000F575757575757575757575757575757549
:1017D00075757575757575757575757575757575B9
:1017E000F575757575757575757575757575757529
:1017F0007575757575757575757575757575757599
:10180000F575757575757575757575757575757508
:101810007575757575757575757575757575757578
:10182000F5757575757575757575757575757575E8
:101830007575757575757575757575757575757558
:10184000F5757575757575757575757575757575C8
:101850007575757575757575757575757575757538
:10186000F5757575757575757575757575757575A8
:101870007575757575757575757575757575757518
:10188000F575757575757575757575757575757588
:1018900075757575757575757575757575757575F8
:1018A000F575757575757575757575757575757568
:1018B00075757575757575757575757575757575D8
:1018C000F575757575757575757575757575757548
:1018D00075757575757575757575757575757575B8
:1018E000F575757575757575757575757575757528
:1018F0007575757575757575757575757575757598
:10190000F575757575757575757575757575757507
:101910007575757575757575757575757575757577
:10192000F5757577757575757575757575757575E5
:101930007575757575757575757575757575757557
:10194000F5757575757575757575757575757575C7
:101950007575757575757575757575757575757537
:10196000F5757575757575757575757575757575A7
:101970007575757575757575757575757575757517
:10198000F575757575757575757575757575757587
:1019900075757575757575757575757575757575F7
:1019A000F575757575757575757575757575757567
:1019B00075757575757575757575757575757575D7
:1019C000F575757575757775757575757575757545
:1019D00075757575757575757575757575757575B7
:1019E000F575757575757575757575757575757527
:1019F0007575757575757575757575757575757597
:101A0000F575757575757575757575757575757506
:101A10007575757575757575757575757575757576
:101A2000F5757575757575757575757575757575E6
:101A30007575757575757575757575757575757556
:101A4000F5757575757575757575757575757575C6
:101A50007575757575757575757575757575757536
:101A6000F5757575757575757575757575757575A6
:101A70007575757575757575757575757575757516
:101A8000F575757575757575757575757575757586
:101A900075757575757575757575757575757575F6
:101AA000F575757575757575757575757575757566
:101AB00075757575757575757575757575757575D6
:101AC000F575757575757575757575757575757546
:101AD00075757575757575757575757575757575B6
:101AE000F575757575757575757575757575757526
:101AF0007575757575757575757575757575757596
:101B0000F575757575757575757575757575757505
:101B10007575757575757575757575757575757575
:101B2000F5757575757575757575757575757575E5
:101B30007575757575757575757575757575757555
:101B4000F5757575757575757575757575757575C5
:101B50007575757575757575757575757575757535
:101B6000F5757575757575757575757575757575A5
:101B70007575757575757575757575757575757515
:101B8000F575757575757575757575757575757585
:101B900075757575757575757575757575757575F5
:101BA000F575757575757575757575757575757565
:101BB00075757575757575757575757575757575D5
:101BC000F575757575757575757575757575757545
:101BD00075757575757575757575757575757575B5
:101BE000F575757575757575757575757575757525
:101BF0007575757575757575757575757575757595
:101C0000F575757575757575757575757575757504
:101C10007575757575757575757575757575757574
:101C2000F5757575757575757575757575757575E4
:101C30007575757575757575757575757575757554
:101C4000F5757575757575757575757575757575C4
:101C50007575757575757575757575757575757534
:101C6000F5757575757575757575757575757575A4
:101C70007575757575757575757575757575757514
:101C8000F575757575757575757575757575757584
:101C900075757575757575757575757575757575F4
:101CA000F575757575757575757575757575757564
:101CB00075757575757575757575757575757575D4
:101CC000F575757575757575757575757575757544
:101CD00075757575757575757575757575757575B4
:101CE000F575757575757575757575757575757524
:101CF0007575757575757575757575757575757594
:101D0000F575757575757575757575757575757503
:101D10007575757575757575757575757575757573
:101D2000F5757575777575757575757575757575E1
:101D30007577757575757575757575757575757551
:101D4000F5757575757575757575757575757575C3
:101D50007575757575757575757575757575757533
:101D6000F5757575757575757575757575757575A3
:101D70007575757575757575757575757575757513
:101D8000F575757575757575757575757575757583
:101D900075757575757575757575757575757575F3
:101DA000F575757575757577757575757575757561
:101DB00075777575757575757575757575757575D1
:101DC000F575757575757775757575757575757541
:101DD00075757575757575757575757575757575B3
:101DE000F575757575757575757575757575757523
:101DF0007575757575757575757575757575757593
:101E0000F575757575757575757575757575757502
:101E10007575757575757575757575757575757572
:101E2000F5757575757575757575757575757575E2
:101E30007575757575757575757575757575757552
:101E4000F5757575757575757575757575757575C2
:101E50007575757575757575757575757575757532
:101E6000F5757575757575757575757575757575A2
:101E70007575757575757575757575757575757512
:101E8000F575757575757575757575757575757582
:101E900075757575757575757575757575757575F2
:101EA000F575757575757575757575757575757562
:101EB00075757575757575757575757575757575D2
:101EC000F575757575757575757575757575757542
:101ED00075757575757575757575757575757575B2
:101EE000F575757575757575757575757575757522
:101EF0007575757575757575757575757575757592
:101F0000F575757575757575757575757575757501
:101F10007575757575757575757575757575757571
:101F2000F5757575757575757575757575757575E1
:101F30007575757575757575757575757575757551
:101F4000F5757575757575757575757575757575C1
:101F50007575757575757575757575757575757531
:101F6000F5757575757575757575757575757575A1
:101F70007575757575757575757575757575757511
:101F8000F575757575757575757575757575757581
:101F900075757575757575757575757575757575F1
:101FA000F575757575757575757575757575757561
:101FB00075757575757575757575757575757575D1
:101FC000F575757575757575757575757575757541
:101FD00075757575757575757575757575757575B1
:101FE000F575757575757575757575757575757521
:101FF0007575757575757575757575757575757591
:00000001FF
