:100000000706070707070707070707070707070781
:100010000707070707070707070707070707070770
:100020000707070707070707070707070707070760
:100030000707070707070707070707070707070750
:100040000707070707070707070707070707070740
:1004000007070707070F0707030707070707070778
:10041000070707070707070707070707070707076C
:10042000070707070707070707070707070707075C
:10043000070707070707070707070707070707074C
:10044000070707070707070707070707070707073C
:10080000070707070705070707070707070707077A
:100810000707070707070707070707070707070768
:100820000707070707070707070707070707070758
:100830000707070707070707070707070707070748
:100840000707070707070707070707070707070738
:100850000707070707070707070707070707070728
:100860000707070707070707070707070707070718
:100870000707070707070707070707070707070708
:1008800007070707070707070707070707070707F8
:1008900007070707070707070707070707070707E8
:1008A00007070707070707070707070707070707D8
:1008B00007070707070707070707070707070707C8
:1008C00007070707070707070707070707070707B8
:1008D00007070707070707070707070707070707A8
:1008E0000707070707070707070707070707070798
:1008F0000707070707070707070707070707070788
:100900000707070707070707070707070707070777
:100910000707070707070707070707070707070767
:100920000707070707070707070707070707070757
:100930000707070707070707070707070707070747
:100940000707070707070707070707070707070737
:100950000707070707070707070707070707070727
:100960000707070707070707070707070707070717
:100970000707070707070707070707070707070707
:1009800007070F07070307070707070707070707F3
:1009900007070707070707070707070707070707E7
:1009A00007070707070707070707070707070707D7
:1009B00007070707070707070707070707070707C7
:1009C00007070707070707070707070707070707B7
:1009D00007070707070707070707070707070707A7
:1009E0000707070707070707070707070707070797
:1009F0000707070707070707070707070707070787
:100A00000707070707070707070707070707070776
:100A10000707070707070707070707070707070766
:100A20000707070707070707070707070707070756
:100A30000707070707070707070707070707070746
:100A40000707070707070707070707070707070736
:100A50000707070707070707070707070707070726
:100A60000707070707070707070707070707070716
:100A70000707070707070707070707070707070706
:100A800007070707070707070707070707070707F6
:100A900007070707070707070707070707070707E6
:100AA00007070707070707070707070707070707D6
:100AB00007070707070707070707070707070707C6
:100AC00007070707070707070707070707070707B6
:100AD00007070707070707070707070707070707A6
:100AE0000707070707070707070707070707070796
:100AF0000707070707070707070707070707070786
:100B00000707050707070707070707070707070777
:100B10000707070707070707070707070707070765
:100B20000707070707070707070707070707070755
:100B30000707070707070707070707070707070745
:100B40000707070707070707070707070707070735
:100F00000707060707070707070707070707070772
:100F10000707070707070707070707070707070761
:100F20000707070707070707070707070707070751
:100F30000707070707070707070707070707070741
:100F40000707070707070707070707070707070731
:1012000007070F070703070707070707070707076A
:10121000070707070707070707070707070707075E
:10122000070707070707070707070707070707074E
:10123000070707070707070707070707070707073E
:10124000070707070707070707070707070707072E
:10125000070707070707070707070707070707071E
:10126000070707070707070707070707070707070E
:1012700007070707070707070707070707070707FE
:1012800007070707070707070707070707070707EE
:1012900007070707070707070707070707070707DE
:1012A00007070707070707070707070707070707CE
:1012B00007070707070707070707070707070707BE
:1012C00007070707070707070707070707070707AE
:1012D000070707070707070707070707070707079E
:1012E000070707070707070707070707070707078E
:1012F000070707070707070707070707070707077E
:10130000070707070707070707070707070707076D
:10131000070707070707070707070707070707075D
:10132000070707070707070707070707070707074D
:10133000070707070707070707070707070707073D
:10134000070707070707070707070707070707072D
:10135000070707070707070707070707070707071D
:10136000070707070707070707070707070707070D
:1013700007070707070707070707070707070707FD
:1013800007070707070707070707070707070707ED
:1013900007070707070707070707070707070707DD
:1013A00007070F0707172703070707070707070799
:1013B00003070707070707070707070707070707C1
:1013C00007070707070707070707070707070707AD
:1013D000070707070707070707070707070707079D
:1013E000070707070707070707070707070707078D
:1013F000070707070707070707070707070707077D
:1016000007070F0707070707070707070707070762
:10161000070703070707070707070707070707075E
:10162000070707070707070707070707070707074A
:10163000070707070707070707070707070707073A
:10164000070707070707070707070707070707072A
:10165000070707070707070707070707070707071A
:10166000070707070707070707070707070707070A
:1016700007070707070707070707070707070707FA
:1016800007070707070707070707070707070707EA
:1016900007070707070707070707070707070707DA
:1016A00007070707070707070707070707070707CA
:1016B00007070707070707070707070707070707BA
:1016C00007070707070707070707070707070707AA
:1016D000070707070707070707070707070707079A
:1016E000070707070707070707070707070707078A
:1016F000070707070707070707070707070707077A
:101700000707070707070707070707070707070769
:101710000707070707070707070707070707070759
:101720000707070707070707070707070707070749
:101730000707070707070707070707070707070739
:101740000707070707070707070707070707070729
:101750000707070707070707070707070707070719
:101760000707070707070707070707070707070709
:1017700007070707070707070707070707070707F9
:1017800007070707070707070707070707070707E9
:1017900007070707070707070707070707070707D9
:1017A0000707070707172707070707070707070799
:1017B00007070707070707070707070707070707B9
:1017C00007070707070707070707070707070707A9
:1017D0000707070707070707070707070707070799
:1017E0000707070707070707070707070707070789
:101A000007070F0707030707070707070707070762
:101A10000707070707070707070707070707070756
:101A20000707070707070707070707070707070746
:101A30000707070707070707070707070707070736
:101A40000707070707070707070707070707070726
:101E000007070F070707070707070707070707075A
:101E10000707030707070707070707070707070756
:101E20000707070707070707070707070707070742
:101E30000707070707070707070707070707070732
:101E40000707070707070707070707070707070722
:101E50000707070707070707070707070707070712
:101E60000707070707070707070707070707070702
:101E700007070707070707070707070707070707F2
:101E800007070707070707070707070707070707E2
:101E900007070707070707070707070707070707D2
:101EA00007070707070707070707070707070707C2
:101EB00007070707070707070707070707070707B2
:101EC00007070707070707070707070707070707A2
:101ED0000707070707070707070707070707070792
:101EE0000707070707070707070707070707070782
:101EF0000707070707070707070707070707070772
:101F00000707070707070707070707070707070761
:101F10000707070707070707070707070707070751
:101F20000707070707070707070707070707070741
:101F30000707070707070707070707070707070731
:101F40000707070707070707070707070707070721
:101F50000707070707070707070707070707070711
:101F60000707070707070707070707070707070701
:101F700007070707070707070707070707070707F1
:101F800007070707070707070707070707070707E1
:101F900007070707070707070707070707070707D1
:101FA00007070707070707070707070707070707C1
:101FB00007070707070707070707070707070707B1
:101FC00007070707070707070707070707070707A1
:101FD0000707070707070707070707070707070791
:101FE0000707070707070707070707070707070781
:101FF0000707070707070707070707070707070771
:00000001FF
