:1000000003020303030303030303030303030303C1
:1000100003030303030303030303030303030303B0
:1000200003030303030303030303030303030303A0
:100030000303030303030303030303030303030390
:100040000303030303030303030303030303030380
:1008000003030303030103030303030303030303BA
:1008100003030303030303030303030303030303A8
:100820000303030303030303030303030303030398
:100830000303030303030303030303030303030388
:100840000303030303030303030303030303030378
:100B000003030103030303030303030303030303B7
:100B100003030303030303030303030303030303A5
:100B20000303030303030303030303030303030395
:100B30000303030303030303030303030303030385
:100B40000303030303030303030303030303030375
:100F000003030203030303030303030303030303B2
:100F100003030303030303030303030303030303A1
:100F20000303030303030303030303030303030391
:100F30000303030303030303030303030303030381
:100F40000303030303030303030303030303030371
:00000001FF
