:10000000C82810A8106810080A0809080808080875
:100010000808080808080808080808080808080860
:10002000C80C08080808080808080808080808088C
:100030000808080808080808080808080808080840
:10004000C80C08080808080808080808080808086C
:100050000808080808080808080808080808080820
:10006000C80C08080808080808080808080808084C
:100070000808080808080808080808080808080800
:10008000C80C08080808080808080808080808082C
:1000900008080808080808080808080808080808E0
:1000A000C80C08080808080808080808080808080C
:1000B00008080808080808080808080808080808C0
:1000C000C80C0808080808080808080808080808EC
:1000D00008080808080808080808080808080808A0
:1000E000C80C0808080808080808080808080808CC
:1000F0000808080808080808080808080808080880
:10010000C80C0808080808080808080808080808AB
:10011000080808080808080808080808080808085F
:10012000C80C08080808080808080808080808088B
:10013000080808080808080808080808080808083F
:10014000C80C08080808080808080808080808086B
:10015000080808080808080808080808080808081F
:10016000C80C08080808080808080808080808084B
:1001700008080808080808080808080808080808FF
:10018000C80C08080808080808080808080808082B
:1001900008080808080808080808080808080808DF
:1001A000C80C08080808080808080808080808080B
:1001B00008080808080808080808080808080808BF
:1001C000C80C0808080808080808080808080808EB
:1001D000080808080808080808080808080808089F
:1001E000C80C0808080808080808080808080808CB
:1001F000080808080808080808080808080808087F
:10020000C80C0808080808080808080808080808AA
:10021000080808080808080808080808080808085E
:10022000C80C08080808080808080808080808088A
:10023000080808080808080808080808080808083E
:10024000C80C08080808080808080808080808086A
:10025000080808080808080808080808080808081E
:10026000C80C08080808080808080808080808084A
:1002700008080808080808080808080808080808FE
:10028000C80C08080808080808080808080808082A
:1002900008080808080808080808080808080808DE
:1002A000C80C08080808080808080808080808080A
:1002B00008080808080808080808080808080808BE
:1002C000C80C0808080808080808080808080808EA
:1002D000080808080808080808080808080808089E
:1002E000C80C0808080808080808080808080808CA
:1002F000080808080808080808080808080808087E
:10030000C80C0808080808080808080808080808A9
:10031000080808080808080808080808080808085D
:10032000C80C080808080808080808080808080889
:10033000080808080808080808080808080808083D
:10034000C80C080808080808080808080808080869
:10035000080808080808080808080808080808081D
:10036000C80C080808080808080808080808080849
:1003700008080808080808080808080808080808FD
:10038000C80C080808080808080808080808080829
:1003900008080808080808080808080808080808DD
:1003A000C80C080808080808080808080808080809
:1003B00008080808080808080808080808080808BD
:1003C000C80C0808080808080808080808080808E9
:1003D000080808080808080808080808080808089D
:1003E000C80C0808080808080808080808080808C9
:1003F000080808080808080808080808080808087D
:10040000C80CA8106810C80CC90A08080808080811
:10041000080808080808080808080808080808085C
:10042000C80C080808080808080808080808080888
:10043000080808080808080808080808080808083C
:10044000C80C080808080808080808080808080868
:10045000080808080808080808080808080808081C
:10046000C80C080808080808080808080808080848
:1004700008080808080808080808080808080808FC
:10048000C80C080808080808080808080808080828
:1004900008080808080808080808080808080808DC
:1004A000C80C080808080808080808080808080808
:1004B00008080808080808080808080808080808BC
:1004C000C80C0808080808080808080808080808E8
:1004D000080808080808080808080808080808089C
:1004E000C80C0808080808080808080808080808C8
:1004F000080808080808080808080808080808087C
:10050000C80C0808080808080808080808080808A7
:10051000080808080808080808080808080808085B
:10052000C80C080808080808080808080808080887
:10053000080808080808080808080808080808083B
:10054000C80C080808080808080808080808080867
:10055000080808080808080808080808080808081B
:10056000C80C080808080808080808080808080847
:1005700008080808080808080808080808080808FB
:10058000C80C080808080808080808080808080827
:1005900008080808080808080808080808080808DB
:1005A000C80C080808080808080808080808080807
:1005B00008080808080808080808080808080808BB
:1005C000C80C0808080808080808080808080808E7
:1005D000080808080808080808080808080808089B
:1005E000C80C0808080808080808080808080808C7
:1005F000080808080808080808080808080808087B
:10060000C80C0808080808080808080808080808A6
:10061000080808080808080808080808080808085A
:10062000C80C080808080808080808080808080886
:10063000080808080808080808080808080808083A
:10064000C80C080808080808080808080808080866
:10065000080808080808080808080808080808081A
:10066000C80C080808080808080808080808080846
:1006700008080808080808080808080808080808FA
:10068000C80C080808080808080808080808080826
:1006900008080808080808080808080808080808DA
:1006A000C80C080808080808080808080808080806
:1006B00008080808080808080808080808080808BA
:1006C000C80C0808080808080808080808080808E6
:1006D000080808080808080808080808080808089A
:1006E000C80C0808080808080808080808080808C6
:1006F000080808080808080808080808080808087A
:10070000C80C0808080808080808080808080808A5
:100710000808080808080808080808080808080859
:10072000C80C080808080808080808080808080885
:100730000808080808080808080808080808080839
:10074000C80C080808080808080808080808080865
:100750000808080808080808080808080808080819
:10076000C80C080808080808080808080808080845
:1007700008080808080808080808080808080808F9
:10078000C80C080808080808080808080808080825
:1007900008080808080808080808080808080808D9
:1007A000C80C080808080808080808080808080805
:1007B00008080808080808080808080808080808B9
:1007C000C80C0808080808080808080808080808E5
:1007D0000808080808080808080808080808080899
:1007E000C80C0808080808080808080808080808C5
:1007F0000808080808080808080808080808080879
:10080000C8002A002900280808080808080808085D
:100810000808080808080808080808080808080858
:10082000C80C080808080808080808080808080884
:100830000808080808080808080808080808080838
:10084000C80C080808080808080808080808080864
:100850000808080808080808080808080808080818
:10086000C80C080808080808080808080808080844
:1008700008080808080808080808080808080808F8
:10088000C80C080808080808080808080808080824
:1008900008080808080808080808080808080808D8
:1008A000C80C080808080808080808080808080804
:1008B00008080808080808080808080808080808B8
:1008C000C80C0808080808080808080808080808E4
:1008D0000808080808080808080808080808080898
:1008E000C80C0808080808080808080808080808C4
:1008F0000808080808080808080808080808080878
:10090000C80C28100808080808080808080808087B
:100910000808080808080808080808080808080857
:10092000C80CC80C080808080808080808080808BF
:100930000808080808080808080808080808080837
:10094000C80C080808080808080808080808080863
:100950000808080808080808080808080808080817
:10096000C80C080808080808080808080808080843
:1009700008080808080808080808080808080808F7
:10098000C80CC80CC90A080808080808080808089C
:1009900008080808080808080808080808080808D7
:1009A000C80C080808080808080808080808080803
:1009B00008080808080808080808080808080808B7
:1009C000C80C0808080808080808080808080808E3
:1009D0000808080808080808080808080808080897
:1009E000C80C0808080808080808080808080808C3
:1009F0000808080808080808080808080808080877
:100A0000C80C0808080808080808080808080808A2
:100A10000808080808080808080808080808080856
:100A2000C80C080808080808080808080808080882
:100A30000808080808080808080808080808080836
:100A4000C80C080808080808080808080808080862
:100A50000808080808080808080808080808080816
:100A6000C80C080808080808080808080808080842
:100A700008080808080808080808080808080808F6
:100A8000C80C080808080808080808080808080822
:100A900008080808080808080808080808080808D6
:100AA000C80C080808080808080808080808080802
:100AB00008080808080808080808080808080808B6
:100AC000C80C0808080808080808080808080808E2
:100AD0000808080808080808080808080808080896
:100AE000C80C0808080808080808080808080808C2
:100AF0000808080808080808080808080808080876
:100B0000C80C0808080808080808080808080808A1
:100B10000808080808080808080808080808080855
:100B2000C80C080808080808080808080808080881
:100B30000808080808080808080808080808080835
:100B4000C80C080808080808080808080808080861
:100B50000808080808080808080808080808080815
:100B6000C80C080808080808080808080808080841
:100B700008080808080808080808080808080808F5
:100B8000C80C080808080808080808080808080821
:100B900008080808080808080808080808080808D5
:100BA000C80C080808080808080808080808080801
:100BB00008080808080808080808080808080808B5
:100BC000C80C0808080808080808080808080808E1
:100BD0000808080808080808080808080808080895
:100BE000C80C0808080808080808080808080808C1
:100BF0000808080808080808080808080808080875
:100C0000C80C002A00290C0C080808080808080865
:100C10000808080808080808080808080808080854
:100C2000C80C080808080808080808080808080880
:100C30000808080808080808080808080808080834
:100C4000C80C080808080808080808080808080860
:100C50000808080808080808080808080808080814
:100C6000C80C080808080808080808080808080840
:100C700008080808080808080808080808080808F4
:100C8000C80C080808080808080808080808080820
:100C900008080808080808080808080808080808D4
:100CA000C80C080808080808080808080808080800
:100CB00008080808080808080808080808080808B4
:100CC000C80C0808080808080808080808080808E0
:100CD0000808080808080808080808080808080894
:100CE000C80C0808080808080808080808080808C0
:100CF0000808080808080808080808080808080874
:100D0000C80C002808080808080808080808080887
:100D10000808080808080808080808080808080853
:100D2000C80CC80C080808080808080808080808BB
:100D30000C0808080808080808080808080808082F
:100D4000C80C08080808080808080808080808085F
:100D50000808080808080808080808080808080813
:100D6000C80C08080808080808080808080808083F
:100D700008080808080808080808080808080808F3
:100D8000C80C08080808080808080808080808081F
:100D900008080808080808080808080808080808D3
:100DA000C80CC80CC8080C08080808080808080877
:100DB0000C080808080808080808080808080808AF
:100DC000C80C0808080808080808080808080808DF
:100DD0000808080808080808080808080808080893
:100DE000C80C0808080808080808080808080808BF
:100DF0000808080808080808080808080808080873
:100E0000C80C08080808080808080808080808089E
:100E10000808080808080808080808080808080852
:100E2000C80C08080808080808080808080808087E
:100E30000808080808080808080808080808080832
:100E4000C80C08080808080808080808080808085E
:100E50000808080808080808080808080808080812
:100E6000C80C08080808080808080808080808083E
:100E700008080808080808080808080808080808F2
:100E8000C80C08080808080808080808080808081E
:100E900008080808080808080808080808080808D2
:100EA000C80C0808080808080808080808080808FE
:100EB00008080808080808080808080808080808B2
:100EC000C80C0808080808080808080808080808DE
:100ED0000808080808080808080808080808080892
:100EE000C80C0808080808080808080808080808BE
:100EF0000808080808080808080808080808080872
:100F0000C80C08080808080808080808080808089D
:100F10000808080808080808080808080808080851
:100F2000C80C08080808080808080808080808087D
:100F30000808080808080808080808080808080831
:100F4000C80C08080808080808080808080808085D
:100F50000808080808080808080808080808080811
:100F6000C80C08080808080808080808080808083D
:100F700008080808080808080808080808080808F1
:100F8000C80C08080808080808080808080808081D
:100F900008080808080808080808080808080808D1
:100FA000C80C0808080808080808080808080808FD
:100FB00008080808080808080808080808080808B1
:100FC000C80C0808080808080808080808080808DD
:100FD0000808080808080808080808080808080891
:100FE000C80C0808080808080808080808080808BD
:100FF0000808080808080808080808080808080871
:10100000C80C08080808080808080808080808089C
:101010000808080808080808080808080808080850
:10102000C80C08080808080808080808080808087C
:101030000808080808080808080808080808080830
:10104000C80C08080808080808080808080808085C
:101050000808080808080808080808080808080810
:10106000C80C08080808080808080808080808083C
:1010700008080808080808080808080808080808F0
:10108000C80C08080808080808080808080808081C
:1010900008080808080808080808080808080808D0
:1010A000C80C0808080808080808080808080808FC
:1010B00008080808080808080808080808080808B0
:1010C000C80C0808080808080808080808080808DC
:1010D0000808080808080808080808080808080890
:1010E000C80C0808080808080808080808080808BC
:1010F0000808080808080808080808080808080870
:10110000C80C08080808080808080808080808089B
:10111000080808080808080808080808080808084F
:10112000C80C08080808080808080808080808087B
:10113000080808080808080808080808080808082F
:10114000C80C08080808080808080808080808085B
:10115000080808080808080808080808080808080F
:10116000C80C08080808080808080808080808083B
:1011700008080808080808080808080808080808EF
:10118000C80C08080808080808080808080808081B
:1011900008080808080808080808080808080808CF
:1011A000C80CC80CC80C0808080808080808080873
:1011B00008080808080808080808080808080808AF
:1011C000C80C0808080808080808080808080808DB
:1011D000080808080808080808080808080808088F
:1011E000C80C0808080808080808080808080808BB
:1011F000080808080808080808080808080808086F
:10120000C80CC80CC90A0808080808080808080813
:101210000C0C080808080808080808080808080846
:10122000C80C08080808080808080808080808087A
:10123000080808080808080808080808080808082E
:10124000C80C08080808080808080808080808085A
:10125000080808080808080808080808080808080E
:10126000C80C08080808080808080808080808083A
:1012700008080808080808080808080808080808EE
:10128000C80C08080808080808080808080808081A
:1012900008080808080808080808080808080808CE
:1012A000C80C0808080808080808080808080808FA
:1012B00008080808080808080808080808080808AE
:1012C000C80C0808080808080808080808080808DA
:1012D000080808080808080808080808080808088E
:1012E000C80C0808080808080808080808080808BA
:1012F000080808080808080808080808080808086E
:10130000C80C080808080808080808080808080899
:10131000080808080808080808080808080808084D
:10132000C80C080808080808080808080808080879
:10133000080808080808080808080808080808082D
:10134000C80C080808080808080808080808080859
:10135000080808080808080808080808080808080D
:10136000C80C080808080808080808080808080839
:1013700008080808080808080808080808080808ED
:10138000C80C080808080808080808080808080819
:1013900008080808080808080808080808080808CD
:1013A000C80CC80CC80C0808080808080808080871
:1013B00008080808080808080808080808080808AD
:1013C000C80C0808080808080808080808080808D9
:1013D000080808080808080808080808080808088D
:1013E000C80C0808080808080808080808080808B9
:1013F000080808080808080808080808080808086D
:10140000C80C080808080808080808080808080898
:10141000080808080808080808080808080808084C
:10142000C80C080808080808080808080808080878
:10143000080808080808080808080808080808082C
:10144000C80CC80C08080808080808080808080894
:10145000080808080808080808080808080808080C
:10146000C80C080808080808080808080808080838
:1014700008080808080808080808080808080808EC
:10148000C80C080808080808080808080808080818
:1014900008080808080808080808080808080808CC
:1014A000C80C0808080808080808080808080808F8
:1014B00008080808080808080808080808080808AC
:1014C000C80C0808080808080808080808080808D8
:1014D000080808080808080808080808080808088C
:1014E000C80C0808080808080808080808080808B8
:1014F000080808080808080808080808080808086C
:10150000C80C080808080808080808080808080897
:10151000080808080808080808080808080808084B
:10152000C80CC80C080808080808080808080808B3
:10153000080808080808080808080808080808082B
:10154000C80C080808080808080808080808080857
:10155000080808080808080808080808080808080B
:10156000C80C080808080808080808080808080837
:1015700008080808080808080808080808080808EB
:10158000C80C080808080808080808080808080817
:1015900008080808080808080808080808080808CB
:1015A000C80CC80CC80C080808080808080808086F
:1015B00008080808080808080808080808080808AB
:1015C000C80C0808080808080808080808080808D7
:1015D000080808080808080808080808080808088B
:1015E000C80C0808080808080808080808080808B7
:1015F000080808080808080808080808080808086B
:10160000C80CC80C0C0808080808080808080808CE
:101610000CC90A0808080808080808080808080883
:10162000C80C080808080808080808080808080876
:10163000080808080808080808080808080808082A
:10164000C80C080808080808080808080808080856
:10165000080808080808080808080808080808080A
:10166000C80C080808080808080808080808080836
:1016700008080808080808080808080808080808EA
:10168000C80C080808080808080808080808080816
:1016900008080808080808080808080808080808CA
:1016A000C80C0808080808080808080808080808F6
:1016B00008080808080808080808080808080808AA
:1016C000C80C0808080808080808080808080808D6
:1016D000080808080808080808080808080808088A
:1016E000C80C0808080808080808080808080808B6
:1016F000080808080808080808080808080808086A
:10170000C80C080808080808080808080808080895
:101710000808080808080808080808080808080849
:10172000C80C080808080808080808080808080875
:101730000808080808080808080808080808080829
:10174000C80C080808080808080808080808080855
:101750000808080808080808080808080808080809
:10176000C80C080808080808080808080808080835
:1017700008080808080808080808080808080808E9
:10178000C80C080808080808080808080808080815
:1017900008080808080808080808080808080808C9
:1017A000C80CC80CC80C080808080808080808086D
:1017B00008080808080808080808080808080808A9
:1017C000C80C0808080808080808080808080808D5
:1017D0000808080808080808080808080808080889
:1017E000C80C0808080808080808080808080808B5
:1017F0000808080808080808080808080808080869
:10180000C80C080808080808080808080808080894
:101810000808080808080808080808080808080848
:10182000C80C080808080808080808080808080874
:101830000808080808080808080808080808080828
:10184000C80C080808080808080808080808080854
:101850000808080808080808080808080808080808
:10186000C80C080808080808080808080808080834
:1018700008080808080808080808080808080808E8
:10188000C80C080808080808080808080808080814
:1018900008080808080808080808080808080808C8
:1018A000C80C0808080808080808080808080808F4
:1018B00008080808080808080808080808080808A8
:1018C000C80C0808080808080808080808080808D4
:1018D0000808080808080808080808080808080888
:1018E000C80C0808080808080808080808080808B4
:1018F0000808080808080808080808080808080868
:10190000C80C080808080808080808080808080893
:101910000808080808080808080808080808080847
:10192000C80CC80C080808080808080808080808AF
:101930000808080808080808080808080808080827
:10194000C80C080808080808080808080808080853
:101950000808080808080808080808080808080807
:10196000C80C080808080808080808080808080833
:1019700008080808080808080808080808080808E7
:10198000C80C080808080808080808080808080813
:1019900008080808080808080808080808080808C7
:1019A000C80C0808080808080808080808080808F3
:1019B00008080808080808080808080808080808A7
:1019C000C80CC80CC80C080808080808080808084B
:1019D0000808080808080808080808080808080887
:1019E000C80C0808080808080808080808080808B3
:1019F0000808080808080808080808080808080867
:101A0000C80CC80CC90A080808080808080808080B
:101A10000C0C08080808080808080808080808083E
:101A2000C80C080808080808080808080808080872
:101A30000808080808080808080808080808080826
:101A4000C80C080808080808080808080808080852
:101A50000808080808080808080808080808080806
:101A6000C80C080808080808080808080808080832
:101A700008080808080808080808080808080808E6
:101A8000C80C080808080808080808080808080812
:101A900008080808080808080808080808080808C6
:101AA000C80C0808080808080808080808080808F2
:101AB00008080808080808080808080808080808A6
:101AC000C80C0808080808080808080808080808D2
:101AD0000808080808080808080808080808080886
:101AE000C80C0808080808080808080808080808B2
:101AF0000808080808080808080808080808080866
:101B0000C80C080808080808080808080808080891
:101B10000808080808080808080808080808080845
:101B2000C80C080808080808080808080808080871
:101B30000808080808080808080808080808080825
:101B4000C80C080808080808080808080808080851
:101B50000808080808080808080808080808080805
:101B6000C80C080808080808080808080808080831
:101B700008080808080808080808080808080808E5
:101B8000C80C080808080808080808080808080811
:101B900008080808080808080808080808080808C5
:101BA000C80C0808080808080808080808080808F1
:101BB00008080808080808080808080808080808A5
:101BC000C80C0808080808080808080808080808D1
:101BD0000808080808080808080808080808080885
:101BE000C80C0808080808080808080808080808B1
:101BF0000808080808080808080808080808080865
:101C0000C80C080808080808080808080808080890
:101C10000808080808080808080808080808080844
:101C2000C80C080808080808080808080808080870
:101C30000808080808080808080808080808080824
:101C4000C80C080808080808080808080808080850
:101C50000808080808080808080808080808080804
:101C6000C80C080808080808080808080808080830
:101C700008080808080808080808080808080808E4
:101C8000C80C080808080808080808080808080810
:101C900008080808080808080808080808080808C4
:101CA000C80C0808080808080808080808080808F0
:101CB00008080808080808080808080808080808A4
:101CC000C80C0808080808080808080808080808D0
:101CD0000808080808080808080808080808080884
:101CE000C80C0808080808080808080808080808B0
:101CF0000808080808080808080808080808080864
:101D0000C80C08080808080808080808080808088F
:101D10000808080808080808080808080808080843
:101D2000C80C08C80C0808080808080808080808AB
:101D3000C80C08080808080808080808080808085F
:101D4000C80C08080808080808080808080808084F
:101D50000808080808080808080808080808080803
:101D6000C80C08080808080808080808080808082F
:101D700008080808080808080808080808080808E3
:101D8000C80C08080808080808080808080808080F
:101D900008080808080808080808080808080808C3
:101DA000C80CC80CC80C0808080808080808080867
:101DB00008080808080808080808080808080808A3
:101DC000C80CC80CC80C0808080808080808080847
:101DD0000808080808080808080808080808080883
:101DE000C80C0808080808080808080808080808AF
:101DF0000808080808080808080808080808080863
:101E0000C80CC80C0C0808080808080808080808C6
:101E10000CC90A080808080808080808080808087B
:101E2000C80C08080808080808080808080808086E
:101E30000808080808080808080808080808080822
:101E4000C80C08080808080808080808080808084E
:101E50000808080808080808080808080808080802
:101E6000C80C08080808080808080808080808082E
:101E700008080808080808080808080808080808E2
:101E8000C80C08080808080808080808080808080E
:101E900008080808080808080808080808080808C2
:101EA000C80C0808080808080808080808080808EE
:101EB00008080808080808080808080808080808A2
:101EC000C80C0808080808080808080808080808CE
:101ED0000808080808080808080808080808080882
:101EE000C80C0808080808080808080808080808AE
:101EF0000808080808080808080808080808080862
:101F0000C80C08080808080808080808080808088D
:101F10000808080808080808080808080808080841
:101F2000C80C08080808080808080808080808086D
:101F30000808080808080808080808080808080821
:101F4000C80C08080808080808080808080808084D
:101F50000808080808080808080808080808080801
:101F6000C80C08080808080808080808080808082D
:101F700008080808080808080808080808080808E1
:101F8000C80C08080808080808080808080808080D
:101F900008080808080808080808080808080808C1
:101FA000C80CC80CC80C0808080808080808080865
:101FB00008080808080808080808080808080808A1
:101FC000C80CC80C08080808080808080808080809
:101FD0000808080808080808080808080808080881
:101FE000C80C0808080808080808080808080808AD
:101FF0000808080808080808080808080808080861
:00000001FF
