:0F0000007802FE0020020000200B4B004C1CBBBE
:2000FF0048AC1501F0010A9283F8001502F001139283FA001504F0011C9283FC001508F061
:20011F0001259283FE00684078AEA501A6567A83F88083F97A83FE8083FFA501A6617A837F
:20013F00FA8083FBA501A6577A83FC8083FDA5007A83F77A83F66060EE83F7D00160EE83B6
:0D015F00F660979596200DBC009A999E6061
:20020000FE7EFE014C0208FFFE02A934C934F00212FFFE03A932C934F008B5FE04A9058D6E
:200220008000A902AD8000C905F0022DFFA9058D80015C8001F00239FFA234A005A9058D01
:200240008001B47FCDD008B5B57FFCD008B5A920B47FCDF008B5B57FFCF008B5A9058E0143
:200260008001B6017FCDD008B5B7017FFCD008B5A920B6017FCDF008B5B7017FFCF008B554
:20028000FE05A905C903D0028AFFA9058D8001A9045C8001D00298FFFE06A922C922D00845
:2002A000B5FE07A902C905A900D008B5FE08A913C902B002B6FFFE09A923C955B008B5FE85
:2002C00010A913C9029008B5FE11A923C9559002D2FFFE12A973C9739008B5FE13A9101847
:2002E0006901C911D008B56901C913D008B5186901C914D008B518386901C916D008B5A99F
:20030000558D8181A988186D8181C9DDD008B5A988386D8181C9DED008B5FE14A900200324
:200320002800C904F00340FFA90120032F0060A9022003360060A90320033D0060A904605D
:20034000FE15A9AF8D8181A900EE8181F008B5AD8181C9B0D008B5A9FF8D8181EE8181D0B1
:2003600008B5FE16A9B08D8182A900CE8182F008B5AD8182C9AFD008B5A9018D8182CE815E
:2003800082D008B5FE17A9224944F008B5C966D008B54966D008B5FE18A2668AC966D0088D
:2003A000B5A933AAA9018AC933D008B5FE19A9348D8182A900A202BD8180C934D008B5A983
:2003C000368D8101A900A203BD80FEC936D008B5A945A2039D81FEA900AD8201C944F00836
:2003E000B5C945D008B5A923A2049D810EA900AD8112C944F008B5C923D008B5A9328D810A
:2004000002A000A2031D80FFE332D008B5A9338D8114A200A0151C80FFE033D008B5FE20A9
:20042000A92538E912C913D008B5A92518E921C903D008B5A9558D8181A95938ED8181C98A
:2004400004D008B5A95918ED8181C903D008B5A93738E937D008B5FE21A9222902F008B522
:20046000C902D008B52901D008B5FE22A944182AF008B5C988D008B5382AC911D008B5A921
:2004800023186A01C911D008B5386A01C988D008B518A9026A016A01D008B5382AF008B599
:2004A000A980182AD008B538A9208D8111A90066811101AD8111C990D008B518A9208D816E
:2004C00011A900268111AD8111C940D008B518A9F82A9008B5C9F0D008B538A9F82A9008C4
:2004E000B5C9F1D008B538A9052AB008B5C90BD008B518A9052AB008B5C90AD008B518A9A4
:20050000F88D81112681119008B5AD8111C9F0D008B538A9058D8111268111B008B5AD81E2
:2005200011C90BD008B518A9788D811166811101B008B5AD8111C93CD008B538A9058D81C6
:2005400011668111019008B5AD8111C982D008B538A9058D8111268111B008B5AD8111C9FB
:200560000BD008B518A9788D811166811101B008B5AD8111C93CD008B5FE23A223E8E8E0BE
:2005800025D008B5CAE024D008B5FE24A900D008B5C901F008B5FE25A9238E01FFFFA92238
:2005A0008E010000A900A235A401FFFFE023D008B5A7010000C922D008B5A9458E0100223A
:2005C000A221E8A900BE010000C945D008B5A9FE8E010101A9FF8E010102A9608E0101035F
:2005E00021010101FE25FE26A980A20018690148C992D005EC68E8C981D005F5E012D008B1
:20060000B5FE27A9123008B5A9FF1008B5A202CACACA3006184C08B5A9FF18690210062326
:200620004C08B5EAFE28A023C8C8E325D008B5CBE324D008B5A066BAC966D008B5A933BB47
:20064000E333D008B5A901BAC933D008B5A232E8E1D008B5FE29A6668CE366D008B5A03378
:200660008BE433D008B5A0018CE333D008B5A612A22538EFE013D008B5A621A22518EFE0E0
:2006800003D008B538A6206B01E490D008B518A6202BE440D008B5A23FE8E2D008B5FE303F
:2006A000A5669CE066D008B5A2339BE533D008B5A2019CE033D008B5A910A501186FC9110C
:2006C000D008B56FC913D008B5186FC914D008B518386FC916D008B538A5206C01E590D0EA
:2006E00008B518A5202CE540D008B5A23FE8EBD008B5FE32A9238D8111A911168111F008CC
:20070000B5168111F008B5C911D008B5A904168111D008B5C904D008B51504F008B5FE3335
:20072000A9208D8130A904A23018048100C924D008B5A902A255180480DBC922D008B51873
:200740000480DBC942D008B5FE34A925B807C4A910B107C407C5C925D008B5A92AB807C64B
:20076000A910B107C607C7C92AD008B5B107C407C5B907C6F008B5B807C6B907C6D008B5E1
:20078000A950A202BF07C4A912A002C107C4C950D008B5A934A205A005C207C4A912BC076F
:2007A000C4C934D008B5A935A002A207BF07C6A920A007C307C6F008B5A935C007C6D00846
:2007C000B54C07C8FF801580FE35A9108D8080A9008D8081F180808081B008B5AD8080C9B0
:2007E00011D008B5AD8081C900D008B5A9FF8D8080A9048D8081F180808081B008B5AD805B
:2008000080C900D008B5AD8081C905D008B5A9FF8D8080A9FF8D8081F1808080819008B54F
:20082000FE36A9108D8080A9008D8081F2808080819008B5AD8080C90FD008B5AD8081C93E
:2008400000D008B5A9008D8080A9048D8081F2808080819008B5AD8080C9FFD008B5AD802B
:2008600081C903D008B5A9008D8080A9008D8081F280808081B008B5AD8080C9FFD008B5CF
:20088000AD8081C9FFD008B5FE99A907A2FF48A908488AABCAD00891A90948A90068C909E7
:2008A000D008B5A2FF688AABCAD008A568C907D008B5FE0E60FF00010409101924314051D9
:2008C000647990A9C4E10021446990B9E4114071A4D9104984C1004184C91059A4F1409128
:2008E000E43990E944A10061C42990F964D140B124991089048100810489109924B140D108
:2009000064F99029C46100A144E99039E49140F1A45910C9844100C1844910D9A4714011E7
:20092000E4B99069442100E1C4A990796451403124191009040100010409101924314051C7
:20094000647990A9C4E10021446990B9E4114071A4D9104984C1004184C91059A4F14091A7
:20096000E43990E944A10061C42990F964D140B124991089048100810489109924B140D187
:2009800064F99029C46100A144E99039E49140F1A45910C9844100C1844910D9A471401167
:2009A000E4B99069442100E1C4A99079645140312419100904010000000000000000000064
:2009C0000000000000000101010101010102020202020303030304040404050505050606CA
:2009E0000607070708080909090A0A0A0B0B0C0C0D0D0E0E0F0F101011111212131314145D
:200A000015151617171819191A1A1B1C1C1D1E1E1F202121222324242526272728292A2BF1
:200A20002B2C2D2E2F30313132333435363738393A3B3C3D3E3F404142434445464748497F
:200A40004A4B4C4D4E4F51525354555657595A5B5C5D5F60616264656667696A6B6C6E6F19
:200A6000707273747677797A7B7D7E7F8182848587888A8B8D8E909193949697999A9C9DAC
:200A80009FA0A2A4A5A7A9AAACADAFB1B2B4B6B7B9BBBDBEC0C2C4C5C7C9CBCCCED0D2D441
:200AA000D5D7D9DBDDDFE1E2E4E6E8EAECEEF0F2F4F6F8FAFCFE010204081020408000002A
:200AC00000000000000000000000000000000102040810204080BAF00AFEA900E1900AFE43
:200AE000A5018B18E480B00AF62BE2900AF3182C4C0AE4186B01186F38EFE1B00AE0608DE7
:200B000080FD4780FD900B0C8AA380FD8D80FF7180FD38ED80FDBBA380FFBD08B638880887
:200B2000B68D80FEBD09B68809B68D80FFA380FDAD80FE180408B68D80FEAD80FF0409B606
:200B4000186A016680FE01A380FE60A285A005200AD600C91AD00B87E003D00B87E305D09E
:200B60000B87A958A245200AFF00C917D00B87E0B8D00B87A93CA202200AFF00C900D00B40
:200B800087E078D00B8760FEFAFF48A9008D8102A9AF8D8103A9008D8100A9B08D81012014
:200BA0000BA500686048979596338103358102A200A900A1E8470100D00BB39A999E686001
:200BC0004898BBA200AD81008D8104AD81018D810533810335810294D00BFBE301F00BEDB1
:200BE0009798E894D00BF9CBD00BE29F9EA901A1E8CBD00BEF184C0C149F9EA940186D8139
:200C0000048D8104A9006D81058D8105E8470100D00BD7389F6833810535810460489798A4
:200C2000BB385AED81005759ED810156A200E500D00C3BE400D00C3B4C0C4EE8470100F025
:200C40000C61385AE9405759E900564C0C2EA900338103358102A1E8CBD00C56189F9E689C
:200C60006038689E9F6048290FAA68A801A801A801A801488A200C7B00AA68C90A900C8225
:200C80006966493060200C9700AFAFAFAF95568A200C97000E996038E930C90A900CA8E99D
:200CA00007C910900CA8E9206048A200C964900CC86838A000C964900CC0E964C8B00CB5DD
:200CC00048BA0B30AA4C0CD1A0006848C90A900CE56838A000C90A900CE0E90AC8B00CD585
:200CE00048BA0B30BB680B3060A200200CF9009D8344E8E00AD00CEB60A020A900182AC961
:200D00000A900D06E90A268340268341268342268343CB100CFE6048A9038D6020A9008D0D
:200D200083F28D83F3A9FF8D83F1688D602060A20094F00D44200D5C008D6021E8D00D31B9
:200D40002E4C0D3160AD60201502F00D5894F00D5A8D6021E84C0D451860386048AD6020DE
:200D60001502F00D5D6860200D5C008D602160200C6600200D5C008D60218A200D5C008D7A
:200D8000602160200CA900200D5C00716021200D5C00756021200D5C008D602160A90A20D9
:200DA0000D5C008D6021A90D200D5C008D602160AD60201501F00DB0AD6021603383F435B2
:200DC00083F5AD83F1F00DE0AD60201501F00DE0AD6021A383F3EE83F3CE83F1A14C0DC2D4
:200DE000603383F43583F5AD83F1C9FFF00DFBA383F2EE83F2EE83F19438601860200CE9C5
:200E000000A209BD8344D00E0DCAD00E03BD83440B30AB200D6700CA100E0D607583397A0F
:200E2000833A80833BA9018D833C8D833FA943200D6700A93F8D833EA9008D83378D833884
:200E4000200F2600B00E5E900E2DA93F8D833EA9008D83378D8338200F2600900E4AC91BC7
:200E6000D00E6460C901F00E71C904D00ED74C0F18A200A6002DF00ED7AD60201501F00E17
:200E800075AD60219D8200E8E084D00E73A200BD82005C833CF00EA0200F4E00A9011860BA
:200EA00049FFE856BD8200575951F00EB5200F4E00A9011860A002318200200F6900C8E382
:200EC00082D00EB73182005C8338D00ED7C83182005C8337F00EE4200F4E00A915200D673A
:200EE000004C0E4AA200A0023182009837833933833A35833BB39FEE833BD00F06EE833A5B
:200F0000D00F06EE8339C8E382D00EE8EE833CA906200D67004C0E4AA906200D6700200F49
:200F20004E00A9023860A9008D833D18AD60201501F00F401520F00F3BFEEEAD602138606F
:200F4000CE833DD00F2BCE833ED00F2B1860A9158D833E200F2600B00F4E6018AD602015C0
:200F600001F00F68AD60213860118338AABD107F56AD8337138D8338BD0F7F8D8337600077
:200F800021426384A5C6E708294A6B8CADCEEF31107352B594F7D639187B5ABD9CFFDE62FF
:200FA000432001E6C7A4856A4B2809EECFAC8D53721130D7F695B45B7A1938DFFE9DBCC4DF
:200FC000E586A740610223CCED8EAF48690A2BF5D4B79671503312FDDCBF9E79583B1AA63F
:200FE00087E4C522036041AE8FECCD2A0B684997B6D5F4133251709FBEDDFC1B3A5978881F
:20100000A9CAEB0C2D4E6F80A1C2E304254667B998FBDA3D1C7F5EB190F3D235147756EA7E
:20102000CBA8896E4F2C0DE2C3A08166472405DBFA99B85F7E1D3CD3F291B0577615344C5E
:201040006D0E2FC8E98AAB44650627C0E182A37D5C3F1EF9D8BB9A75543716F1D0B3922EBE
:201060000F6C4DAA8BE8C926076445A283E0C11F3E5D7C9BBAD9F81736557493B2D1F000AE
:20108000102030405060708191A1B1C1D1E1F112023222524272629383B3A3D3C3F3E324FC
:2010A00034041464744454A5B58595E5F5C5D53626160676665646B7A79787F7E7D7C7485C
:2010C00058687808182838C9D9E9F98999A9B95A4A7A6A1A0A3A2ADBCBFBEB9B8BBBAB6CBC
:2010E0007C4C5C2C3C0C1CEDFDCDDDADBD8D9D7E6E5E4E3E2E1E0EFFEFDFCFBFAF9F8F911B
:2011000081B1A1D1C1F1E110003020504070608393A3B3C3D3E3F30212223242526272B57B
:20112000A59585F5E5D5C53424140474645444A7B78797E7F7C7D72636061666764656D9DB
:20114000C9F9E99989B9A95848786818083828CBDBEBFB8B9BABBB4A5A6A7A0A1A2A3AFD3B
:20116000EDDDCDBDAD9D8D7C6C5C4C3C2C1C0CEFFFCFDFAFBF8F9F6E7E4E5E2E3E0E1EA517
:2011800081A620200D2F006097200CA9009B9EE500F011987C8120E8E300F011A177812087
:2011A000E89D8120E860A511A6AF200D2F00601B5B324A00A511A6BD200D2F00601B5B4875
:2011C00000A91B8D8120A95B8D8121A2025920118800A93B9D8120E85A20118800A9489D89
:2011E0008120E8A9009D812020117F0060A511A6F6200D2F00601B5B4100A512A603200D1D
:201200002F00601B5B4200A512A610200D2F00601B5B4300A512A61D200D2F00601B5B44B5
:2012200000A512A62A200D2F00601B5B4B00A512A637200D2F00601B5B314B00A512A645C6
:20124000200D2F00601B5B324B00A512A653200D2F00601B5B306D00A512A661200D2F0046
:20126000601B5B316D00A512A66F200D2F00601B5B346D00A512A67D200D2F00601B5B351A
:201280006D00A512A68B200D2F00601B5B376D00A512A699200D2F00601B5B33306D00A586
:2012A00012A6A8200D2F00601B5B33316D00A512A6B7200D2F00601B5B33326D00A512A656
:2012C000C6200D2F00601B5B33336D00A512A6D5200D2F00601B5B33346D00A512A6E420AA
:2012E0000D2F00601B5B33356D00A512A6F3200D2F00601B5B33366D00A513A602200D2FF3
:2013000000601B5B33376D00A513A611200D2F00601B5B34306D00A513A620200D2F006074
:201320001B5B34316D00A513A62F200D2F00601B5B34326D00A513A63E200D2F00601B5B05
:2013400034336D00A513A64D200D2F00601B5B34346D00A513A65C200D2F00601B5B3435B2
:201360006D00A513A66B200D2F00601B5B34366D00A513A67A200D2F00601B5B34376D004C
:20138000A513A689200D2F00601B5B7200A91B8D8120A95B8D8121A2025920118800A93B03
:2013A0009D8120E85A20118800A9729D8120E8A9009D812020117F0060A513A6C2200D2F40
:2013C00000601B4400A513A6CE200D2F00601B4D00A513A6DA200D2F00601B5B376800A550
:2013E00013A6E8200D2F00601B5B376C00A513A6F6200D2F00601B2800A514A602200D2F67
:2014000000601B2900A514A60E200D2F00601B6300A514A61A200D2F00601B5B366E000032
:201420000042524B000000005343530000000053434600000303414443000002024144436E
:20144000002C58000303414443002C58000000414443002045000202414E4400000303416B
:201460004E4400000000414E44002044000000414E440020450001014F5241000002024F34
:201480005241000003034F5241000000004F52410020440000004F524100204500020242FE
:2014A000504C00000202454F5200000303454F5200000000454F52002044000000454F528A
:2014C000002045000101424954000002024249540000030342495400000000434C4300002C
:2014E00003034243430000020241534C000003024C5352000002024C4458002C59000202CF
:201500004C4459002C580002024C4444002C580002024C4445002C580003024A53520000B1
:2015200003034A5352000003034243530000030342455100000303424D4900000303424E86
:201540004500000202524F4C0000030342504C0000000044454400000101414E44000000CF
:2015600000524F4C002041000000524F4C002045000000524F4C00204400000044454500AC
:20158000000000494E4400000000494E4500000202424D49000002024C4441002C5900035B
:2015A000034C4441002C590002024C4444000003034C4444000002024C4445000003034CF5
:2015C0004445000002024C445900000000534543000003034C4459000000005254490000DC
:2015E00003034C444F00000303434D500000020243504400000303435044000002024350D1
:201600004500000303435045000002024350580000000050484100000101454F52000003F4
:201620000343505800000202435059000002024A4D50000003034A4D500000030343505902
:2016400000000000435059002044000000435059002045000000435044002045000303495E
:201660004E430000030344454300000303524F4C00000403524F5200000000544144000041
:20168000000054414500000000434C4900000000544441000000005445410000030353424A
:2016A0004300000202434D50000000005342430020440000005342430020450002025342F1
:2016C00043002C5800000052545300000303534243002C58000303535441002C5800030271
:2016E000524F5200000000504C410000010141444300000100524F52002041000100524F59
:2017000052002045000100524F5200204400020241444300000202535441002C590000007D
:20172000414443002044000303535441002C590002025354580000030353545800000202FE
:20174000535458002C59000303535458002C5900020253545900000303535459000002026D
:20176000535459002C5800000053454900000303535459002C580002025354440000030385
:2017800053544400000202535444002C58000303535444002C58000202535444002C590002
:2017A0000303535444002C590002025354450000030353544500000202535445002C58005D
:2017C0000303535445002C58000202535445002C59000303535445002C59000202414443DB
:2017E000002C59000303414443002C59000202534243002C59000303534243002C5900004D
:2018000000545841000000005459450000000054455900000202535441000003035354411D
:20182000000002024A4D5020280029000202424343000003034A4D50202800290003024AD3
:201840005352202800290003034A5352202800290000004C4441002044452C5800000050BE
:20186000484400000000504845000000005048580000000050485900000000504C4400003E
:201880000000504C45000000005458440000000054445800000202535441002C5800000017
:2018A000504C5800000000504C59000001014C445900000000535441002044452C5800013E
:2018C000014C4458000002024C4458000003034C4458000001014C4444000001014C444598
:2018E000000003034C4441000001004C53520020410001014C4441000000005441580000FE
:20190000000054414F00000000544941000002024C444100000000544149000000004153BE
:201920004C002041000202424353000004024C4441202800290000004C4441002059444503
:201940002C5800000053544100205944452C58000202434D50002C58000202434D50002C1D
:2019600059000303434D50002C58000303434D50002C5900020253544120280029000202D8
:20198000434D502028002900000054594100000000544159000002024C4441202800292CA8
:2019A000580002024C4441002C580003034C4441002C58000202535441202800292C58003A
:2019C0000202434D50202800292C580002024C4441202800292C590002025354412028002F
:2019E000292C59000202434D50202800292C59000000494E5900000101434D50000000008D
:201A0000444558000000004445590000020244454300000202424E4500000101435058006D
:201A200000000043505800205900000043505800204500010143505900000101435045002A
:201A400000010143504400000000494E5800000101534243000000004E4F500000000043B4
:201A6000505800204400020253424300000202494E43000000005342580020450002024208
:201A8000455100000402494E570000040244455700000000444D50000002024C444F000012
:201AA00001014C444F00000000484C54000000004E4F542056414C49440000141414141478
:201AC00014141414141414141414141414141414141414141414141414151515151515157F
:201AE0001515151515151515151515151515151515151515151A1A1A1A1A1A151515151528
:201B00001516161616161616161616161616161616161616161616161616161616161A1AFE
:201B20001A161A1616161617171717171717171717171717171717171717171717171717C4
:201B400017171717171718181818181818181818181818181818181818181818181818188B
:201B6000181818181818191919191919191919191919191919191919191919191919191A4A
:201B80001A1A1A1919191A1A1A1A1A1A1A1A1A1A1A1A1A1A1A1A1A1A1A1A1A1A1A1A1A1A08
:201BA0001A1A1A1A1A1A1A1A1A1A1A1A1A1A1A1A1A1A1A1A1A1A1A1A1A1A1A1F262D343B86
:201BC000444D565D646D767D848B949DA4ABB2BBC4CBD2D9E0E7EEF5FE07101920272E3545
:201BE0003C434A51585F68717A81888F969FA8AFB6BDC4CBD2AEAEAEAEAEAED9E0E7EEF532
:201C0000FC030A11181F262D343B424B545D646B727980878E959CA3AAB3BCC5CCD5AEAE75
:201C2000AEDEAEE5ECF3FC050E151E2730373E4750575E676E777E858E97A0A9B0B7C0C99F
:201C4000D2DBE4EDF6FF060D141B222C333D47515D646B727980878E959EA5ACB3BFC6CD44
:201C6000D4DBE2E9F2F900070E151C252C36435059626B747E888F96A2ABB4C0CCD8E4AEE3
:201C8000AEAEAEF0F7FE05AEAE0CAE13AEAEAEAEAEAEAEAEAEAEAEAEAEAEAE1A212A333A23
:201CA00041AEAE484F565DAE666D747D848BAEAEAEAE92AEAEAEAEAE99A0A702A915200D3F
:201CC0001700A9042001270058A9008D8000200D9D00A9008D8001A93E200D6700AD6020C1
:201CE0001501F01CDDAD6021ABC90DF01D1CC97FF01D08200D6700A380019D800BEE800161
:201D0000E00FF01D454C1CDD2012140020122100AD8001F01CDDCE80014C1CDDA38001E0F5
:201D200000F01D50AD800BC964F01DF8C975F01E97C972F01ED6C968F01D68C961F01EF705
:201D4000C966F01EF0A523A64B200D2F004C1CCEA520A60D200D2F00378000E301F01EB6D8
:201D6000E302F01EC64C1CCEA520A60D200D2F00A521A62A200D2F004C1CCEAD8001C90180
:201D8000F01DCCC905F01DB2C907F01D8F3860AD800CA3800D200C8500BBAD800EA3800F97
:201DA000200C850056AD8010A38011200C8500571860A000AD800CA3800D200C850056AD6E
:201DC000800EA3800F200C8500571860A000A584A60018607580027A8003808004603780CD
:201DE0000233800335800460EE8004D01DF7EE8003D01DF7EE800260201D7B00B01D45A924
:201E0000008D8005200D9D00BA200D6F0059200D6F005A200D6F00A93A200D6700A9202045
:201E20000D6700A200B297200D6F009EA920200D6700E8E004F01E4AE008F01E4AE00CF06C
:201E40001E4AE010F01E4A4C1E50A920200D6700E010D01E25A200B2C91F901E65C97EB072
:201E60001E654C1E67A92E200D6700E8E008D01E77A920200D6700E010D01E57EE8005ADBC
:201E80008005C910F01CCE5A18691057901E042ED01E04C84C1E04201D7B00B01D459596CB
:201EA000A523A6AE200D2F009A9978200E1C00588D80004C1CCEA523A678200D2F00A00038
:201EC0007580004C1CCEA523A691200D2F00A0007580004C1CCE201D7B00B01D45201DD4D6
:201EE0000093008002A523A65D200D2F004C1CCE204000004C1CCE201D7B00B01D45201DD3
:201F0000D400A9008D8005201DDE00200D9D00BA200D6F0059200D6F005A200D6F00A93A29
:201F2000200D6700A920200D6700A200B248200D6F00A920200D6700201DE8009EBD1ABBC6
:201F400056BD1BBB577A8006808007A200948D8008E8948D8009201DDE00A200478008F0E1
:201F60001F73B297200D6F00A920200D67009EE84C1F5CA204478008F01F8DA920200D67D2
:201F800000200D6700200D6700CA4C1F75338006358007A20294F01FA1200D6700E84C1F2B
:201FA00095E871800AAD8009F01FDA201DDE00A200A920200D6700A930200D6700A97820C2
:201FC0000D6700478009F01FD4B297200D6F009EE84C1FC3A920200D67003380063580076F
:201FE000A3800A94F01FEF200D6700E84C1FE3AD8008F01FFF201DE800CE80084C1FEFEE52
:202000008005AD8005C90AF01CCE4C1F070A0D0A0D50726F6A656374204F54544F204B65AF
:20202000726E656C202D2076312E322E3439202830362F31382F32303235290A0D0A0D56F5
:20204000616C696420636F6D6D616E6473202864656661756C7420616464726573732030F1
:202060007838343030293A0A0D2020206179797878787820202D20646973417373656D62E7
:202080006C65206D656D6F7279200A0D2020206479797878787820202D2044756D70206D39
:2020A000656D6F7279200A0D2020207579797878787820202D2055706C6F616420617070C3
:2020C0006C69636174696F6E0A0D2020207279797878787820202D2052756E206170706C63
:2020E00069636174696F6E0A0D2020206620202020202020202D20737461727420466F725A
:20210000746820696E7465727072657465720A0D2020206820202020202020202D20736808
:202120006F772048656C700A0D000A0D4578616D706C65733A0A0D202020642020202020EE
:202140002020202D2064756D702074686520636F6E74656E7473206F66206D656D6F72797F
:20216000206174207468652064656661756C7420616464726573730A0D202020643830308B
:2021800030202020202D2064756D702074686520636F6E74656E7473206F66206D656D6FDA
:2021A0007279207374617274696E672066726F6D206C6F636174696F6E20307838303030CB
:2021C0000A0D2020207530313030303020202D2075706C6F616420616E206170706C696358
:2021E0006174696F6E20616E642073746F7265206974206174206C6F636174696F6E203069
:20220000783031303030300A0D2020207230313030303020202D2072756E20746865206157
:2022200070706C69636174696F6E206174206C6F636174696F6E2030783032303030300A09
:202240000D0A0D4D656D6F7279206D61703A0A0D2020203078303030302D3078354646468E
:202260002020202020202D20524F4D0A0D2020203078363030302D30783833464620202052
:202280002020202D2072657365727665640A0D2020203078383430302D307845464646203A
:2022A00020202020202D20667265652052414D202832374B42290A0D202020307846303063
:2022C000302D3078464646462020202020202D2072657365727665640A0D20202030783025
:2022E00031303030302D307830314646464620202D20667265652052414D202836344B4231
:2023000029202D20657870616E73696F6E2023310A0D20202030783032303030302D3078C8
:2023200030324646464620202D20667265652052414D202836344B4229202D206578706171
:202340006E73696F6E2023320A0D000A0D3F73796E746178206572726F720A0D000A0D490C
:202360004E464F3A20457865637574696F6E20656E6465642E0A0D000A0D494E464F3A206A
:2023800055706C6F6164204661696C6564210A0D000A0D494E464F3A2055706C6F61642019
:2023A0005375636365737366756C210A0D000A0D494E464F3A20426567696E20584D4F44EB
:2023C000454D2F435243207472616E736665722E20205072657373203C4573633E20746FAC
:0C23E0002061626F72742E2E2E0A0D0018
:00000001FF